:100000000C9493010C94B0010C9471150C94B001F4
:100010000C94B0010C94B0010C94B0010C940A1A29
:100020000C94B0010C94B0010C94B0010C94B0018C
:100030000C94B0010C94B0010C94B0010C94B0017C
:100040000C94B0010C94B0010C94B0010C94B0016C
:100050000C94B0010C94B0010C94B0010C94B0015C
:100060000C94B0010C94B0010C94B0010C94B0014C
:100070000C94B0010C94B0010C94B0016E657874CE
:100080002073746167650020706F696E7473004738
:10009000414D45204F564552006E6578742073746B
:1000A000616765000000000000000000002F0000F4
:1000B00000000700070000147F147F1400242A7F2B
:1000C0002A120062640813230036495522500000AA
:1000D0000503000000001C224100000041221C001A
:1000E0000014083E08140008083E0808000000A09C
:1000F0006000000808080808000060600000002098
:1001000010080402003E5149453E0000427F400075
:10011000004261514946002141454B3100181412FB
:100120007F10002745454539003C4A4949300001C8
:100130007109050300364949493600064949291E17
:100140000000363600000000563600000008142279
:100150004100001414141414000041221408000279
:100160000151090600324959513E007C1211127C9E
:10017000007F49494936003E41414122007F4141CB
:10018000221C007F49494941007F09090901003EBD
:100190004149497A007F0808087F0000417F4100FB
:1001A000002040413F01007F08142241007F404071
:1001B0004040007F020C027F007F0408107F003E59
:1001C0004141413E007F09090906003E4151215E3F
:1001D000007F091929460046494949310001017F3C
:1001E0000101003F4040403F001F2040201F003FD2
:1001F0004038403F00631408146300070870080784
:1002000000615149454300007F41410000552A5596
:100210002A55000041417F00000402010204004011
:100220004040404000000102040000205454547833
:10023000007F484444380038444444200038444453
:10024000487F00385454541800087E0901020018F1
:10025000A4A4A47C007F080404780000447D40002E
:10026000004080847D00007F102844000000417F12
:100270004000007C04180478007C080404780038EE
:100280004444443800FC242424180018242418FC76
:10029000007C0804040800485454542000043F44DF
:1002A0004020003C4040207C001C2040201C003CA2
:1002B0004030403C004428102844001CA0A0A07CF2
:1002C000004464544C44000008774100000000637F
:1002D0000000000041770800000804080804AE2070
:1002E00000B0C8001040813FA1A6A83FA4D300D50C
:1002F000F0D922DA12DB208D1420706F696E7473CE
:100300000047414D45204F56455200287072657395
:100310007320746F2072657475726E29007E546943
:100320006E7950437E0011241FBECFEFCDBFDFE3B7
:10033000DEBF24E2A4E0B0E201C01D92AB30B20700
:10034000E1F710E2A0E0B0E2E1E0FFE302C00590D7
:100350000D92A430B107D9F70E945F1D0C94511F74
:100360000C9400004F925F926F927F928F929F92B7
:10037000AF92BF92CF92DF92EF92FF920F931F93B3
:10038000CF93DF93CDB7DEB7DA95CDBFDEBF5E0189
:1003900021E0A20EB21E8E010F5F1F4F7801F8E020
:1003A000EF0EF11C0E94961EF80181938F01EE164C
:1003B000FF06C1F78701AE14BF0481F750900A20F1
:1003C000EE24E394F12C80910A20811101C0512C7C
:1003D0000E9463199E012F5F3F4F6901612C812CA0
:1003E000912C44244394460C7724739410E005C068
:1003F0001F5F73947394103439F1812F869586951D
:100400008695F601E80FF11D8081282F30E0812FBD
:100410008770A70102C0440F551F8A95E2F7CA01F1
:1004200082239323892B21F301E0242D472D662D70
:10043000812F880F0E94BD175FEF851A950A1F5FF5
:10044000739473941034C9F688E0C80ED11C639479
:100450006394AC14BD0429F60E94591960E074E05D
:10046000C4010E94B61AFE0131966F01412C612C25
:1004700077247A94740C812C99249A94892D860D72
:10048000082E000C990B8F73907897FD6AC08F73BC
:100490009927182F110F00E00130B1F0672D600F80
:1004A000062E000C770B6F71707877FD53C06F715B
:1004B0007727660F812F0E94721981118394023071
:1004C00031F00F5F013051F79110E8CFFACF9394DC
:1004D000F2E09F12D3CF8EEF880D823008F446C031
:1004E000862D869586958695F601E80FF11D862D59
:1004F0008770970102C0220F331F8A95E2F7C90166
:100500008095908189238083639450E46512B3CFF2
:10051000439488E0C80ED11C90E24912A8CF809184
:100520000A20882309F44FCF51104DCFD395CDBF6A
:10053000DEBFDF91CF911F910F91FF90EF90DF9081
:10054000CF90BF90AF909F908F907F906F905F9073
:100550004F90089561507109606E7F6F6F5F7F4F9C
:10056000A6CF0197806C9F6F019691CF33E08312E5
:10057000CBCF862D869586958695F601E80FF11DE1
:10058000862D8770A70102C0440F551F8A95E2F798
:10059000CA019081892B8083B7CFAF92BF92CF924F
:1005A000DF92EF92FF921F93CF93DF93EC0168816C
:1005B00079818A819B810E942C1B6B017C016C815B
:1005C0007D818E819F810E942C1B99231AF46130BA
:1005D00070488F4F682F770F661F0024C0FC0A9465
:1005E000C00CE89407F8D01CE11CCE2CDD0CCC1C10
:1005F000CA94CA948EEFE82EFF24FA949EEFD92E67
:10060000D60E1D2DCEEFDFEFAA24BB24AE18BF08F7
:10061000CE01D7FD23C0029729F4C701F7FC23C000
:10062000029729F041E0612F8C2D0E942A17219614
:100630001F5FC330D10561F7C3948FEFE81AF80A42
:1006400083E0E816F104E9F6DF91CF911F91FF9066
:10065000EF90DF90CF90BF90AF90089588279927B3
:100660008C1B9D0BD8CFC501DBCF0F930E942C1B99
:10067000DC01CB011697BB231AF481309048AF4FB1
:100680008A2F990F881F49E1480F01E02FE36CE39F
:100690000E94BD170F910895CF92DF92EF92FF92C3
:1006A0000F931F93CF93DF936C01C0E0EE24E3948C
:1006B000F12C1BEAD5E103C0CF5FC831A1F18C2F2B
:1006C000869586958695F601E80FF11D8081282F85
:1006D00030E08C2F8770A70102C0440F551F8A9508
:1006E000E2F7CA0182239323892B31F3C19F612D45
:1006F000112466956695862F880F860F880F5C2FCC
:10070000581B5D9F802D1124962F990F990F690F0B
:1007100023E0260F44E1480F01E08F5F0E94BD17E0
:10072000CF5FC83161F6DF91CF911F910F91FF909C
:10073000EF90DF90CF9008950F931F93CF93DF93A7
:10074000CDB7DEB7AE97CDBFDEBFFE017D9622E10D
:10075000DF011D922A95E9F740E050E060E270E089
:100760004D8F5E8F6F8F78A300E010E02DE130E0B9
:1007700009A31AA32BA33CA30BE217E320E030E06C
:100780000DA31EA32FA338A709E118E42FEF3FEF15
:1007900009A71AA72BA73CA722E1DE011196019019
:1007A0000D922A95E1F74B8B5C8B6D8B7E8B4FEF17
:1007B0005FEF4F8B588F2FEF298F4A8F5B8F2C8FD6
:1007C0002CE1FE013196DC0101900D922A95E1F7B2
:1007D000AE96CDBFDEBFDF91CF911F910F910895EF
:1007E0002F923F924F925F926F927F928F929F9241
:1007F000AF92BF92CF92DF92EF92FF920F931F932F
:10080000CF93DF93CDB7DEB7C856D109CDBFDEBFDA
:10081000CE0101960E949C030E946319CE01479667
:100820000E944C03CE0101960E94CD026B897C8907
:100830008D899E890E9435030E94591968E470E0F1
:1008400080E090E00E94B61A212C0E9463198091EA
:100850000920882329F080910820833009F4A9C554
:1008600080910920882329F080910820813009F4A3
:10087000B9C569817A818B819C810E942C1B992347
:100880001AF4613070488F4F682F770F661F698B9D
:100890006D817E818F8198850E942C1BDC01CB01AC
:1008A000119720E030E044E050E00E94E21D9923DF
:1008B0001AF4613070488F4F682F770F661F6A8B6C
:1008C00089849A84AB84BC84C980DA80EB80FC8004
:1008D000C80CD91CEA1CFB1CC982DA82EB82FC82A0
:1008E0004D845E846F84788829964CAE5DAE6EAE82
:1008F0007FAE29978D819E81AF81B885480E591EA4
:100900006A1E7B1E4D825E826F8278862B893C89AF
:100910004D895E89A1962CAF3DAF4EAF5FAFA197D9
:10092000C11430E4D30631E0E306F1040CF4D4C47E
:10093000C11470ECD7067EE3E706F10411F00CF069
:1009400006C5411450E4550651E0650671049CF556
:10095000D301C2019054A140B10929962CAD3DADFF
:100960004EAD5FAD29970E94E21D8B019C01B50140
:10097000A4010E948E1DC81AD90AEA0AFB0AC9827C
:10098000DA82EB82FC8260E070E481E090E06D83CB
:100990007E838F83988729960CAD1DAD2EAD3FAD1C
:1009A000299740E050E86FEF7FEF0E948E1D8D8702
:1009B0009E87AF87B88B312C7DC0B701A6015054FC
:1009C00061407109A9964CAF5DAF6EAF7FAFA9973B
:1009D00044155505660577050CF488C1DB01CA018D
:1009E000C982DA82EB82FC828D829E82AF82B886D7
:1009F000B501A40150546140710925964CAF5DAF1B
:100A00006EAF7FAF2597481659066A067B065CF0E5
:100A100029964CAC5DAC6EAC7FAC299704151505DE
:100A20002605370584F469960CAD1DAD2EAD3FAD9E
:100A3000699740E050E86FEF7FEF0E948E1D898735
:100A40009A87AB87BC8765964CAC5DAC6EAC7FACCF
:100A5000659725962CAD3DAD4EAD5FAD2597421601
:100A600053066406750684F030E4930E31E0A31E4D
:100A7000B11C61964CAC5DAC6EAC7FAC61978414DC
:100A80009504A604B70484F46D960CAD1DAD2EAD8F
:100A90003FAD6D9740E050E86FEF7FEF0E948E1DF5
:100AA0008D879E87AF87B88B339498E1592E351484
:100AB00009F461C1832D869586958695E7E1F0E07E
:100AC000EC0FFD1FE80FF11D2081832D877041E0A1
:100AD00050E002C0440F551F8A95E2F7822F90E044
:100AE00084239523892B01F37BEA379E812D1124E2
:100AF00086958695982F990F980F990F632D691BEE
:100B000095E1699F602D1124C980DA80EB80FC801B
:100B1000A1E0A60FB0E0442455243D0175946794EC
:100B2000579429964CAE5DAE6EAE7FAE29974601C6
:100B3000570130E4930E31E0A31EB11C4814590450
:100B40006A047B040CF0B0CF6C5E70E04424552442
:100B50003B0175946794579460E4D61A61E0E60A05
:100B6000F108C414D504E604F7040CF09DCF982FC7
:100B7000990F990F382F390FCD80DE80EF80F884E0
:100B8000632F70E0882499245B01B594A79497940F
:100B900061968CAE9DAEAEAEBFAE61974601570179
:100BA00060E4960E61E0A61EB11C61968CAD9DAD11
:100BB000AEADBFAD619788159905AA05BB050CF0D0
:100BC00073CF83E0830F90E0882499245C01B5946F
:100BD000A794979465968CAE9DAEAEAEBFAE65976A
:100BE00030E4D31A31E0E30AF108C814D904EA0466
:100BF000FB040CF059CF409524232083C980DA8070
:100C0000EB80FC8089849A84AB84BC8469968CAE2A
:100C10009DAEAEAEBFAE6997D501C40120E030E015
:100C200045E050E00E94E21D2D966CAF7DAF8EAF87
:100C30009FAF2D978D809E80AF80B8842D853E8597
:100C40004F8558896D962CAF3DAF4EAF5FAF6D9716
:100C5000DA01C90120E030E045E050E00E94E21DE9
:100C6000AB01BC01A5964CAF5DAF6EAF7FAFA59752
:100C70002D964CAD5DAD6EAD7FAD2D97C41AD50AE6
:100C8000E60AF70AA5966CAD7DAD8EAD9FADA59732
:100C9000861A970AA80AB90A97018601105C2E4F96
:100CA0003F4F29968CAD9DADAEADBFAD2997801756
:100CB0009107A207B3070CF480CEC982DA82EB82D7
:100CC000FC828D829E82AF82B886D701C601905485
:100CD000A140B109B501A4015054614071092596A4
:100CE0004CAF5DAF6EAF7FAF25978DCEC501B40120
:100CF000705C8E4F9F4FAB01BC0161968CAD9DAD7A
:100D0000AEADBFAD619784179507A607B7073CF056
:100D1000A9968CAD9DADAEADBFADA99761CEC50115
:100D2000B40170548140910925966CAF7DAF8EAFB0
:100D30009FAF259765968CAD9DADAEADBFAD659768
:100D400025964CAD5DAD6EAD7FAD25974817590723
:100D50006A077B070CF48CCFA9968CAD9DADAEAD28
:100D6000BFADA997C982DA82EB82FC828D829E8216
:100D7000AF82B88648CEA1966CAD7DAD8EAD9FADED
:100D8000A1970E942C1B4B015C01A1966CAD7DAD1F
:100D90008EAD9FADA1970E942C1BC980DA80EB809D
:100DA000FC8026E0A21AB108002480FC0A94800C82
:100DB000E89407F8901CA11C8A2C990C881C912C93
:100DC00044245524340175946794579497018601FF
:100DD000105C2E4F3F4F40165106620673060CF012
:100DE00054C2DC01CB011696BB231AF48130904823
:100DF000AF4F6A2F990F661F70E0882499245B011A
:100E0000B594A794979425968CAE9DAEAEAEBFAE2A
:100E10002597D701C6019054A140B10988159905BD
:100E2000AA05BB050CF031C28D809E80AF80B884CE
:100E3000D501C401905CAE4FBF4F0097AE41B105E4
:100E400009F00CF4ADC0D501C4019054A140B10922
:100E500081159048AF41B1050CF0A2C089859A85F3
:100E6000AB85BC8520E030E045E050E00E94E21D0B
:100E70002D966CAF7DAF8EAF9FAF2D974D855E8564
:100E80006F85788929964CAF5DAF6EAF7FAF29979C
:100E9000DB01CA0120E030E045E050E00E94E21DA5
:100EA000AB01BC012D960CAD1DAD2EAD3FAD2D9708
:100EB00061964CAF5DAF6EAF7FAF6197C01AD10A3C
:100EC000E20AF30A61966CAD7DAD8EAD9FAD619780
:100ED000861A970AA80AB90AD701C601905CAE4FD4
:100EE000BF4F481659066A067B0624F5D701C6018E
:100EF0009054A140B10925964CAD5DAD6EAD7FAD6E
:100F0000259784179507A607B707A4F4D501C40150
:100F1000905CAE4FBF4F0097AE41B10559F054F011
:100F2000D501C4019054A140B10981159048AF4149
:100F3000B10524F2C982DA82EB82FC828D829E8224
:100F4000AF82B88629960CAD1DAD2EAD3FAD299769
:100F500040E050E86FEF7FEF0E948E1D8D879E87E7
:100F6000AF87B88BA1964CAC5DAC6EAC7FACA19753
:100F7000C418D508E608F7086E2DFF203AF41C14B3
:100F80001A94E89417F8D11C1124611DDD0C661F1A
:100F9000CE0109960E94631B8D809E80AF80B8842D
:100FA000811470EC97067EE1A706B10411F00CF0F5
:100FB00079C1CE0147960E944C03CE0101960E9452
:100FC000CD026B897C898D899E890E9435036D8154
:100FD0007E818F8198850E942C1BDC01CB011197AB
:100FE00020E030E044E050E00E94E21D99231AF432
:100FF000613070488F4F182F770F111F69817A81E8
:101000008B819C810E942C1BDC01CB01119745E058
:10101000612FBB231AF481309048AF4F8A2F990F6C
:10102000881F0E948E1969817A818B819C810E9420
:101030002C1B1F5FDC01CB01119745E0612FBB2307
:101040001AF481309048AF4F8A2F990F881F0E9461
:101050008E19898945E06A8982500E948E196A89B1
:101060006F5F898945E082500E948E196B897C8967
:101070008D899E890E942C1BDC01CB011697BB2316
:101080001AF481309048AF4F1A2F990F111F60E06A
:1010900070EC81E090E00E94381B880F0AE1080F95
:1010A00060E070EC81E090E00E94381B181708F0B7
:1010B00045C180E0402F67E00E948E19F12C88E145
:1010C000E82E05C0F39448E1F41609F4CEC08F2D44
:1010D00086958695869590E02F2D277041E050E00B
:1010E00002C0440F551F2A95E2F7EAE1F0E0EC0F49
:1010F000FD1FE80FF91F208130E02423352361E034
:10110000232B09F460E0E7E1F0E0EC0FFD1FE80FAE
:10111000F91F808190E04823592381E0452B09F491
:1011200080E0681779F28BEAF89E912D112496954C
:101130009695892F880F890F880F0F2D081BA5E121
:101140000A9F002D11240F5F192F110F110F190F76
:10115000D12ED694D694D69444E16D2D802F0E9442
:101160008E1963E0610F669566956695D61621F037
:1011700044E1802F0E948E1909851A852B853C85B4
:1011800043E353E860E070E00E948E1D89879A87F0
:10119000AB87BC870D851E852F8538890E948E1DE3
:1011A0008D879E87AF87B88B239468E470E0822D8B
:1011B00090E00E94B61ABBEA2B9E812D11248295E5
:1011C0008F70E22D8E9DE0191124E1117BCF65E037
:1011D00086E00E9468168CE790E00E94FB160E9451
:1011E00059190E946E1A88E0FE013996DE015D965B
:1011F00001900D928A95E1F7CE0185960E949C039D
:101200008CE1FE01B596DE01119601900D928A9552
:10121000E1F788E0FE017D96DE01199601900D92BE
:101220008A95E1F78D859E85AF85B8890097AF4F88
:10123000BF4F79F074F061E0CE0109960E94631B04
:101240008D859E85AF85B8890097AF4FBF4F09F058
:1012500094F70E947316CE0147960E944C030E9499
:101260005919F39448E1F41232CF5FEF69EF70E05F
:10127000515060407040E1F700C000008F89988DA8
:10128000A98D8A8F9B8FAC8FE0CA8D809E80AF80A6
:10129000B884811470EC97067EE1A706B10409F0CA
:1012A0000CF487CE822D0E94771AC859DF4FCDBF2C
:1012B000DEBFDF91CF911F910F91FF90EF90DF90F4
:1012C000CF90BF90AF909F908F907F906F905F90E6
:1012D0004F903F902F900895D701C6019054A140A0
:1012E000B109A50194010E94E21D8B019C01299680
:1012F0004CAD5DAD6EAD7FAD29970E948E1DB301E3
:10130000A201481B590B6A0B7B0B4D835E836F83D5
:10131000788760E070E481E090E069837A838B8372
:101320009C839501840140E050E86FEF7FEF0E94BD
:101330008E1D89879A87AB87BC873DCB60E070ECB8
:1013400081E090E00E94381B181B812FB3CED7019B
:10135000C601905CAE43B109A50194010E94E21D53
:101360008B019C0129964CAD5DAD6EAD7FAD29978B
:101370000E948E1DA3019201281B390B4A0B5B0BA7
:101380002D833E834F83588740E050EC6EE370E03E
:1013900049835A836B837C839501840140E050E844
:1013A0006FEF7FEF0E948E1D89879A87AB87BC877E
:1013B00002CB6B897C898D899E890E942C1B6115CB
:1013C000704C8740910509F00CF44ACA8B899C89BE
:1013D000AD89BE89905CA140B1098B8B9C8BAD8B94
:1013E000BE8B47CA6B897C898D899E890E942C1B84
:1013F0006115704C874391050CF03BCA8B899C8921
:10140000AD89BE899054AE4FBF4F8B8B9C8BAD8BFB
:10141000BE8B2FCA5F926F927F928F929F92AF92F4
:10142000BF92CF92DF92EF92FF920F931F93CF93D1
:10143000DF93FC01E058FF4F608071803696C081D9
:10144000D1813497508031961081209709F448C09B
:101450007C015C0184E8A80EB11C6701E5E8CE0EB2
:10146000D11C0FC02330D1F12130B1F11F5F1F70AB
:10147000E52DEF715E2E3401F1E06F1A71082197AE
:1014800079F1C130D105E1F14301F1E09F22612FF3
:10149000660F660F23E0260F852D880F880F43E027
:1014A000480F01E00E94BD17F401F695E795F69507
:1014B000E795EE0DFF1D208130E083E06822772460
:1014C000660C771C02C0359527956A94E2F7237065
:1014D000223041F61150CBCF5A94C9CF5394C7CF85
:1014E000DF91CF911F910F91FF90EF90DF90CF9000
:1014F000BF90AF909F908F907F906F905F90089576
:10150000F5015082F6011083BFCF0F931F93CF9345
:10151000DF93EC018B0115C088830E94961E8F70AB
:10152000907897FD1FC0F8018083880F880F62E0D4
:10153000680F8881880F880F8E5F0E947219882338
:10154000B1F00E94961E8F71907897FFE5CF0197BA
:10155000806E9F6F019688830E94961E8F70907890
:1015600097FFE1CF0197806F9F6F0196DCCFDF91EE
:10157000CF911F910F9108950F93660F660F880FFB
:10158000880F22E0260F42E0480F6F5F01E08F5F77
:101590000E94BD170F910895EF92FF920F931F9332
:1015A000CF93DF93CDB7DEB7CB58D109CDBFDEBF28
:1015B00091E09093082021E030E0C957DF4F288365
:1015C0003983C758D040CD57DF4F1882C358D04019
:1015D000CC57DF4F1882C458D040CF57DF4F188206
:1015E0001982C158D04089818C7F81608983C55719
:1015F000DF4F9883CB58D04064E670E081E090E004
:101600000E94B61ABE0166577F4FCE0187579F4F83
:101610000E94850A0E946319CE0101960E940A0A5F
:10162000C657DF4F6881CA58D040C757DF4F8881FF
:10163000C958D0400E94BC0A0E94591972E0E72E96
:10164000E3E0FE2EAFC080910820C557DF4F288110
:10165000CB58D040833009F4FCC080910820811120
:10166000EDC0223009F419C1C557DF4F1882CB589D
:10167000D04040E050E020E0CF57DF4F8881998193
:10168000C158D0400196FC01F170CF57DF4FE8837D
:10169000F983C158D040F695E795F695E7958370A4
:1016A0009927880F991F61E070E06C0F7D1FE60F8E
:1016B000F71F63E070E0082E01C0660F0A94EAF796
:1016C00060959081692301C0440F8A95EAF7462B03
:1016D0004083213009F485C008F4D3C0223009F4D6
:1016E000C4C0CD57DF4F8881C358D040233009F0A4
:1016F0007EC08150CC57DF4F6881C458D0408F7175
:10170000CD57DF4F8883C358D0406F70CC57DF4F21
:101710006883C458D040C757DF4F9881C958D0401C
:10172000981709F46AC0660F660F880F880F0E9429
:1017300072198111B9C00E946319CE0101960E94ED
:101740000A0AC657DF4F6881CA58D040C757DF4FD3
:101750008881C958D0400E94BC0ACC57DF4F6881AD
:10176000C458D040CD57DF4F8881C358D0400E9425
:10177000041A602F812F0E94041AC657DF4F688118
:10178000CA58D040C757DF4F8881C958D0400E94FF
:10179000041A7FE78AE196E0715080409040E1F7BB
:1017A00000C00000CB57DF4F1881C558D040CA5742
:1017B000DF4F0881C658D04020910820213009F021
:1017C00042CFC557DF4F8881CB58D040833009F4D2
:1017D0007DC0C557DF4F2883CB58D04041E050E053
:1017E0004BCFCD57DF4F8881C358D0408F5FCC5748
:1017F000DF4F6881C458D04082CFC657DF4F9881F1
:10180000CA58D04096138FCFC957DF4F888199812E
:10181000C758D0400196C957DF4F88839983C7586E
:10182000D04064E670E00E94B61ABE0166577F4F52
:10183000CE0187579F4F0E94850A7DCF8091082057
:10184000823011F0422F18CF21115AC040E050E0F1
:1018500013CF213009F44AC0C557DF4FF882CB5867
:10186000D04043E050E023E007CFCC57DF4F688102
:10187000C458D0406F5FCD57DF4F8881C358D040E8
:101880003ECFCC57DF4F6881C458D0406150CD5710
:10189000DF4F8881C358D04032CF809108208230FA
:1018A00079F142E050E0E8CEC957DF4F8881C75850
:1018B000D0400E94771AC557DF4FCDBFDEBFDF9102
:1018C000CF911F910F91FF90EF9008958091082084
:1018D000833011F280910820882309F4C5CE8091CD
:1018E0000820823069F023E0422FC6CE8091082084
:1018F000882309F4B9CE80910820823009F0A2CF64
:10190000C557DF4FE882CB58D04042E050E022E09C
:10191000B3CE8F929F92AF92BF92CF92DF92EF920F
:10192000FF920F931F93CF93DF9349015A01C92E62
:10193000D12C7601DD24CC24F594E794D794C82FDC
:10194000D0E0A72F99278827BB27A6959795262F04
:1019500030E02C1B3D0BA9013327222755954795D5
:1019600037958C199D09AE09BF090E94E21D8B01B4
:101970009C0188279927DE01B595A7959795B50114
:10198000A401481B590B6A0B7B0B0E948E1D2FEF85
:10199000E21AF20ABC01CD016C0D7D1D8E1D9F1D4A
:1019A000DF91CF911F910F91FF90EF90DF90CF903B
:1019B000BF90AF909F908F9008958F929F92AF921B
:1019C000BF92CF92DF92EF92FF920F931F93CF932C
:1019D000DF93CDB7DEB72897CDBFDEBF29833A832B
:1019E0004B835C836D837E838F839887C980DA8085
:1019F000EB80FC808D809E80AF80B884C114D104C0
:101A000087E0E806F10479F174F1F801808190E053
:101A1000DC0199278827B595A79597958C159D0585
:101A2000AE05BF050CF45DC060817181A701960110
:101A30008EE09FE30E94890C681579058A059B0555
:101A400044F521E0822F2896CDBFDEBFDF91CF91F4
:101A50001F910F91FF90EF90DF90CF90BF90AF90CC
:101A60009F908F9008958114E0E89E06E0E2AE0614
:101A7000B10409F034F7F801808190E0DC01992786
:101A80008827B595A79597958C159D05AE05BF053B
:101A900044F1F801828190E0DC0199278827B5950F
:101AA000A79597958C159D05AE05BF05BCF1F8016E
:101AB000848190E0DC0199278827B595A7959795B3
:101AC0008C159D05AE05BF050CF44FC0C114F0E8A0
:101AD000DF06F8E3EF06F10411F00CF05FC020E040
:101AE000B1CFF801828190E0DC0199278827B59574
:101AF000A79597958C159D05AE05BF057CF0F8015F
:101B000062817381A7019601808191810E94890C75
:101B1000681579058A059B0554F693CFF8018481F1
:101B200090E0DC0199278827B595A79597958C15A6
:101B30009D05AE05BF05CCF0F80164817581A70154
:101B40009601828193810E94890C681579058A0526
:101B50009B050CF476CFC114F0E8DF06F8E3EF063E
:101B6000F10409F00CF4BBCF19C0C114F0E8DF0692
:101B7000F8E3EF06F10409F08CF4F8017681A7018F
:101B8000960161E7848195810E94890C21E06815A6
:101B900079058A059B050CF455CFA1CFF801868104
:101BA00090E00296DC0199278827B595A79597952F
:101BB00088159905AA05BB050CF443CF20E042CF58
:101BC0001F93CF93DF93EC01162F40960E94631B67
:101BD000612FCE0148960E94631B612FCE01809633
:101BE0000E94631B612FCE0188960E94631B612FA8
:101BF000CE01C096DF91CF911F910C94631B4F9241
:101C00005F926F927F929F92AF92BF92CF92DF923C
:101C1000EF92FF920F931F93CF93DF93CDB7DEB771
:101C20002897CDBFDEBF5C01DC011496CD90DD901E
:101C3000ED90FC9017974D905D906D907C90139770
:101C40009C968D919D910D90BC91A02D8C0D9D1D0C
:101C5000AE1DBF1DBB231AF481309048AF4F9A2EA2
:101C6000990F991CF50100A511A522A533A5040D16
:101C7000151D261D371D332322F4013010482F4F28
:101C80003F4F110F8901001F111F84A195A1A6A12B
:101C9000B7A18C0D9D1DAE1DBF1DBB231AF4813055
:101CA0009048AF4F2A2F990F221F40A151A162A146
:101CB00073A1440D551D661D771D772322F4413015
:101CC00050486F4F7F4F550FAB01441F551F848DF8
:101CD000958DA68DB78DC80ED91EEA1EFB1E6E2DE2
:101CE000FF203AF41C141A94E89417F8D11C11241C
:101CF000611DDD0C661FC08CD18CE28CF38CD3018E
:101D0000C2018C0D9D1DAE1DBF1DCC24C394E92CBA
:101D1000BB2322F481309048AF4FBF4F990FCD01C4
:101D2000881F991F0E94EE17D5011496CD90DD9063
:101D3000ED90FC9017974D905D906D907C9013976F
:101D4000D4968D919D910D90BC91A02D8C0D9D1DD3
:101D5000AE1DBF1DBB231AF481309048AF4F9A2EA1
:101D6000990F991CF50100A911A922A933A9040D05
:101D7000151D261D371D332322F4013010482F4F27
:101D80003F4F110F8901001F111F84A195A1A6A12A
:101D9000B7A18C0D9D1DAE1DBF1DBB231AF4813054
:101DA0009048AF4F2A2F990F221F40A151A162A145
:101DB00073A1440D551D661D771D772322F4413014
:101DC00050486F4F7F4F550FAB01441F551F84A5DF
:101DD00095A5A6A5B7A5C80ED91EEA1EFB1E6E2D99
:101DE000FF203AF41C141A94E89417F8D11C11241B
:101DF000611DDD0C661FC0A4D1A4E2A4F3A4D3012D
:101E0000C2018C0D9D1DAE1DBF1DC12CE92CBB2335
:101E100022F481309048AF4FBF4F990FCD01881FFA
:101E2000991F0E94EE17D501D8968C91811113C08D
:101E30002896CDBFDEBFDF91CF911F910F91FF900C
:101E4000EF90DF90CF90BF90AF909F907F906F907A
:101E50005F904F90089588E0F5017096DE0111962D
:101E600001900D928A95E1F709811A812B813C81BD
:101E700040E050E06CEF7FEF0E948E1D89839A83D3
:101E8000AB83BC830D811E812F8138850E948E1DFE
:101E90008D839E83AF83B8876DEDCE0101960E943E
:101EA000631B85E0F82E6AE0CE0101960E94631B59
:101EB000F50104A915A926A937A984819581A681D0
:101EC000B781080F191F2A1F3B1F40A951A962A9FA
:101ED00073A980819181A281B381840F951FA61F70
:101EE000B71F4D815E816F817885400F511F621F42
:101EF000731F77231AF4413050486F4FE62F550F68
:101F0000EE1F49815A816B817C81480F591F6A1FDE
:101F10007B1F77231AF4413050486F4F462F550FDF
:101F2000441F33231AF4013010482F4F622F110F32
:101F3000661F01E02E2FBB231AF481309048AF4F6B
:101F40008A2F990F881F0E944817FA94F110ABCF7F
:101F50006FCF0F93CF93DF93EC0101E02FE34EE0BF
:101F60006FE380E00E944817298148816FE38EE08B
:101F70000E9448172B814A81698188810E944817F5
:101F80002D814C816B818A810E9448172E8141E707
:101F90006D818C810E9448176E81262F4FE781E763
:101FA0000E9448176E816F5F262F4FE781E70E94DE
:101FB0004817DF91CF910F9108952F923F924F9242
:101FC0005F926F927F928F929F92AF92BF92CF92C9
:101FD000DF92EF92FF920F931F93CF93DF93CDB7D2
:101FE000DEB7CB55D109CDBFDEBF64E070E080E045
:101FF00090E00E94B61A712C9E012F5F3F4F49015D
:102000006CE282E10E94651CE82E6FE384E10E948D
:10201000651CB82E6AE48E2D0E94651CF82E6FE3B5
:1020200084E10E94651C682E68E68F2D0E94651C65
:10203000C82E6FE384E10E94651CD82E6EE384E114
:102040000E94651C90E4F40111929A95E9F720E052
:1020500030E843E050E029833A834B835C8340E0DF
:1020600050E06DE170E04D835E836F83788700E020
:1020700010E82FEF3FEF0D8B1E8B2F8B388F40E03A
:1020800050E06BEF7FEF4D8F5E8F6F8F78A340E056
:1020900050E862E070E049A35AA36BA37CA34DA370
:1020A0005EA36FA378A7212C90E8392E9DEF492ECF
:1020B00055245A9429A63AA64BA65CA64DA75EA71E
:1020C0006FA778AB0DAB1EAB2FAB38AFEAAEBBAE94
:1020D000FCAE6DAECEAEDFAE21968FAF21970E94E3
:1020E0006319C4010E94FF0DCE01CA960E94A90F78
:1020F0000E94591980910A208111FCCF80910A20F9
:10210000811108C080910920811104C080910A20AA
:102110008823C1F380910A20811172CF66246394D1
:102120000E94631929843A844B845C8489819A8152
:10213000AB81BC81820D931DA41DB51D89839A833B
:10214000AB83BC83CD84DE84EF84F8884D815E81CF
:102150006F8178854C0D5D1D6E1D7F1D4D835E83E7
:102160006F83788733EAC30ED11CE11CF11CCD8646
:10217000DE86EF86F88A19AE80910920882369F0FF
:1021800080910820813009F4BFC008F49BC08330DF
:1021900021F46CEFC4010E94E00DC4010E94FF0D08
:1021A000CE01CA960E94A90FC980DA80EB80FC801C
:1021B000C11440E8D40649E3E406F10434F1C11443
:1021C00050E8D5065EE3E506F10409F0F4F4219643
:1021D0008FAD219790E00597DC0199278827B59569
:1021E000A79597954D815E816F81788584179507B6
:1021F000A607B70754F48D899E89AF89B88D883DAD
:102200009348AF4FBF4F0CF484C0C114D104F9EF11
:10221000EF06FFEFFF06B4F0C114D10437E4E30684
:10222000F10484F48D819E81AF81B885009749EFD8
:10223000A4074FEFB40731F02CF00097A042B1058E
:102240000CF493C060E083E00E94681686EA9EEB7F
:102250000E94CD1661E083E00E9468168FE890E04E
:102260000E94FB164AE0BE01675A7F4F872D90E01F
:102270000E94B81E62E083E00E946816CE01875A71
:102280009F4F0E94CD1687E890E00E94FB160E94A7
:1022900059190E946E1AC55ADF4FCDBFDEBFDF91BC
:1022A000CF911F910F91FF90EF90DF90CF90BF9053
:1022B000AF909F908F907F906F905F904F903F90E6
:1022C0002F90089509891A892B893C8947E451E0A8
:1022D00060E070E00E948E1D820D931DA41DB51D4F
:1022E00089879A87AB87BC870D891E892F89388D8E
:1022F0000E948E1D8C0D9D1DAE1DBF1D8D879E875E
:10230000AF87B88B69AE49CF64E0C4010E94E00D8D
:1023100044CF69857A858B859C850E94221E6C3C02
:102320007C40810591050CF070CF6D857E858F8591
:1023300098890E94221E6C3C7C40810591050CF01E
:1023400064CF739460E084E00E94681689E990E0AD
:102350000E94FB160E94591964E070E0872D90E0FE
:102360000E94B61A0E946E1A4BCEA980BA80CB800A
:10237000DC80ED80FE800F811885298D3A8D4B8D94
:102380005C8D6D8D7E8D8F8D98A10E940F1C229685
:102390002FAF229723963FAF239724964FAF2497D2
:1023A00025965FAF259726966FAF269727967FAF26
:1023B000279728968FAF289729969FAF29978E0148
:1023C000065C1F4F0E94DD0C81113CCFA980BA80B2
:1023D000CB80DC80ED80FE800F81188529A13AA199
:1023E0004BA15CA16DA17EA18FA198A50E940F1C9D
:1023F0002A962FAF2A972B963FAF2B972C964FAF4D
:102400002C972D965FAF2D972E966FAF2E972F9608
:102410007FAF2F9760968FAF609761969FAF619760
:102420008E01065C1F4F0E94DD0C81110BCFA9802D
:10243000BA80CB80DC80ED80FE800F81188529A5D5
:102440003AA54BA55CA56DA57EA58FA598A90E9470
:102450000F1C62962FAF629763963FAF63976496A7
:102460004FAF649765965FAF659766966FAF669757
:1024700067967FAF679768968FAF689769969FAFAB
:1024800069978E01065C1F4F0E94DD0C8111DACE28
:102490000E9459198FEF99EFE0E081509040E040A1
:1024A000E1F700C0000080910A20882309F438CEAB
:1024B000A7CD2F923F924F925F926F927F928F9211
:1024C0009F92AF92BF92CF92DF92EF92FF920F93C3
:1024D0001F93CF93DF93CDB7DEB76997CDBFDEBF34
:1024E0001C01698B4E8B2F8B461708F4D8C0220F26
:1024F000220F220F2D8B285F2A8B3989232F30E062
:102500002B8B3C8BC9018054910922273327AC01C6
:102510005595479537952D873E874F87588B3D8931
:10252000398FD1011896CD90DD90ED90FC901B97DE
:10253000C114D104B0E4EB06F10409F00CF4C5C0F9
:10254000C114D104E0E8EE06F10411F00CF0C0C0B3
:10255000FEE1F88F8D859E85AF85B889A70196012C
:102560000E94E21DD1018D909D90AD90BC909B0189
:10257000AC01280D391D4A1D5B1D2D833E834F8301
:102580005887398D832F90E08097DC019927882721
:10259000B595A7959795A70196010E94E21DD101D7
:1025A0001496CD90DD90ED90FC9017979B01AC01B7
:1025B0002C0D3D1D4E1D5F1D29873A874B875C877B
:1025C000E0E0812C912C5401750164012401350156
:1025D00089829A82AB82BC821FC097018601B701B3
:1025E000A6010E948E1D89839A83AB83BC839501CB
:1025F0008401B501A4010E948E1D2C013D01898139
:102600009A81AB81BC81840D951DA61DB71D0097D5
:10261000A240B10509F07CF597018601B501A4013E
:102620000E948E1D8C019D0140E050E061E070E051
:102630000E948E1D89849A84AB84BC84880E991E66
:10264000AA1EBB1ECD80DE80EF80F884C418D5089A
:10265000E608F70889819A81AB81BC81C80ED91E32
:10266000EA1EFB1EEF5FF88DEF13B7CF41E0698DD7
:1026700089890E942A17298D2F5F298F3A89321361
:1026800050CF8B899C89019687709927892B19F1E6
:10269000B989BF5FB98BEE89EB1708F02ECF699629
:1026A000CDBFDEBFDF91CF911F910F91FF90EF90D3
:1026B000DF90CF90BF90AF909F908F907F906F9062
:1026C0005F904F903F902F90089524E1288F42CF44
:1026D00038E2388F3FCF48E06F89898987500E9460
:1026E0008E19D1011C968D919C911D9701961C9677
:1026F0008D939C931D9760E870E00E94B61AC8CF36
:102700000F931F93CF938C010E947316F8011486C8
:10271000158660E870E080E090E00E94B61AC0E0A4
:102720002C2F4FE760E0C8010E945912CF5FC830DC
:10273000B9F7CF911F910F9108952F923F924F9229
:102740005F927F928F929F92AF92BF92CF92DF92D1
:10275000EF92FF920F931F93CF93DF93CDB7DEB726
:102760002E97CDBFDEBF0E94631919821A821B8289
:102770001C821D821E821F82188680E090E0A0E1EC
:10278000B0E089879A87AB87BC871D861E868091BB
:102790000A208111FCCFCE0101960E94801380E2B5
:1027A000782E9BE0892E90E2992EC12CDD24D394C3
:1027B0003BE0A32E33E2B32E4BE0E42E44E2F42EB2
:1027C00080910A20882349F180910A20882379F09A
:1027D00084E603C0815009F472C0AFE4B3EC1197F2
:1027E000F1F700C0000090910A209111F3CF098504
:1027F0001A852B853C8540E050E061E070E00E9446
:102800008E1D89879A87AB87BC87CE0101960E946F
:10281000801380910A208111D7CF809109208823CD
:1028200079F280910820813009F45EC008F4EAC092
:10283000823009F4A0C0833019F629853A854B858A
:102840005C8580E090E0A0E1B0E00E94E21D09819B
:102850001A812B813C8118012901261A370A480A5E
:10286000590A29823A824B825C828D859E858097A7
:102870008D879E8760E870E00E94B61A0BE010E238
:1028800040E650E0B801C80180960E94A61ED8011B
:10289000E72D1D92EA95E9F700581F4FE016F10663
:1028A00079F70E94591910E0212F40E260E0CE0133
:1028B00001960E9459121F5F1830B1F781CF2E96F2
:1028C000CDBFDEBFDF91CF911F910F91FF90EF90B1
:1028D000DF90CF90BF90AF909F908F907F905F9050
:1028E0004F903F902F90089529853A854B855C85C0
:1028F00080E090E0A0E1B0E00E94E21D09811A8131
:102900002B813C81DC01CB01800F911FA21FB31FE3
:1029100089839A83AB83BC838D859E8580978D87C1
:102920009E8760E870E00E94B61A0BE010E2B801E2
:10293000605E7F4F40E650E0C8010E94A61EF8018D
:10294000E05AFF4FDF01272C1D922A94E9F7005827
:102950001F4F24E20B30120751F70E94591910E063
:10296000212F4FE76FE5CE0101960E9459121F5F9C
:102970001830B1F725CF29853A854B855C8580E0F5
:1029800090E0A8E0B0E00E94E21D0D811E812F8141
:102990003885DC01CB01800F911FA21FB31F8D83EF
:1029A0009E83AF83B8878D859E8580978D879E8710
:1029B00060E870E00E94B61A8BE090E2FC01F395AB
:1029C00020E8DC0101900D922A95E1F780589F4F95
:1029D000F3E28B309F0791F7D501F6011D923197F5
:1029E000E9F70E94591926E04FE760E0CE01019611
:1029F0000E94591227E04FE760E0CE0101960E9445
:102A00005912DECE29853A854B855C8580E090E0C1
:102A1000A8E0B0E00E94E21D0D811E812F81388563
:102A200018012901261A370A480A590A2D823E82BE
:102A30004F8258868D859E8580978D879E8760E81A
:102A400070E00E94B61A8BE893E2FC01FA9520E848
:102A5000DC0101900D922A95E1F78058910920E25E
:102A60008B38920791F7D401F6011D923197E9F75F
:102A70000E94591921E04FE760E0CE0101960E94C3
:102A8000591220E0B8CFE0E1F4E0808188608193C2
:102A9000E83184E0F807C9F71092000210920302AF
:102AA00010920102109202020895789480E0089535
:102AB00080E00895FC0164BF4083089540E068ED24
:102AC00081E690E00E945A1580E00895089580E024
:102AD000089541E068ED80E890E00E945A1580E09A
:102AE00008951F920F920FB60F9211248F9381E0D9
:102AF00080938A008F910F900FBE0F901F901895B2
:102B0000809141018111FCCF809151018111FCCF55
:102B100089E38093500181E08093520180934001CA
:102B200080E008950E9466150E9443150E94671573
:102B30000E9469150E9458150E945E150E9480151A
:102B40000C945515809318089091150880911508DC
:102B500090748071892BC1F380E0089590911508DD
:102B600093709330D9F0909114089B7F9093140840
:102B700080931708282F217080FF07C080911508C7
:102B800087FFFCCF20E0822F08959091150896FDD5
:102B9000FACF9091150896FFF8CFF5CF21E0822F5C
:102BA0000895FF920F931F93CF93DF93F82E192F61
:102BB000062F88E70E94AE15809115088370823039
:102BC00059F10023C9F0CF2DD12F015010E00F5F34
:102BD0001F4F0C0F1D1F04C02196C017D10761F0B5
:102BE0008091150883708230B9F788810E94A21500
:102BF0002196C017D107A1F78091140884608093B3
:102C0000140880911408836080931408DF91CF9199
:102C10001F910F91FF90089580E00E94A215D1CFDF
:102C2000CF93DF9300D000D0CDB7DEB7E4E0F0E281
:102C3000808361836055698391E29A838B838FE7F8
:102C40008C8364E0CE0101960E94D1152496CDBFFD
:102C5000DEBFDF91CF910895EF92FF920F931F9304
:102C6000CF93DF937C018B0188E70E94AE158091A2
:102C700015088370823041F101151105A1F0E701BB
:102C80000E0D1F1D04C02196C017D10761F0809161
:102C9000150883708230B9F788810E94A2152196A9
:102CA000C017D107A1F7809114088460809314089D
:102CB00080911408836080931408DF91CF911F9155
:102CC0000F91FF90EF90089580E40E94A215D4CF59
:102CD000982F990F890F880F813810F4683008F009
:102CE00008950C9410160F931F93CF93DF930BE06E
:102CF00010E2C0E0D0E8F8018D2F11928A95E9F733
:102D00006C2F80E00E94101660E870E0C8010E94FD
:102D10002C16CF5F00581F4FC83069F760E080E085
:102D2000DF91CF911F910F910C941016CF93DF93E9
:102D3000CDB7DEB76C97CDBFDEBF9FE0909316088E
:102D400093E090931308909114089860909314085E
:102D50009091150891609093150890911508906CCA
:102D600090931508EEEDF2E0DE0111969E01245ECF
:102D70003F4F94919D933196A217B307D1F78C8F53
:102D80006CE1CE0101960E94D1150E9473166C96DB
:102D9000CDBFDEBFDF91CF910895CF93DF934091F8
:102DA000052030910420EC0180E8489FA001112407
:102DB000E991EE23D9F03A37D8F7E032C8F3E05280
:102DC00086E0E89FF0011124EC55FF4FDA01A30FD4
:102DD000B11DA55FBF4D96E024912D939150319682
:102DE0009111FACF3A5FE991E111E5CF30930420D8
:102DF000DF91CF910895409105206091042020E853
:102E0000429FA00111249C01F90184918823F9F0CB
:102E10006A37B8F48032A8F0E0EEE80F86E0E89F69
:102E2000F0011124EC55FF4FDA01A60FB11DA55F8B
:102E3000BF4D96E084918D93915031969111FACFC8
:102E40006A5F2F5F3F4FF90184918111E1CF609359
:102E500004200895E62FE695E695E69590E8E99F2B
:102E6000F0011124E55FFF4DE80FF11D677081E06F
:102E700090E001C0880F6A95EAF7413029F080950B
:102E800090818923808308959081892B8083089580
:102E90005F926F927F928F929F92AF92BF92CF92EA
:102EA000DF92EF92FF920F931F93CF93DF93C82F80
:102EB000D62F142F522E87FD42C047FD40C06034EC
:102EC000F0F58FE38217D8F1C42ED12CCC1AD1089B
:102ED000D7FC48C0C11708F442C077247A94852CE7
:102EE000912C8D1A910897FC44C0AA24BB24A818E1
:102EF000B908D515D8F166246A947601E818F9085E
:102F0000402F6D2F8C2F0E942A171C17B1F0C7017C
:102F1000880F991FA816B9061CF4E818F908C70D00
:102F20008C159D056CF7EC0CFD1CD60D402F6D2FFC
:102F30008C2F0E942A171C13EACF5D12E8CFDF9175
:102F4000CF911F910F91FF90EF90DF90CF90BF90A6
:102F5000AF909F908F907F906F905F9008957724AF
:102F60007394BDCFD194C194D108B4CF6624639437
:102F7000C4CF919481949108B8CFCF92DF92EF9211
:102F8000FF920F931F93CF93DF93D82F162FD42E3A
:102F9000C02E481728F4122F262F8D2FD42FD82E6D
:102FA000E22EF12CE11AF108F7FC0FC0C0E0612F0E
:102FB0006C0F0C2D262F4D2D8D2F0E944817CF5FA3
:102FC0008C2F90E0E816F90694F7DF91CF911F91CE
:102FD0000F91FF90EF90DF90CF9008952F923F9246
:102FE0004F925F926F927F928F929F92AF92BF9219
:102FF000CF92DF92EF92FF920F931F93CF93DF93C5
:10300000CDB7DEB76397CDBFDEBF841795070CF051
:10301000E0C0782F392F081719070CF435C1E72FB6
:10302000F32FF7FD37C1742F352F401751070CF4DC
:10303000E7C07C833D83AC81BD81A038B10524F01D
:10304000AFE7B0E0AC83BD8362170CF0DCC0262E86
:10305000E6160CF414C12E8227FC25C129832E15F7
:103060000CF4DFC0B981BA83B03414F03FE33A8383
:10307000E983FF27AC81BD81AE17BF070CF4E9C01F
:10308000CB8649875A87462E8F8398878A81082E58
:10309000000C990B8A8B9B8BAE810A2E000CBB0B0C
:1030A000AA83BB835A018F819885A81AB90A622E18
:1030B000220F7708862F660F990BD301A81BB90B37
:1030C000AC87BD8768012F813885C21AD30A0E2CC0
:1030D000000CFF08D701A81BB90BAE87BF8797016B
:1030E00026193709288B398B1801241A350AAA8921
:1030F000BB892A813B81A217B3070CF49FC0898149
:103100009F81891B082E000C990BAC85BD85A89F5B
:103110007001A99FF00CB89FF00C11242E853F85FB
:10312000289F8001299F100D389F100D112489853B
:103130009A85E81BF90BA889B989EA9F4001EB9FA2
:10314000900CFA9F900C11242A813B815E802DC047
:103150008C9DA0018D9D500D9C9D500D1124CA0188
:10316000801B910B41E0181619060CF05CC0641727
:1031700099F026193709229EC001239E900D329E98
:10318000900D11248819990921E0181619060CF0E0
:103190004CC0621709F44CC05394252D30E08A8945
:1031A0009B89821793070CF449C0852D8419082E3A
:1031B000000C990B8A9DA0018B9D500D9A9D500D7E
:1031C00011244E195F0961E0141615060CF260E037
:1031D000BFCF742F352F0417150714F4702F312F1C
:1031E000E72FF32FF7FF02C0E0E0F0E048175907A0
:1031F0000CF019CF782F392F801791070CF019CFC9
:10320000702F312F16CF222EE2160CF42E2C2E8288
:1032100027FC1E8226170CF021CF69836E150CF057
:1032200021CFE9821FCF40E0A2CF20E06213B4CFCC
:103230004B85652D89810E942A17AECF39813F5F6A
:103240003983E32FF0E08C819D818E179F070CF06E
:103250004ECF6396CDBFDEBFDF91CF911F910F910F
:10326000FF90EF90DF90CF90BF90AF909F908F90A6
:103270007F906F905F904F903F902F9008952E2CED
:103280002E8227FEEBCE0FC0702F312FE72FF32FAA
:10329000F7FFC9CEE0E0F0E0742F352F401751075B
:1032A0000CF0C7CEADCF1E8229832E150CF0DACEDE
:1032B000B8CF60E080E00E94101660E074E08BE020
:1032C00090E20C942C16EBE0F0E280E8DF01982FFE
:1032D0001D929A95E9F7E058FF4FA4E2EB30FA0708
:1032E000A9F7089587FD18C06034B0F4E62FE6957D
:1032F000E695E69590E8E99FF0011124E55FFF4D22
:10330000E80FF11D677081E090E001C0880F6A95B9
:10331000EAF790818923089580E00895EF92FF9263
:103320001F93CF93DF93162F683018F587FD21C0C8
:10333000E82EF12CC42FD0E09E012E0D3F1D213828
:10334000310524F040E8481BC42FD0E0612F0E94D3
:103350001016C70120E8129F800D911D1124BE0197
:10336000855F9F4DDF91CF911F91FF90EF900C945F
:103370002C16DF91CF911F91FF90EF9008959B0144
:10338000220F331F620F731F229A25B12B7F35B195
:1033900034604FB7F89461157105C9F0FC01680FEE
:1033A000791F819198E035B9000000C000C087FF07
:1033B00025B9880F000000C000C000C000C025B9BA
:1033C000000000C09A9579F7E617F70751F74FBF4D
:1033D0008BED95E00197F1F700C000000895CF93C1
:1033E000DF9300D01F92CDB7DEB78A8369834B830A
:1033F00061E070E0CE0101960E94BF192396CDBF17
:10340000DEBFDF91CF910895669544E0880F880F65
:103410000C948E191F920F920FB60F9211248F9356
:103420009F93149936C081E080930820149B02C0BA
:1034300015993AC091E080910920891709F440C09C
:10344000809107208F5F8093072080910720843030
:1034500030F582B18695817091E0892790910A209C
:10346000891769F0909106209F5F909306209091B4
:103470000620943020F080930A201092062081E0EC
:10348000809353019F918F910F900FBE0F901F90CB
:103490001895159918C083E080930820C7CF9093A2
:1034A000092010920720D5CF129BC4CF92B193FB75
:1034B000992790F981E09827809109208913C0CF3E
:1034C00010920720C6CF129B06C01399AFCF82E09F
:1034D00080930820ABCF10920820A8CF80910A20BB
:1034E0008111FCCF80910A208823E1F308951F9376
:1034F000CF93DF9300D01F92CDB7DEB7182F0E9475
:10350000631962E086E00E94681681E093E00E9401
:10351000FB164AE0BE016F5F7F4F812F90E00E9453
:10352000B81E63E086E00E946816CE0101960E94F4
:10353000CD1689EF92E00E94FB1665E083E00E94C1
:1035400068168BE093E00E94FB160E945919809147
:103550000A208111FCCF80910A208823E1F3239671
:10356000CDBFDEBFDF91CF911F910895CF92DF9243
:10357000EF92FF920F931F93CF93DF93CDB7DEB7F8
:103580002797CDBFDEBF6817790708F4CB01222744
:103590003327AB01569547953795DC019927882746
:1035A000B695A79597950E94E21D6B017C0100E0FE
:1035B00010E820E030E0061B170B280B390B40E029
:1035C00050E86FE770E00E948E1D905CAF4FBF4FD8
:1035D0002BF4BFE7AFEF8A2F9A2F02C0882790788D
:1035E0008C839D83AE83BF83970186010E948E1DCD
:1035F000905CAF4FBF4F2BF4BFE7AFEF8A2F9A2FEE
:1036000002C0882790784C815D816E817F8177230D
:103610001AF4413050486F4F262F550F221F2A832E
:10362000BB231AF481309048AF4F8A2F990F881F1F
:1036300089831B8261E070E0CE0101960E94BF1970
:103640002796CDBFDEBFDF91CF911F910F91FF90E5
:10365000EF90DF90CF900895705C8F4F9F4F2BF4C9
:103660009FE78FEF682F782F02C066277078089544
:10367000CF92DF92EF92FF92282F072E99233AF4F0
:1036800016161A94E89417F8011C1124211D000C39
:10369000221F422F50E0CC24DD247A01F594E794D8
:1036A000D794C616D706E806F9063CF481E0820FE7
:1036B000FF90EF90DF90CF900895822FFF90EF90D2
:1036C000DF90CF9008954F925F926F927F928F928A
:1036D0009F92AF92BF92CF92DF92EF92FF920F93A1
:1036E0001F93CF93DF93CDB7DEB72697CDBFDEBF55
:1036F0008D839E83F62FE62F16160CF082C0AD81C7
:10370000BE8114968D909D90AD90BC9017971F161A
:103710000CF07CC08BE392E0A0E0B0E089839A8358
:10372000AB83BC832DC0950184014BE352E060E084
:1037300070E00E948E1DC81AD90AEA0AFB0AAD8100
:10374000BE81CD92DD92ED92FC92139709811A8190
:103750002B813C81B301A2010E948E1D6C017D0171
:10376000950184014BEF5FE760E070E00E948E1DE1
:1037700046015701880E991EAA1EBB1EE15039F161
:10378000AD81BE814D905D906D907C9093018201E2
:103790004BEF5FE760E070E00E948E1D6C017D01E1
:1037A0001F160CF4C0CF9501840145EC5DEF6FEF5F
:1037B0007FEF0E948E1DC81AD90AEA0AFB0AAD8162
:1037C000BE81CD92DD92ED92FC921397BFCFED8139
:1037D000FE8184829582A682B7822696CDBFDEBF07
:1037E000DF91CF911F910F91FF90EF90DF90CF90DD
:1037F000BF90AF909F908F907F906F905F904F9011
:103800000895E1951E160CF47ACFE7CF85EC9DEF75
:10381000AFEFBFEF89839A83AB83BC83B1CFAF9205
:10382000BF92CF92DF92EF92FF920F931F93CF93AD
:10383000DF93CDB7DEB76897CDBFDEBF29873A8764
:103840004B875C876D877E878F87988BA98ABA8A1A
:10385000CB8ADC8AED8AFE8A0F8B188F4D855E85B8
:103860006F8578898D899E89AF89B88D840F951F62
:10387000A61FB71F09851A852B853C8549895A895A
:103880006B897C89400F511F621F731F49835A83C4
:103890006B837C838D839E83AF83B887242F3A818B
:1038A0006B815C817E81462F682F8F819885689619
:1038B000CDBFDEBFDF91CF911F910F91FF90EF90B1
:1038C000DF90CF90BF90AF900895CF93DF93C82F34
:1038D000D62F80E002C00E94961E8C17E0F3D81706
:1038E000D0F3DF91CF91089540E06FEF80E00E9428
:1038F000EF1960E087E00E9468168DE193E00E9476
:10390000FB1663E083E00E9468168FEA9EEB0E943C
:10391000CD1667E086E00E94681680EC9EEB0E9460
:10392000CD160E9459190C946E1A0F931F93CF93C2
:10393000DF938C010E94631960E087E00E946816A3
:103940008DE193E00E94FB16F8018181882321F12B
:10395000C0E013C06D2F82E00E946816F80184E079
:10396000C89FE00DF11D1124828193810E94CD1624
:10397000CD2FF8018181D81778F4D1E0DC0F6D2FBD
:1039800080E00E946816F80180818C13E3CF80EDFF
:103990009EEB0E94CD16DECFDF91CF911F910F914C
:1039A0000C945919CF93DF93CDB7DEB7A297CDBF53
:1039B000DEBF8E010F5F1F4F82E2F80111928A95E0
:1039C000E9F785E08A8383ED9EEB8B839C838CEC07
:1039D0009AE08D839E8389ED9EEB8F83988780EF9D
:1039E00093E089879A8782EE9EEB8B879C878DED8B
:1039F0009FE08D879E8789EE9EEB8F87988B82EB69
:103A000091E0898B9A8B86EF9EEB8B8B9C8B8DE95B
:103A100093E18D8B9E8BC8010E94951C91E0809153
:103A20000920811111C080910A2081110DC080915F
:103A30000920811128C080910A20811114C090E0D2
:103A400080910920882379F380910920882329F027
:103A50009923C9F080910A20E2CF80910A2088231F
:103A6000F1F29111DCCF8981F80134E0839FE00D00
:103A7000F11D11240480F581E02D0995C8010E94F3
:103A8000951C91E0CCCF8091082081110CC06A81F7
:103A900070E089819B01280F311DC90101970E94A7
:103AA0007A1D8983B8CF80910820823009F0B3CF86
:103AB00089818F5F6A810E946E1D9983ACCF0E94BD
:103AC00092158FEA0E9496160E94741C80914801FC
:103AD000909149010E949B1E0E94D21C991B79E083
:103AE00004C0991F961708F0961B881F7A95C9F78E
:103AF0008095089597FB072E16F4009407D077FD64
:103B000009D00E94261E07FC05D03EF490958195B1
:103B10009F4F0895709561957F4F0895E8940E9496
:103B2000A51D772312F4A01BB10B37FF02C0A41B05
:103B3000B50B000C881F991FAA1FBB1F000C811D0D
:103B4000911DA11DB11D0895689488279927049F90
:103B5000D001149FB00D811D059FB00D811D991FCF
:103B600016F4B7FD0196BF93069F800D911DAA0B19
:103B7000159F800D911DA040249F800D911DA04098
:103B8000A195079F900DA11DBB0B169F900DA11D28
:103B9000B040259F900DA11DB040349F900DA11DF8
:103BA000B040B195179FA00DB11D269FA00DB11D6E
:103BB000359FA00DB11D279FB00D369FB00D0F9002
:103BC000112408950B2E052657FF07C050954095E8
:103BD000309521953F4F4F4F5F4FB7FF07C0B095CE
:103BE000A095909581959F4FAF4FBF4F0E94001EAB
:103BF000969587957795679507FE08950C943A1EDC
:103C0000E0E21E2EEE27FF27BF01880F991FAA1F93
:103C1000BB1FEE1FFF1F38F0A217B307E407F5071D
:103C200010F4661F05C0A21BB30BE40BF50B660F67
:103C3000771F881F991F1A9451F76095709580958A
:103C40009095089597FF08950C94421EAA1BBB1BE4
:103C500051E107C0AA1FBB1FA617B70710F0A61B8C
:103C6000B70B881F991F5A95A9F780959095BC01AD
:103C7000CD01089590958095709561957F4F8F4FF8
:103C80009F4F08950E943A1E23F49FE78FEF7FEF26
:103C90006FEF08958F929F92AF92BF92CF92DF9273
:103CA000EF92FF92CF93DF93EC01688179818A8153
:103CB0009B81611571058105910521F464E279ED1F
:103CC0008BE597E02DE133EF41E050E00E94F61ED6
:103CD00049015A019B01AC01A7EAB1E40E940D1F02
:103CE0006B017C01ACEEB4EFA50194010E941B1F97
:103CF000DC01CB018C0D9D1DAE1DBF1DB7FF03C0A8
:103D00000197A109B04888839983AA83BB839F77D1
:103D1000DF91CF91FF90EF90DF90CF90BF90AF9069
:103D20009F908F9008950E944A1E089580E090E22F
:103D30000E944A1E0895A0E0B0E080930020909376
:103D40000120A0930220B0930320089568177907FB
:103D500068F4FB01DC01E40FF51FA40FB51F02C0DE
:103D600002900E9241505040D8F708950C94DD1EF9
:103D7000BB274A3031F4992322F4BDE29095819516
:103D80009F4F0C94C41EBB27FB015527AA27880F01
:103D9000991FAA1FA41710F0A41B83955051B9F7BF
:103DA000A05DAA3308F0A95DA193009779F7B1113E
:103DB000B1931192CB010C94E61EFB01DC0102C011
:103DC00001900D9241505040D8F70895DC01FC015C
:103DD000672F71917723E1F7329704C07C916D933F
:103DE00070836291AE17BF07C8F30895052E97FB45
:103DF0001EF400940E943A1E57FD07D00E94201F17
:103E000007FC03D04EF40C943A1E50954095309523
:103E100021953F4F4F4F5F4F08950E94421FA59F2E
:103E2000900DB49F900DA49F800D911D11240895B5
:103E3000B7FF0C940D1F0E940D1F821B930B08955A
:103E4000A1E21A2EAA1BBB1BFD010DC0AA1FBB1F9E
:103E5000EE1FFF1FA217B307E407F50720F0A21B10
:103E6000B30BE40BF50B661F771F881F991F1A947D
:103E700069F760957095809590959B01AC01BD01A7
:103E8000CF010895A29FB001B39FC001A39F700D01
:103E9000811D1124911DB29F700D811D1124911D52
:063EA0000895F894FFCF25
:103EA600637261736865642100287072657373209C
:103EB600746F207374617274290062792050617581
:103EC6006C204B6C696E676572003E2000536E6114
:103ED6006B6500427265616B6F7574004C616E6450
:103EE60065720047616D65206F66204C69666500E6
:0B3EF6004D616E64656C62726F7400B9
:043F010001000000BB
:02000004008278
:090000000000020000C40700002A
:00000001FF
