:100000000C948F010C94AC010C94D7140C94AC019B
:100010000C94AC010C94AC010C94AC010C94151A2A
:100020000C94AC010C94AC010C94AC010C94AC019C
:100030000C94AC010C94AC010C94AC010C94AC018C
:100040000C94AC010C94AC010C94AC010C94AC017C
:100050000C94AC010C94AC010C94AC010C94AC016C
:100060000C94AC010C94AC010C94AC010C94AC015C
:100070000C94AC010C94AC010C94AC0120706F6931
:100080006E74730047414D45204F564552006E65D2
:100090007874207374616765000000000000000040
:1000A00000002F000000000700070000147F147FED
:1000B0001400242A7F2A12006264081323003649A0
:1000C00055225000000503000000001C22410000E2
:1000D0000041221C000014083E08140008083E08D5
:1000E00008000000A0600000080808080800006080
:1000F000600000002010080402003E5149453E0007
:1001000000427F4000004261514946002141454B79
:1001100031001814127F10002745454539003C4A2C
:100120004949300001710905030036494949360043
:10013000064949291E0000363600000000563600E8
:10014000000008142241000014141414140000418B
:1001500022140800020151090600324959513E009B
:100160007C1211127C007F49494936003E414141D1
:1001700022007F4141221C007F49494941007F09FB
:10018000090901003E4149497A007F0808087F00BB
:1001900000417F4100002040413F01007F081422C0
:1001A00041007F40404040007F020C027F007F04FE
:1001B00008107F003E4141413E007F0909090600C9
:1001C0003E4151215E007F091929460046494949AF
:1001D000310001017F0101003F4040403F001F20EE
:1001E00040201F003F4038403F0063140814630064
:1001F000070870080700615149454300007F4141ED
:100200000000552A552A55000041417F0000040294
:100210000102040040404040400000010204000090
:100220002054545478007F484444380038444444AF
:100230002000384444487F00385454541800087E45
:100240000901020018A4A4A47C007F08040478001B
:1002500000447D4000004080847D00007F102844E1
:10026000000000417F4000007C04180478007C08F6
:1002700004047800384444443800FC242424180042
:1002800018242418FC007C08040408004854545422
:100290002000043F444020003C4040207C001C20C3
:1002A00040201C003C4030403C00442810284400C2
:1002B0001CA0A0A07C004464544C4400000877417A
:1002C00000000000630000000041770800000804FF
:1002D000080804AE2000B0C8001040813FA1A6A8C5
:1002E0003FA4D300D5F0D922DA12DB208D14207080
:1002F0006F696E74730047414D45204F564552005B
:1003000028707265737320746F2072657475726ED5
:1003100029007E5468696E6B54696E797E001124E1
:100320001FBECFEFCDBFDFE3DEBF25E2A4E0B0E22A
:1003300001C01D92AB30B207E1F710E2A0E0B0E2DD
:10034000EFEEFFE302C005900D92A430B107D9F79C
:100350000E94951D0C94B81F0C940000AF92BF92A0
:10036000CF92DF92EF92FF920F931F93CF93DF9381
:10037000C4E0D0E204E011E20E94DB1E89930C1776
:100380001D07D1F780910A218111FCCF84E090E212
:100390007C010E946319BB24B394C12CD12C10E0C2
:1003A000A12EAA0CD1E0C0E004C0CF5FDE5FC03454
:1003B000C1F0212F4C2F68E07E2D8F2D0E94511C03
:1003C000882399F301E02B2D4D2F6A2D8C2F880F58
:1003D0000E94F6168FEFC81AD80ACF5FDE5FC034CE
:1003E00041F71F5FB394B3941032D1F60E940E19F7
:1003F00060E074E0C6010E94C51AD12C00E0BB2465
:10040000BA94BD0CD0E0CFEF8C2F800F082E000CDB
:10041000990B8F73907897FD4CC08F739927C82ED6
:10042000CC0C10E01130B1F06B2D610F062E000CDA
:10043000770B6F71707877FD35C06F717727660F16
:100440008C2D0E9472198111DF5F123031F01F5F15
:10045000113051F7C111E8CFFACFCF5FC230A1F60A
:100460008EEF8D0F823050F12D2D402F68E07E2DC4
:100470008F2D0E94881C0F5F003421F6D39480E2F8
:10048000D812BCCF80910A21882309F482CFDF9152
:10049000CF911F910F91FF90EF90DF90CF90BF9081
:1004A000AF90089561507109606E7F6F6F5F7F4FED
:1004B000C4CF0197806C9F6F0196AFCFD330D9F630
:1004C0002D2D402F68E07E2D8F2D0E946F1CD3CFE5
:1004D0005F926F927F928F929F92AF92BF92CF92D4
:1004E000DF92EF92FF920F931F93CF93DF93FC0164
:1004F000E058FF4F608071803696C081D18134977B
:10050000508031961081209709F448C07C015C012D
:1005100084E8A80EB11C6701E5E8CE0ED11C0FC01F
:100520002330D1F12130B1F11F5F1F70E52DEF7144
:100530005E2E3401F1E06F1A7108219779F1C13014
:10054000D105E1F14301F1E09F22612F660F660FB3
:1005500023E0260F852D880F880F43E0480F01E028
:100560000E94F616F401F695E795F695E795EE0DDF
:10057000FF1D208130E083E068227724660C771C21
:1005800002C0359527956A94E2F72370223041F630
:100590001150CBCF5A94C9CF5394C7CFDF91CF918D
:1005A0001F910F91FF90EF90DF90CF90BF90AF9091
:1005B0009F908F907F906F905F900895F50150828B
:1005C000F6011083BFCF0F931F93CF93DF93EC01FE
:1005D0008B0115C088830E94DB1E8F70907897FD79
:1005E0001FC0F8018083880F880F62E0680F888140
:1005F000880F880F8E5F0E9472198823B1F00E94C5
:10060000DB1E8F71907897FFE5CF0197806E9F6F0B
:10061000019688830E94DB1E8F70907897FFE1CF50
:100620000197806F9F6F0196DCCFDF91CF911F9173
:100630000F9108950F93660F660F880F880F22E0C1
:10064000260F42E0480F6F5F01E08F5F0E94F616B1
:100650000F910895EF92FF920F931F93CF93DF9323
:10066000CDB7DEB7CB58D109CDBFDEBF91E09093B7
:10067000082121E030E0C957DF4F28833983C7586C
:10068000D040CD57DF4F1882C358D040CC57DF4FF2
:100690001882C458D040CF57DF4F18821982C158F2
:1006A000D04089818C7F81608983C557DF4F9883D3
:1006B000CB58D04064E670E081E090E00E94C51A1B
:1006C000BE0166577F4FCE0187579F4F0E94E302BE
:1006D0000E946319CE0101960E946802C657DF4F3F
:1006E0006881CA58D040C757DF4F8881C958D04069
:1006F0000E941A030E940E1972E0E72EE3E0FE2E1C
:10070000AFC080910821C557DF4F2881CB58D0401A
:10071000833009F4FCC0809108218111EDC02230A2
:1007200009F419C1C557DF4F1882CB58D04040E0BB
:1007300050E020E0CF57DF4F88819981C158D040E9
:100740000196FC01F170CF57DF4FE883F983C15860
:10075000D040F695E795F695E79583709927880F31
:10076000991F61E070E06C0F7D1FE60FF71F63E0DB
:1007700070E0082E01C0660F0A94EAF76095908138
:10078000692301C0440F8A95EAF7462B4083213044
:1007900009F485C008F4D3C0223009F4C4C0CD5791
:1007A000DF4F8881C358D040233009F07EC081508C
:1007B000CC57DF4F6881C458D0408F71CD57DF4F81
:1007C0008883C358D0406F70CC57DF4F6883C458BC
:1007D000D040C757DF4F9881C958D040981709F4C7
:1007E0006AC0660F660F880F880F0E947219811108
:1007F000B9C00E946319CE0101960E946802C657D3
:10080000DF4F6881CA58D040C757DF4F8881C95829
:10081000D0400E941A03CC57DF4F6881C458D040A3
:10082000CD57DF4F8881C358D0400E940F1A602FE8
:10083000812F0E940F1AC657DF4F6881CA58D040D7
:10084000C757DF4F8881C958D0400E940F1A7FE7F1
:100850008AE196E0715080409040E1F700C00000CE
:10086000CB57DF4F1881C558D040CA57DF4F08819A
:10087000C658D04020910821213009F042CFC557F9
:10088000DF4F8881CB58D040833009F47EC0C557F4
:10089000DF4F2883CB58D04041E050E04BCFCD57BD
:1008A000DF4F8881C358D0408F5FCC57DF4F6881BE
:1008B000C458D04082CFC657DF4F9881CA58D04025
:1008C00096138FCFC957DF4F88819981C758D04081
:1008D0000196C957DF4F88839983C758D04064E693
:1008E00070E00E94C51ABE0166577F4FCE01875740
:1008F0009F4F0E94E3027DCF80910821823011F04A
:10090000422F18CF21115BC040E050E013CF2130BF
:1009100009F44BC0C557DF4FF882CB58D04043E0B5
:1009200050E023E007CFCC57DF4F6881C458D04058
:100930006F5FCD57DF4F8881C358D0403ECFCC5733
:10094000DF4F6881C458D0406150CD57DF4F888158
:10095000C358D04032CF80910821823081F142E0EB
:1009600050E0E8CEC957DF4F88819981C758D04001
:100970000E94821AC557DF4FCDBFDEBFDF91CF91F6
:100980001F910F91FF90EF9008958091082183307F
:1009900009F280910821882309F4C4CE80910821AE
:1009A000823069F023E0422FC5CE80910821882350
:1009B00009F4B8CE80910821823009F0A1CFC55743
:1009C000DF4FE882CB58D04042E050E022E0B2CE88
:1009D0008F929F92AF92BF92CF92DF92EF92FF924F
:1009E0000F931F93CF93DF9349015A01C92ED12C46
:1009F0007601DD24CC24F594E794D794C82FD0E079
:100A0000A72F99278827BB27A6959795262F30E0F3
:100A10002C1B3D0BA9013327222755954795379568
:100A20008C199D09AE09BF090E943B1E8B019C01D8
:100A300088279927DE01B595A7959795B501A4015B
:100A4000481B590B6A0B7B0B0E94E71D2FEFE21A24
:100A5000F20ABC01CD016C0D7D1D8E1D9F1DDF9125
:100A6000CF911F910F91FF90EF90DF90CF90BF90AB
:100A7000AF909F908F9008958F929F92AF92BF9268
:100A8000CF92DF92EF92FF920F931F93CF93DF935A
:100A9000CDB7DEB72897CDBFDEBF29833A834B831E
:100AA0005C836D837E838F839887C980DA80EB8037
:100AB000FC808D809E80AF80B884C114D10487E013
:100AC000E806F10479F174F1F801808190E0DC012D
:100AD00099278827B595A79597958C159D05AE05FF
:100AE000BF050CF45DC060817181A70196018EE0A5
:100AF0009FE30E94E804681579058A059B0544F583
:100B000021E0822F2896CDBFDEBFDF91CF911F91CC
:100B10000F91FF90EF90DF90CF90BF90AF909F909C
:100B20008F9008958114E0E89E06E0E2AE06B104DD
:100B300009F034F7F801808190E0DC0199278827DB
:100B4000B595A79597958C159D05AE05BF0544F104
:100B5000F801828190E0DC0199278827B595A79557
:100B600097958C159D05AE05BF05BCF1F8018481F4
:100B700090E0DC0199278827B595A79597958C1566
:100B80009D05AE05BF050CF44FC0C114F0E8DF06AB
:100B9000F8E3EF06F10411F00CF05FC020E0B1CFF4
:100BA000F801828190E0DC0199278827B595A79507
:100BB00097958C159D05AE05BF057CF0F801628107
:100BC0007381A7019601808191810E94E8046815D4
:100BD00079058A059B0554F693CFF801848190E04E
:100BE000DC0199278827B595A79597958C159D05C4
:100BF000AE05BF05CCF0F80164817581A7019601AF
:100C0000828193810E94E804681579058A059B0515
:100C10000CF476CFC114F0E8DF06F8E3EF06F10438
:100C200009F00CF4BBCF19C0C114F0E8DF06F8E3FB
:100C3000EF06F10409F08CF4F8017681A701960122
:100C400061E7848195810E94E80421E068157905B7
:100C50008A059B050CF455CFA1CFF801868190E061
:100C60000296DC0199278827B595A7959795881551
:100C70009905AA05BB050CF443CF20E042CF1F9392
:100C8000CF93DF93EC01162F40960E94461B612FF5
:100C9000CE0148960E94461B612FCE0180960E948D
:100CA000461B612FCE0188960E94461B612FCE0104
:100CB000C096DF91CF911F910C94461B4F925F928B
:100CC0006F927F929F92AF92BF92CF92DF92EF92FC
:100CD000FF920F931F93CF93DF93CDB7DEB7289783
:100CE000CDBFDEBF5C01DC011496CD90DD90ED90B0
:100CF000FC9017974D905D906D907C9013979C960B
:100D00008D919D910D90BC91A02D8C0D9D1DAE1DC2
:100D1000BF1DBB231AF481309048AF4F9A2E990F14
:100D2000991CF50100A511A522A533A5040D151DDB
:100D3000261D371D332322F4013010482F4F3F4F1B
:100D4000110F8901001F111F84A195A1A6A1B7A1B0
:100D50008C0D9D1DAE1DBF1DBB231AF48130904824
:100D6000AF4F2A2F990F221F40A151A162A173A159
:100D7000440D551D661D771D772322F441305048E0
:100D80006F4F7F4F550FAB01441F551F848D958DBD
:100D9000A68DB78DC80ED91EEA1EFB1E6E2DFF2034
:100DA0003AF41C141A94E89417F8D11C1124611D0C
:100DB000DD0C661FC08CD18CE28CF38CD301C20198
:100DC0008C0D9D1DAE1DBF1DCC24C394E92CBB23EF
:100DD00022F481309048AF4FBF4F990FCD01881F4B
:100DE000991F0E94A317D5011496CD90DD90ED9028
:100DF000FC9017974D905D906D907C901397D496D2
:100E00008D919D910D90BC91A02D8C0D9D1DAE1DC1
:100E1000BF1DBB231AF481309048AF4F9A2E990F13
:100E2000991CF50100A911A922A933A9040D151DCA
:100E3000261D371D332322F4013010482F4F3F4F1A
:100E4000110F8901001F111F84A195A1A6A1B7A1AF
:100E50008C0D9D1DAE1DBF1DBB231AF48130904823
:100E6000AF4F2A2F990F221F40A151A162A173A158
:100E7000440D551D661D771D772322F441305048DF
:100E80006F4F7F4F550FAB01441F551F84A595A58C
:100E9000A6A5B7A5C80ED91EEA1EFB1E6E2DFF2003
:100EA0003AF41C141A94E89417F8D11C1124611D0B
:100EB000DD0C661FC0A4D1A4E2A4F3A4D301C20137
:100EC0008C0D9D1DAE1DBF1DC12CE92CBB2322F432
:100ED00081309048AF4FBF4F990FCD01881F991FA8
:100EE0000E94A317D501D8968C91811113C0289622
:100EF000CDBFDEBFDF91CF911F910F91FF90EF909B
:100F0000DF90CF90BF90AF909F907F906F905F9059
:100F10004F90089588E0F5017096DE0111960190DA
:100F20000D928A95E1F709811A812B813C8140E07D
:100F300050E06CEF7FEF0E94E71D89839A83AB83BB
:100F4000BC830D811E812F8138850E94E71D8D8312
:100F50009E83AF83B8876DEDCE0101960E94461B3C
:100F600085E0F82E6AE0CE0101960E94461BF5014D
:100F700004A915A926A937A984819581A681B781DD
:100F8000080F191F2A1F3B1F40A951A962A973A965
:100F900080819181A281B381840F951FA61FB71F05
:100FA0004D815E816F817885400F511F621F731FD5
:100FB00077231AF4413050486F4FE62F550FEE1F3C
:100FC00049815A816B817C81480F591F6A1F7B1FA1
:100FD00077231AF4413050486F4F462F550F441F66
:100FE00033231AF4013010482F4F622F110F661F60
:100FF00001E02E2FBB231AF481309048AF4F8A2F87
:10100000990F881F0E945B16FA94F110ABCF6FCF37
:101010000F93CF93DF93EC0101E02FE34EE06FE3FA
:1010200080E00E945B16298148816FE38EE00E9478
:101030005B162B814A81698188810E945B162D8114
:101040004C816B818A810E945B162E8141E76D8104
:101050008C810E945B166E81262F4FE781E70E94EC
:101060005B166E816F5F262F4FE781E70E945B164C
:10107000DF91CF910F9108952F923F924F925F92FF
:101080006F927F928F929F92AF92BF92CF92DF9298
:10109000EF92FF920F931F93CF93DF93CDB7DEB7FD
:1010A000CB55D109CDBFDEBF64E070E080E090E0B9
:1010B0000E94C51A712C9E012F5F3F4F49016CE2BF
:1010C00082E10E94411CE82E6FE384E10E94411CF2
:1010D000B82E6AE48E2D0E94411CF82E6FE384E145
:1010E0000E94411C682E68E68F2D0E94411CC82E6C
:1010F0006FE384E10E94411CD82E6EE384E10E94DC
:10110000411C90E4F40111929A95E9F720E030E84F
:1011100043E050E029833A834B835C8340E050E016
:101120006DE170E04D835E836F83788700E010E8A7
:101130002FEF3FEF0D8B1E8B2F8B388F40E050E051
:101140006BEF7FEF4D8F5E8F6F8F78A340E050E89D
:1011500062E070E049A35AA36BA37CA34DA35EA3F6
:101160006FA378A7212C90E8392E9DEF492E5524A6
:101170005A9429A63AA64BA65CA64DA75EA76FA7D0
:1011800078AB0DAB1EAB2FAB38AFEAAEBBAEFCAE4F
:101190006DAECEAEDFAE21968FAF21970E94631960
:1011A000C4010E945E06CE01CA960E9408080E94F1
:1011B0000E1980910A218111FCCF80910A218111A1
:1011C00008C080910921811104C080910A218823DF
:1011D000C1F3662463940E94631929843A844B8482
:1011E0005C8489819A81AB81BC81820D931DA41D91
:1011F000B51D89839A83AB83BC83CD84DE84EF8461
:10120000F8884D815E816F8178854C0D5D1D6E1D66
:101210007F1D4D835E836F83788733EAC30ED11CB5
:10122000E11CF11CCD86DE86EF86F88A19AE80912E
:101230000921882369F080910821813009F4BFC019
:1012400008F49BC0833021F46CEFC4010E943F0678
:10125000C4010E945E06CE01CA960E940808C98099
:10126000DA80EB80FC80C11440E8D40649E3E40650
:10127000F10434F1C11450E8D5065EE3E506F1044B
:1012800009F0F4F421968FAD219790E00597DC01E9
:1012900099278827B595A79597954D815E816F8190
:1012A000788584179507A607B70754F48D899E891A
:1012B000AF89B88D883D9348AF4FBF4F0CF484C0C1
:1012C000C114D104F9EFEF06FFEFFF06B4F0C1142B
:1012D000D10437E4E306F10484F48D819E81AF816B
:1012E000B885009749EFA4074FEFB40731F02CF011
:1012F0000097A042B1050CF493C060E083E00E9427
:10130000D21584E79FEB0E94E41561E083E00E9420
:10131000D21584E890E00E9410164AE0BE01675A98
:101320007F4F872D90E00E94FD1E62E083E00E94C7
:10133000D215CE01875A9F4F0E94E4158CE790E0AA
:101340000E9410160E940E190E94791AC55ADF4F8A
:10135000CDBFDEBFDF91CF911F910F91FF90EF9036
:10136000DF90CF90BF90AF909F908F907F906F90C5
:101370005F904F903F902F90089509891A892B898B
:101380003C8947E451E060E070E00E94E71D820D77
:10139000931DA41DB51D89879A87AB87BC870D89CE
:1013A0001E892F89388D0E94E71D8C0D9D1DAE1D55
:1013B000BF1D8D879E87AF87B88B69AE49CF64E02C
:1013C000C4010E943F0644CF69857A858B859C8540
:1013D0000E947B1E6C3C7C40810591050CF070CF17
:1013E0006D857E858F8598890E947B1E6C3C7C4034
:1013F000810591050CF064CF739460E084E00E9455
:10140000D2158EE890E00E9410160E940E1964E03A
:1014100070E0872D90E00E94C51A0E94791A4FCE85
:10142000A980BA80CB80DC80ED80FE800F8118859A
:10143000298D3A8D4B8D5C8D6D8D7E8D8F8D98A114
:101440000E94EB1B22962FAF229723963FAF239744
:1014500024964FAF249725965FAF259726966FAFBA
:10146000269727967FAF279728968FAF289729969C
:101470009FAF29978E01065C1F4F0E943C0581118A
:101480003CCFA980BA80CB80DC80ED80FE800F81CC
:10149000188529A13AA14BA15CA16DA17EA18FA1C4
:1014A00098A50E94EB1B2A962FAF2A972B963FAF49
:1014B0002B972C964FAF2C972D965FAF2D972E968E
:1014C0006FAF2E972F967FAF2F9760968FAF609755
:1014D00061969FAF61978E01065C1F4F0E943C058D
:1014E00081110BCFA980BA80CB80DC80ED80FE809B
:1014F0000F81188529A53AA54BA55CA56DA57EA5EC
:101500008FA598A90E94EB1B62962FAF62976396F6
:101510003FAF639764964FAF649765965FAF6597EB
:1015200066966FAF669767967FAF679768968FAF3F
:10153000689769969FAF69978E01065C1F4F0E945E
:101540003C058111DACE0E940E198FEF99EFE0E091
:1015500081509040E040E1F700C000003CCE2F9267
:101560003F924F925F926F927F928F929F92AF9233
:10157000BF92CF92DF92EF92FF920F931F93CF9380
:10158000DF93CDB7DEB76997CDBFDEBF1C01698B96
:101590004E8B2F8B461708F4D8C0220F220F220F34
:1015A0002D8B285F2A8B3989232F30E02B8B3C8BA6
:1015B000C9018054910922273327AC0155954795DD
:1015C00037952D873E874F87588B3D89398FD101BD
:1015D0001896CD90DD90ED90FC901B97C114D1042E
:1015E000B0E4EB06F10409F00CF4C5C0C114D10459
:1015F000E0E8EE06F10411F00CF0C0C0FEE1F88F57
:101600008D859E85AF85B889A70196010E943B1EF6
:10161000D1018D909D90AD90BC909B01AC01280DA7
:10162000391D4A1D5B1D2D833E834F835887398D9D
:10163000832F90E08097DC0199278827B595A7959F
:101640009795A70196010E943B1ED1011496CD905B
:10165000DD90ED90FC9017979B01AC012C0D3D1D8A
:101660004E1D5F1D29873A874B875C87E0E0812C00
:10167000912C5401750164012401350189829A82FB
:10168000AB82BC821FC097018601B701A6010E94F0
:10169000E71D89839A83AB83BC8395018401B501DF
:1016A000A4010E94E71D2C013D0189819A81AB8133
:1016B000BC81840D951DA61DB71D0097A240B105E4
:1016C00009F07CF597018601B501A4010E94E71D90
:1016D0008C019D0140E050E061E070E00E94E71D58
:1016E00089849A84AB84BC84880E991EAA1EBB1E72
:1016F000CD80DE80EF80F884C418D508E608F708AE
:1017000089819A81AB81BC81C80ED91EEA1EFB1E5D
:10171000EF5FF88DEF13B7CF41E0698D89890E94A3
:101720003D16298D2F5F298F3A89321350CF8B892F
:101730009C89019687709927892B19F1B989BF5F18
:10174000B98BEE89EB1708F02ECF6996CDBFDEBFBF
:10175000DF91CF911F910F91FF90EF90DF90CF908D
:10176000BF90AF909F908F907F906F905F904F90C1
:101770003F902F90089524E1288F42CF38E2388F90
:101780003FCF48E06F89898987500E948919D1012C
:101790001C968D919C911D9701961C968D939C9300
:1017A0001D9760E870E00E94C51AC8CF0F931F9381
:1017B000CF938C010E941819F8011486158660E8F1
:1017C00070E080E090E00E94C51AC0E02C2F4FE747
:1017D00060E0C8010E94AF0ACF5FC830B9F7CF916F
:1017E0001F910F9108952F923F924F925F927F9297
:1017F0008F929F92AF92BF92CF92DF92EF92FF9221
:101800000F931F93CF93DF93CDB7DEB72E97CDBF46
:10181000DEBF0E94631919821A821B821C821D82FC
:101820001E821F82188680E090E0A0E1B0E08987E8
:101830009A87AB87BC871D861E8680910A218111FD
:10184000FCCFCE0101960E94D60B80E2782E9BE061
:10185000892E91E2992EC12CDD24D3943BE0A32E56
:1018600034E2B32E4BE0E42E45E2F42E80910A21BF
:10187000882349F180910A21882379F084E603C006
:10188000815009F472C0AFE4B3EC1197F1F700C0D6
:10189000000090910A219111F3CF09851A852B85BB
:1018A0003C8540E050E061E070E00E94E71D8987E0
:1018B0009A87AB87BC87CE0101960E94D60B809198
:1018C0000A218111D7CF80910921882379F2809153
:1018D0000821813009F45EC008F4EAC0823009F4BE
:1018E000A0C0833019F629853A854B855C8580E058
:1018F00090E0A0E1B0E00E943B1E09811A812B819B
:101900003C8118012901261A370A480A590A2982F6
:101910003A824B825C828D859E8580978D879E87DB
:1019200060E870E00E94C51A0BE011E240E650E06A
:10193000B801C80180960E94EB1ED801E72D1D92C8
:10194000EA95E9F700581F4FE016F10679F70E9473
:101950000E1910E0212F40E260E0CE0101960E94B6
:10196000AF0A1F5F1830B1F781CF2E96CDBFDEBF13
:10197000DF91CF911F910F91FF90EF90DF90CF906B
:10198000BF90AF909F908F907F905F904F903F90CF
:101990002F90089529853A854B855C8580E090E0FD
:1019A000A0E1B0E00E943B1E09811A812B813C819D
:1019B000DC01CB01800F911FA21FB31F89839A8383
:1019C000AB83BC838D859E8580978D879E8760E8DD
:1019D00070E00E94C51A0BE011E2B801605E7F4F13
:1019E00040E650E0C8010E94EB1EF801E05AFF4FAC
:1019F000DF01272C1D922A94E9F700581F4F25E29A
:101A00000B30120751F70E940E1910E0212F4FE7FB
:101A10006FE5CE0101960E94AF0A1F5F1830B1F743
:101A200025CF29853A854B855C8580E090E0A8E04C
:101A3000B0E00E943B1E0D811E812F813885DC01A4
:101A4000CB01800F911FA21FB31F8D839E83AF8395
:101A5000B8878D859E8580978D879E8760E870E02A
:101A60000E94C51A8BE091E2FC01F39520E8DC01AD
:101A700001900D922A95E1F780589F4FF4E28B3048
:101A80009F0791F7D501F6011D923197E9F70E9462
:101A90000E1926E04FE760E0CE0101960E94AF0AE2
:101AA00027E04FE760E0CE0101960E94AF0ADECE4C
:101AB00029853A854B855C8580E090E0A8E0B0E020
:101AC0000E943B1E0D811E812F813885180129013E
:101AD000261A370A480A590A2D823E824F825886B2
:101AE0008D859E8580978D879E8760E870E00E9437
:101AF000C51A8BE894E2FC01FA9520E8DC0101901C
:101B00000D922A95E1F78058910921E28B389207CE
:101B100091F7D401F6011D923197E9F70E940E1951
:101B200021E04FE760E0CE0101960E94AF0A20E07D
:101B3000B8CF6C3F18F081E0FA01808708950F93C9
:101B400070E09B012E5F3F4F922F990F290F21507C
:101B5000E82FF0E031969E2F990FE90FE05D6F5F5F
:101B60007F4F962F990F690F982F990F890FDA01E0
:101B700018960C914E2F8F5C0E94F6160F910895C7
:101B80000F938B3010F4653110F00F910895DA0146
:101B900070E09B012E5F3F4F922F990F290F21502C
:101BA000E82FF0E031964E2F440FE40F40E34E0F44
:101BB0006F5F7F4F962F990F690F982F990F890F9D
:101BC00018960C918F5C0E94F6160F910895CF9392
:101BD000DF93EA018A3020F49CEE960F973E28F4BA
:101BE00081E08887DF91CF91089570E06F5F7F4F2C
:101BF000962F990F690F982F990F890F8F5C0E946C
:101C000072198111EDCFEECF70E06F5F7F4F962F8D
:101C1000990F690F982F990F890F8F5C0E94721985
:101C200091E0811101C090E0892F08952F923F9299
:101C30004F925F926F927F928F929F92AF92BF92DC
:101C4000CF92DF92EF92FF920F931F93CF93DF9388
:101C5000CDB7DEB72597CDBFDEBF5C016B01DB01E1
:101C600013967C90139714962C9083E0382E370CA3
:101C700044244A94420C92E0592E520C672C812C39
:101C8000912CB1E0B20DBA83E1E0E70DE983F2E017
:101C9000F70DFB83EA80F980EB81EC832D828401D0
:101CA000D6011296EC911297F0E0E358F04480814F
:101CB00090E0002E02C0959587950A94E2F780FF88
:101CC0000FC015968C91813009F43FC0D0F182305D
:101CD000A1F1833029F4A601642D8F2DF50109951A
:101CE0000C5F1F4FEA94FD81FF5FFD83F3948C81AD
:101CF00081508C837812D4CFAFEF8A1A9A0A6394FA
:101D00003A9443945A94B4E08B16910419F62596AC
:101D1000CDBFDEBFDF91CF911F910F91FF90EF906C
:101D2000DF90CF90BF90AF909F908F907F906F90FB
:101D30005F904F903F902F900895A6016D81832D65
:101D4000CDCFA6016E2D862DC9CFA601652D8C8124
:101D5000C5CFCF93DF93EC018E818A838F818D83F2
:101D60000E94DB1E67E070E00E94C41D8E830E940B
:101D7000DB1E8370907897FD0AC08F838EEF8C8373
:101D800084E08B8381E08987DF91CF91089501976B
:101D90008C6F9F6F0196F1CFEF92FF920F931F937D
:101DA000CF93DF93EC011886BC0180EC9DE00E948C
:101DB000160E8D8190E00196837099278D83FB80AC
:101DC0008DEFE82EEF0C0F2D1F2D1B831886BE0103
:101DD00087EE9DE00E94160E88858823E1F00B8334
:101DE0001886BE0187EE9DE00E94160E8885882326
:101DF00091F011500F5FE112E8CFFB828D8190E0EE
:101E00000396837099278D83DF91CF911F910F9156
:101E1000FF90EF90089581E08887BE0180EC9DE0FF
:101E2000DF91CF911F910F91FF90EF900C94160EC0
:101E3000CF93DF93EC011886BC0180EC9DE00E94FB
:101E4000160E8C818F5F8C83BE0187EE9DE00E9411
:101E5000160E8885882321F08C8181508C83198609
:101E600081E08887BE0180EC9DE0DF91CF910C94EA
:101E7000160E1F93CF93DF93EC01162F1886BC012B
:101E800080EC9DE00E94160E8B81810F8B83BE013A
:101E900087EE9DE00E94160E8885882319F08B81BD
:101EA000811B8B8381E08887BE0180EC9DE0DF9100
:101EB000CF911F910C94160EBF92CF92DF92EF92AA
:101EC000FF920F931F93CF93DF93EC0110E000E09C
:101ED000812F90E00196F82EFF0CF80E81E3E82E9A
:101EE000DD24D3946F2D8E2D0E947219811101C0B3
:101EF000D12C83E0E80E8FE4E812F4CFDD2029F145
:101F00000F5F112311F1EE24E394CC24C394C10E8E
:101F1000F12CD12EDE18BC2CBE186D2D8F2D0E94F9
:101F2000040E8887AE016B2D8F2D0E94C00D188680
:101F3000AE016D2D8F2D0E94C00DF3948AE0F81232
:101F4000ECCFE3941E1520F711501F5F143109F0F8
:101F5000BFCF023081F030F40130B1F48881998133
:101F6000049610C0033059F0043071F488819981CF
:101F700088589F4F07C0888199810A9603C088813D
:101F800099814E9688839983DF91CF911F910F910C
:101F9000FF90EF90DF90CF90BF900895EF92FF9267
:101FA0000F93CF93DF93CDB7DEB72597CDBFDEBFBD
:101FB0007C0100E020E148E268E080E00E94F61643
:101FC000B70180E090E02AE0AE014F5F5F4F0E94D2
:101FD000081F62E080E00E94D215CE0101960E94A7
:101FE000E4152596CDBFDEBFDF91CF910F91FF9015
:101FF000EF900895EF92FF920F93CF93DF93CDB7B9
:10200000DEB72A97CDBFDEBF7C0100E02DE14DE6B3
:1020100069E082E50E94F616F70187818E8386814A
:102020008B838EE08C8384E08D8381E08987BE0181
:102030006F5F7F4F8FE99DE00E94160E2A96CDBFFD
:10204000DEBFDF91CF910F91FF90EF900895CF9277
:10205000DF92EF92FF920F931F93CF93DF93CDB751
:10206000DEB72A97CDBFDEBF19821A820E941819E7
:1020700001E02FE34FE462E080E30E94D0168091FC
:102080000A218111FCCFCE0101960E94A90EF12CEC
:10209000C12C3BEAD32E4BE1E42E0EE110E0898106
:1020A0009A810E94CE0F64EF71E089819A810E942B
:1020B000C51ACE0101960E94A90ECE0101960E947A
:1020C000FA0F8A85811150C079C0F394809108215C
:1020D000813009F454C008F469C0823009F461C049
:1020E000833061F4FD9C812D11248695982F990FE2
:1020F000890F9F2D981B913009F480C00E940E1902
:102100004C2D50E04F5F5F4F89819A81853F21E0E0
:10211000920710F084EF91E0E89E9001E99E300D67
:1021200011243695279536952795A5ECB0E20E94A7
:10213000D81D929582958F7089279F708927B80145
:10214000681B790BCA010E94B01DC82E811103C003
:102150008A8581110FC08FE493EC0197F1F700C0DD
:1021600000009A85992351F1809109218111ADCF09
:10217000F12CC4CFCE0101960E94180FECCFFD9C2C
:10218000812D11248695982F990F890F2F2D281BAB
:10219000213009F0B3CF61E0CE0101960E94390FE2
:1021A000ADCFCE0101960E94180FA8CF21E0F21208
:1021B000A5CFCE0101960E94CC0EA0CFCE010196F4
:1021C0000E945C0F1986BE016F5F7F4F89E99DE019
:1021D0000E94160E8985882309F461CF89819A812E
:1021E0000E94821A2A96CDBFDEBFDF91CF911F9148
:1021F0000F91FF90EF90DF90CF9008956FEFCCCFCD
:102200007F928F929F92AF92BF92CF92DF92EF9286
:10221000FF920F931F93CF93DF936C01762EDFEF26
:10222000D40FE42EF12C81E0E81AF10882E0982E18
:10223000940E812CA62EB12C8501CFEFC8010197F9
:10224000409790F4EAE0EE16F10474F4FFEFEF1615
:10225000FF0651F0F6016081718182812D2F4C2F94
:10226000470D0E94511C880ECF5F0F5F1F4FC23079
:1022700029F7DF5FFFEFEF1AFF0AD911DDCF882DB5
:10228000DF91CF911F910F91FF90EF90DF90CF9052
:10229000BF90AF909F908F907F9008952F923F9224
:1022A0004F925F926F927F928F929F92AF92BF9266
:1022B000CF92DF92EF92FF920F931F93CF93DF9312
:1022C000CDB7DEB76A97CDBFDEBF7C01242FFE01FC
:1022D000319684E1DF011D928A95E9F7EF8B4F2E4D
:1022E000462F62E07E2F8F2F0E946F1CCC24C39458
:1022F000D12CF7013296E98FFA8FAA24AA94BA2C2E
:10230000552453945A0C00E010E0088F252D402FDF
:1023100062E07F89842D0E94511C882309F478C0D3
:10232000252D402F62E07F89842D0E94881CF1E0DA
:10233000CF1AD108D70115966D917D918C91252DDD
:10234000402F0E946F1CF701808591850196808740
:102350009187452D602F898D9A8D0E9400118111E2
:1023600057C04501AFEFAE8B3801BFEFBD8B3E8844
:10237000350CC30101974097C8F5FAE08F16910418
:10238000A9F18FEF8816980689F19D89911103C0F4
:10239000AE89AA2359F12D88B88D2B0EF7016281E1
:1023A00073818481232D422D0E94511C81111EC0F6
:1023B000232D422D62E07F89842D0E94511C8111C2
:1023C00015C0D70115966D917D918C91232D422DCD
:1023D0000E94511C81110AC0232D422D62E07F8989
:1023E000842D0E946F1CBFEFCB1ADB0AED89EF5FD3
:1023F000ED8BFFEF6F1A7F0AE23009F0BACF8E89BA
:102400008F5F8E8B9FEF891A990A823009F0ACCFCB
:102410000F5F1F4F0031110509F077CFEFEFAE1AB4
:10242000BE0AF9E0AF16B10409F06ACFC114D104B5
:1024300009F063CF6A96CDBFDEBFDF91CF911F91C8
:102440000F91FF90EF90DF90CF90BF90AF909F9053
:102450008F907F906F905F904F903F902F90089556
:102460002F923F924F925F926F927F928F929F92A4
:10247000AF92BF92CF92DF92EF92FF920F931F9392
:10248000CF93DF93CDB7DEB7C055D109CDBFDEBF47
:1024900084E19E01275D3F4FF901982F11929A9593
:1024A000E9F7DE015596FD01982F11929A95E9F70B
:1024B000AE014F5F5F4FFA0111928A95E9F75E0115
:1024C000FDE3AF0EB11C80E1F50111928A95E9F7A9
:1024D00082E08FAF22962EAF3FAF229723968FAF29
:1024E00023972596AEAFBFAF259728968FAF289735
:1024F0002A964EAF5FAF2A9780910A218111FCCFB7
:10250000F9E18F2E912C80910921811139C08091A0
:102510000A21882309F449C080910A21882309F4FB
:102520006BC180E090E00196EFE4F3EC3197F1F7B6
:1025300000C0000020910A212111F5CFC39708F4B3
:102540005BC12A966DAD7EAD8FAD2A972EAD4DAD98
:102550000E94511C882309F440C12A966DAD7EADBE
:102560008FAD2A972EAD4DAD0E94881C2C968EAD56
:102570009FAD2C9701972C968EAF9FAF2C9715C0CF
:10258000809109218111FCCF80910821813009F4CB
:102590007EC108F476C1823009F46CC1833029F41D
:1025A0008DAD882311F081508DAF0E94631914E125
:1025B00001E02EE3412F62E0812F0E945B161A5F3B
:1025C0001A37B1F712E001E0212F44E7612F84E1CF
:1025D0000E945B161A5F1434B1F777E0672E512C16
:1025E0008EEF282E260C97E1792EE12C20E1322E59
:1025F000360C2A966DAD7EAD8FAD2A97252D4E2DCA
:102600000E94511C8111AAC02D968FAD2D9782304A
:1026100009F4D1C025966DAD7EAD8FAD2597252DE2
:102620004E2D0E94511C882309F4B9C0452D6E2DF2
:10263000CE01CF960E940011C82E38E0839FC00CB7
:1026400011243DEFF32EF60C44244A94470C42E04B
:10265000D42ED70C042D1C2DE12FE695E695E6959A
:10266000F0E0E357F044408150E0812F90E0809506
:1026700090958770992702C0559547958A95E2F7FE
:1026800041706F2D802F0E943D161F5F0F5F0D114F
:10269000E3CF83E0C80EF394F610DCCFE39496E02A
:1026A000790EE0E1EE12A5CF5394690EFAE05F12C5
:1026B00097CF8EAD982F990F890F982F990F8DADC9
:1026C000282F220F820F880F27E0290F49E1480F9A
:1026D00063E0690F01E08B5E0E94D0162C968EADF0
:1026E0009FAD2C974AE0BE01635B7F4F9401281B8E
:1026F000390BC9010E94FD1E61E080E00E94D215E5
:10270000CE01835B9F4F0E94E4150E940E1969E180
:1027100070E02C968EAD9FAD2C970E94C51A2D9619
:102720008FAD2D97823009F0EECE0E94791AC05BF2
:10273000DF4FCDBFDEBFDF91CF911F910F91FF9093
:10274000EF90DF90CF90BF90AF909F908F907F9051
:102750006F905F904F903F902F9008951EEF170D50
:1027600053E0D52ED70C062D832D87196EEEF62E4D
:10277000F80E6F2D610F41E0812F0E943D1641E060
:10278000602F812F0E943D161F5F0150D112F1CFA3
:10279000E39496E0790EE0E1EE122BCF85CF41E095
:1027A000622D872D0E943D16E39496E0790EE0E1BC
:1027B000EE121FCF79CF22966DAD7EAD8FAD2297F1
:1027C000252D4E2D0E94511C8111C8CF2D968FAD05
:1027D0002D97823009F42ACF1DCF2A966DAD7EAD9C
:1027E0008FAD2A972EAD4DAD0E946F1C2C968EADED
:1027F0009FAD2C970196BFCE2A966DAD7EAD8FAD65
:102800002A972EAD4DAD0E94511C8111CECE22963D
:102810006DAD7EAD8FAD22972EAD4DAD0E94511C9A
:1028200081113BC02D968FAD2D97882309F44FC0A1
:102830004EAD6DADC5010E944E1127968EAD9FAD78
:1028400027978738910509F0B0CE0E94631963E09D
:1028500083E00E94D21584E89FEB0E94E4150E9459
:102860000E1980910A218823E1F3F2E02D96FFAF43
:102870002D979BCE8EAD893008F097CE8F5F8EAFAF
:1028800094CE8EAD882309F490CE8150F8CF8DADD3
:102890008F3008F08ACE8F5F87CE00E010E08EADDB
:1028A000682F660F680F660F6B5F8DAD982F990FBD
:1028B000890F880F21E0A801895E0E9420170E94DD
:1028C0000E190F5F1F4F0E31110549F7CECFE9E109
:1028D000FE2E6FE080E00E94411C182F69E080E02E
:1028E0000E94411C082F22966DAD7EAD8FAD2297C0
:1028F000202F412F0E94511C8111EBCF812F90E09E
:102900002DAD821B910997FD1CC002974CF4802FBE
:1029100090E02EAD821B910997FD17C00297CCF273
:1029200022966DAD7EAD8FAD2297202F412F0E9454
:102930006F1CFA94F110CDCF21E02D962FAF2D977B
:1029400077CF919581959109E0CF919581959109E6
:10295000E5CFE0E1F4E0808188608193E83184E0B4
:10296000F807C9F7109200021092030210920102B8
:10297000109202020895789480E0089580E008950E
:10298000FC0164BF4083089540E068ED81E690E07B
:102990000E94C01480E00895089580E0089541E009
:1029A00068ED80E890E00E94C01480E008951F92D6
:1029B0000F920FB60F9211248F9381E080938A00BB
:1029C0008F910F900FBE0F901F901895809141012D
:1029D0008111FCCF809151018111FCCF89E380935B
:1029E000500181E0809352018093400180E008957E
:1029F0000E94CC140E94A9140E94CD140E94CF14EE
:102A00000E94BE140E94C4140E94E6140C94BB14CD
:102A10008093180890911508809115089074807122
:102A2000892BC1F380E0089590911508937093303D
:102A3000D9F0909114089B7F909314088093170805
:102A4000282F217080FF07C08091150887FFFCCFD9
:102A500020E0822F08959091150896FDFACF90916D
:102A6000150896FFF8CFF5CF21E0822F0895FF9249
:102A70000F931F93CF93DF93F82E192F062F88E71C
:102A80000E941415809115088370823059F100233B
:102A9000C9F0CF2DD12F015010E00F5F1F4F0C0F49
:102AA0001D1F04C02196C017D10761F08091150841
:102AB00083708230B9F788810E9408152196C0176B
:102AC000D107A1F780911408846080931408809145
:102AD0001408836080931408DF91CF911F910F91A8
:102AE000FF90089580E00E940815D1CFCF93DF9327
:102AF000CDB7DEB72697CDBFDEBFE4E0F1E280833D
:102B0000618392E299836A8397E09B8391E29C833D
:102B10008D838FE78E8366E0CE0101960E94371584
:102B20002696CDBFDEBFDF91CF910895EF92FF9241
:102B30000F931F93CF93DF937C018B0188E70E9453
:102B40001415809115088370823041F1011511052B
:102B5000A1F0E7010E0D1F1D04C02196C017D1077B
:102B600061F08091150883708230B9F788810E94E6
:102B700008152196C017D107A1F780911408846029
:102B80008093140880911408836080931408DF9167
:102B9000CF911F910F91FF90EF90089580E40E94D4
:102BA0000815D4CF982F990F890F880F813810F40A
:102BB000683008F008950C947615813810F4683068
:102BC00008F008950C947615CF93DF93DC01EC9117
:102BD000EE2319F14091052130910421EC01219659
:102BE000B0E84B9FA0011124E05286E0E89FF0017D
:102BF0001124E756FF4FDA01A30FB11DA55FBE4DAB
:102C000096E024912D93915031969111FACF3A5F2D
:102C1000E991E111E9CF30930421DF91CF9108953B
:102C20009C012F5F3F4FFC019491992329F1409122
:102C3000052160910421F0E84F9FA0011124E0EEEE
:102C4000E90F86E0E89FF0011124E756FF4FDA0113
:102C5000A60FB11DA55FBE4D86E094919D93815056
:102C600031968111FACF6A5FF90194912F5F3F4F3E
:102C70009111E5CF609304210895E62FE695E6953E
:102C8000E69590E8E99FF0011124E55FFE4DE80F1D
:102C9000F11D677081E090E001C0880F6A95EAF746
:102CA000413029F080959081892380830895908117
:102CB000892B808308955F926F927F928F929F926B
:102CC000AF92BF92CF92DF92EF92FF920F931F933A
:102CD000CF93DF93C82FD62F142F522E87FD42C0DB
:102CE00047FD40C06034F0F58FE38217D8F1C42E61
:102CF000D12CCC1AD108D7FC48C0C11708F442C067
:102D000077247A94852C912C8D1A910897FC44C0D5
:102D1000AA24BB24A818B908D515D8F166246A944A
:102D20007601E818F908402F6D2F8C2F0E943D1670
:102D30001C17B1F0C701880F991FA816B9061CF41B
:102D4000E818F908C70D8C159D056CF7EC0CFD1CF7
:102D5000D60D402F6D2F8C2F0E943D161C13EACFED
:102D60005D12E8CFDF91CF911F910F91FF90EF900F
:102D7000DF90CF90BF90AF909F908F907F906F909B
:102D80005F90089577247394BDCFD194C194D108F6
:102D9000B4CF66246394C4CF919481949108B8CF42
:102DA000EF92FF920F931F93CF93DF93C82F162FAD
:102DB000E42ED22F262F0E945B162D2F4E2D612F31
:102DC0008E2D0E945B162D2F4C2F6D2F8E2D0E9465
:102DD0005B16212F4C2F6D2F8C2F0E945B16DF91DD
:102DE000CF911F910F91FF90EF900895CF92DF92B6
:102DF000EF92FF920F931F93CF93DF93E22EF12C6C
:102E0000E61AF108F7FC13C0C02ED42ED62F182FC7
:102E1000C0E06D2F6C0F0C2D262F4D2D812F0E94A1
:102E20005B16CF5F2C2F30E0E216F30694F7DF91AC
:102E3000CF911F910F91FF90EF90DF90CF90089569
:102E40002F923F924F925F926F927F928F929F92BA
:102E5000AF92BF92CF92DF92EF92FF920F931F93A8
:102E6000CF93DF93CDB7DEB72697CDBFDEBF442427
:102E70005524441A550A441555050CF44EC02C83AC
:102E80008A01449F6001459FD00CD00C1124282E4C
:102E9000240C5201262F240D2983282F30E02A8369
:102EA0003B83662E712CAA9C7001AB9CF00CF00C3D
:102EB000112439804D825E828A809B808A0C9B1C03
:102EC0002D813E81229FC001239F900D900D1124E2
:102ED0008E0D9F1D8C159D0584F430E8831691049A
:102EE00060F48D819E81860D971D8034910528F4B4
:102EF0004C81632D822D0E943D168D819E8101960D
:102F00008D839E83339408171907D4F69FEFA91A6F
:102F1000B90A23940A151B0534F62696CDBFDEBFE9
:102F2000DF91CF911F910F91FF90EF90DF90CF90A5
:102F3000BF90AF909F908F907F906F905F904F90D9
:102F40003F902F9008952F923F924F925F926F92F1
:102F50007F928F929F92AF92BF92CF92DF92EF9229
:102F6000FF920F931F93CF93DF93CDB7DEB7639795
:102F7000CDBFDEBF841795070CF0E0C0782F392F46
:102F8000081719070CF435C1E72FF32FF7FD37C1E8
:102F9000742F352F401751070CF4E7C07C833D8315
:102FA000AC81BD81A038B10524F0AFE7B0E0AC83BF
:102FB000BD8362170CF0DCC0262EE6160CF414C19B
:102FC0002E8227FC25C129832E150CF4DFC0B98180
:102FD000BA83B03414F03FE33A83E983FF27AC812E
:102FE000BD81AE17BF070CF4E9C0CB8649875A876D
:102FF000462E8F8398878A81082E000C990B8A8B26
:103000009B8BAE810A2E000CBB0BAA83BB835A019B
:103010008F819885A81AB90A622E220F7708862F09
:10302000660F990BD301A81BB90BAC87BD8768014C
:103030002F813885C21AD30A0E2C000CFF08D70145
:10304000A81BB90BAE87BF87970126193709288BB4
:10305000398B1801241A350AAA89BB892A813B8138
:10306000A217B3070CF49FC089819F81891B082E8A
:10307000000C990BAC85BD85A89F7001A99FF00C31
:10308000B89FF00C11242E853F85289F8001299F31
:10309000100D389F100D112489859A85E81BF90BB6
:1030A000A889B989EA9F4001EB9F900CFA9F900C88
:1030B00011242A813B815E802DC08C9DA0018D9DB5
:1030C000500D9C9D500D1124CA01801B910B41E0B5
:1030D000181619060CF05CC0641799F02619370908
:1030E000229EC001239E900D329E900D11248819BE
:1030F000990921E0181619060CF04CC0621709F462
:103100004CC05394252D30E08A899B898217930700
:103110000CF449C0852D8419082E000C990B8A9D4A
:10312000A0018B9D500D9A9D500D11244E195F09E1
:1031300061E0141615060CF260E0BFCF742F352F36
:103140000417150714F4702F312FE72FF32FF7FF13
:1031500002C0E0E0F0E0481759070CF019CF782FD3
:10316000392F801791070CF019CF702F312F16CF00
:10317000222EE2160CF42E2C2E8227FC1E822617FD
:103180000CF021CF69836E150CF021CFE9821FCF9F
:1031900040E0A2CF20E06213B4CF4B85652D89813A
:1031A0000E943D16AECF39813F5F3983E32FF0E0B7
:1031B0008C819D818E179F070CF04ECF6396CDBFFB
:1031C000DEBFDF91CF911F910F91FF90EF90DF90C5
:1031D000CF90BF90AF909F908F907F906F905F90B7
:1031E0004F903F902F9008952E2C2E8227FEEBCEED
:1031F0000FC0702F312FE72FF32FF7FFC9CEE0E07C
:10320000F0E0742F352F401751070CF0C7CEADCF2B
:103210001E8229832E150CF0DACEB8CF60E080E054
:103220000E94761560E074E08BE091E20C949615B4
:10323000EBE0F1E280E8DF01982F1D929A95E9F723
:10324000E058FF4FA5E2EB30FA07A9F70E940E19EC
:1032500060E080E00C947615CF93DF93CDB7DEB7B6
:103260006C97CDBFDEBF9FE09093160893E09093DC
:103270001308909114089860909314089091150881
:1032800091609093150890911508906C9093150893
:10329000E3EDF2E0DE0111969E01245E3F4F949132
:1032A0009D933196A217B307D1F78C8F6CE1CE01B5
:1032B00001960E9437150E9418196C96CDBFDEBF8B
:1032C000DF91CF910895EBE0F1E280E8DF01982FE4
:1032D0001D929A95E9F7E058FF4FA5E2EB30FA0707
:1032E000A9F70895262F26952695269590E8299FDB
:1032F00090011124255F3E4DF901E80FF11D677023
:1033000081E090E001C0880F6A95EAF790818923F7
:103310000895EF92FF921F93CF93DF93162F68309B
:1033200018F587FD21C0E82EF12CC42FD0E09E01B6
:103330002E0D3F1D2138310524F040E8481BC42FD5
:10334000D0E0612F0E947615C70120E8129F800D02
:10335000911D1124BE01855F9E4DDF91CF911F917C
:10336000FF90EF900C949615DF91CF911F91FF90F5
:10337000EF9008959B01220F331F620F731F229A53
:1033800025B12B7F35B134604FB7F89461157105C5
:10339000C9F0FC01680F791F819198E035B90000F0
:1033A00000C000C087FF25B9880F000000C000C022
:1033B00000C000C025B9000000C09A9579F7E61753
:1033C000F70751F74FBF8BED95E00197F1F700C07C
:1033D00000000895CF93DF9300D01F92CDB7DEB7E2
:1033E00099E8899F812D112482958F708A83699F26
:1033F000612D112462956F706983499F412D1124BD
:1034000042954F704B8361E070E0CE0101960E94BF
:10341000BA192396CDBFDEBFDF91CF91089566958F
:1034200044E0880F880F0C9489191F920F920FB6F1
:103430000F9211248F939F93149936C081E080934B
:103440000821149B02C015993AC091E0809109218E
:10345000891709F440C0809107218F5F809307216D
:1034600080910721843030F582B18695817091E09A
:10347000892790910A21891769F0909106219F5F11
:103480009093062190910621943020F080930A2198
:103490001092062181E0809353019F918F910F90AC
:1034A0000FBE0F901F901895159918C083E0809358
:1034B0000821C7CF9093092110920721D5CF129BE5
:1034C000C4CF92B193FB992790F981E0982780911E
:1034D00009218913C0CF10920721C6CF129B06C0C5
:1034E0001399AFCF82E080930821ABCF10920821CF
:1034F000A8CF80910A218111FCCF80910A218823D5
:10350000E1F308950F931F93CF93DF93CDB7DEB709
:103510002597CDBFDEBF8C010E94631962E086E073
:103520000E94D21586EF92E00E941016B80180E04A
:1035300090E02AE0AE014F5F5F4F0E94081F63E0FA
:1035400086E00E94D215CE0101960E94E4158EEE0F
:1035500092E00E94101665E083E00E94D21580E0A0
:1035600093E00E9410160E940E1980910A21811189
:10357000FCCF80910A218823E1F32596CDBFDEBFE1
:10358000DF91CF911F910F910895CF92DF92EF922B
:10359000FF920F931F93CF93DF93CDB7DEB727979B
:1035A000CDBFDEBF6817790708F4CB012227332788
:1035B000AB01569547953795DC0199278827B69535
:1035C000A79597950E943B1E6B017C0100E010E8D7
:1035D00020E030E0061B170B280B390B40E050E8C9
:1035E0006FE770E00E94E71D905CAF4FBF4F2BF478
:1035F000BFE7AFEF8A2F9A2F02C0882790788C837D
:103600009D83AE83BF83970186010E94E71D905C76
:10361000AF4FBF4F2BF4BFE7AFEF8A2F9A2F02C0F7
:10362000882790784C815D816E817F8177231AF4A1
:10363000413050486F4F262F550F221F39E8239FE6
:10364000212D112422952F702A83BB231AF4813057
:103650009048AF4F8A2F990F881F839F812D112487
:1036600082958F7089831B8261E070E0CE010196A4
:103670000E94BA192796CDBFDEBFDF91CF911F916F
:103680000F91FF90EF90DF90CF9008954F925F924F
:103690006F927F928F929F92AF92BF92CF92DF9262
:1036A000EF92FF920F931F93CF93DF93CDB7DEB7C7
:1036B0002697CDBFDEBFFC016D83862F660F990B69
:1036C00097FD7CC08E8318160CF064C084809580B2
:1036D000A680B7802D8112160CF074C08BE392E0A7
:1036E000A0E0B0E089839A83AB83BC832DC09501B1
:1036F00084014BE352E060E070E00E94E71DC81ACD
:10370000D90AEA0AFB0AC082D182E282F3820981E5
:103710001A812B813C81B301A2010E94E71D6C013B
:103720007D01950184014BEF5FE760E070E00E944E
:10373000E71D46015701880E991EAA1EBB1EAE81C9
:10374000A150AE83AA2311F1408051806280738022
:10375000930182014BEF5FE760E070E00E94E71D9C
:103760006C017D019D81191614F29501840145ECCF
:103770005DEF6FEF7FEF0E94E71DC81AD90AEA0AD2
:10378000FB0AC082D182E282F382C1CF8482958219
:10379000A682B7822696CDBFDEBFDF91CF911F9163
:1037A0000F91FF90EF90DF90CF90BF90AF909F90E0
:1037B0008F907F906F905F904F9008959195819535
:1037C000910980CF85EC9DEFAFEFBFEF89839A839E
:1037D000AB83BC83B9CFAF92BF92CF92DF92EF920F
:1037E000FF920F931F93CF93DF93CDB7DEB7689708
:1037F000CDBFDEBF29873A874B875C876D877E8781
:103800008F87988BA98ABA8ACB8ADC8AED8AFE8A4E
:103810000F8B188F4D855E856F8578898D899E8980
:10382000AF89B88D840F951FA61FB71F09851A850C
:103830002B853C8549895A896B897C89400F511FAA
:10384000621F731F49835A836B837C838D839E839E
:10385000AF83B887242F3A816B815C817E81462FAC
:10386000682F8F8198856896CDBFDEBFDF91CF919D
:103870001F910F91FF90EF90DF90CF90BF90AF908E
:103880000895CF93DF93C82FD62F0E94DB1E02C06E
:103890000E94DB1E8C17E0F3D817D0F3DF91CF9195
:1038A0000895E72FF82F842F869586958695269F75
:1038B000E00DF11D1124E80FF11D2081822F90E011
:1038C000477021E030E002C0220F331F4A95E2F733
:1038D0002823392381E0232B09F480E00895A72FC2
:1038E000B82F842F869586958695E82FF0E0269F41
:1038F000E00DF11D1124EA0FFB1F477081E090E0FD
:1039000001C0880F4A95EAF79081892B808308953A
:10391000A72FB82F842F869586958695E82FF0E0FF
:10392000269FE00DF11D1124EA0FFB1F477081E077
:1039300090E001C0880F4A95EAF78095908189232D
:103940008083089540E06FEF80E00E94EA1960E014
:1039500082E20E94DD1582E193E00E94101663E08E
:1039600083E00E94D21589E99FEB0E94E41567E08D
:1039700086E00E94D2158AEA9FEB0E94E4150E941D
:103980000E190C94791A0F931F93CF93DF938C0128
:103990000E94631960E082E20E94DD1582E193E0FB
:1039A0000E941016F8018181882321F1C0E013C024
:1039B0006D2F82E00E94D215F80184E0C89FE00DCF
:1039C000F11D1124828193810E94E415CD2FF8010D
:1039D0008181D81778F4D1E0DC0F6D2F80E00E9450
:1039E000D215F80180818C13E3CF8AEB9FEB0E9404
:1039F000E415DECFDF91CF911F910F910C940E193A
:103A0000CF93DF93CDB7DEB7A297CDBFDEBF8E01D8
:103A10000F5F1F4F82E2F80111928A95E9F786E065
:103A20008A838DEB9FEB8B839C838AE293E08D836B
:103A30009E8383EC9FEB8F83988787E290E1898751
:103A40009A878AEC9FEB8B879C878CE398E08D8725
:103A50009E8781ED9FEB8F87988B80E392E1898B26
:103A60009A8B87ED9FEB8B8B9C8B8EEA91E08D8BF5
:103A70009E8B84EE9FEB8F8B988F83EF9BE0898FDB
:103A80009A8FC8010E94C31C91E080910921811185
:103A900011C080910A2181110DC0809109218111ED
:103AA00028C080910A21811114C090E080910921E1
:103AB000882379F380910921882329F09923C9F07B
:103AC00080910A21E2CF80910A218823F1F291119D
:103AD000DCCF8981F80134E0839FE00DF11D1124D2
:103AE0000480F581E02D0995C8010E94C31C91E076
:103AF000CCCF8091082181110CC06A8170E089814E
:103B00009B01280F311DC90101970E94C41D8983A3
:103B1000B8CF80910821823009F0B3CF89818F5FBF
:103B20006A810E94A41D9983ACCF0E94F8148FEA89
:103B30000E942C190E94A21C809148019091490179
:103B40000E94E01E0E94001D991B79E004C0991F8D
:103B5000961708F0961B881F7A95C9F780950895E7
:103B6000AA1BBB1B51E107C0AA1FBB1FA617B707A3
:103B700010F0A61BB70B881F991F5A95A9F78095BF
:103B80009095BC01CD01089597FB072E16F4009483
:103B900007D077FD09D00E94B01D07FC05D03EF488
:103BA000909581959F4F0895709561957F4F0895E9
:103BB000A29FB001B39FC001A39F700D811D11246E
:103BC000911DB29F700D811D1124911D0895E894DF
:103BD0000E94FE1D772312F4A01BB10B37FF02C019
:103BE000A41BB50B000C881F991FAA1FBB1F000C3C
:103BF000811D911DA11DB11D0895689488279927E5
:103C0000049FD001149FB00D811D059FB00D811D33
:103C1000991F16F4B7FD0196BF93069F800D911D65
:103C2000AA0B159F800D911DA040249F800D911D12
:103C3000A040A195079F900DA11DBB0B169F900D55
:103C4000A11DB040259F900DA11DB040349F900D47
:103C5000A11DB040B195179FA00DB11D269FA00DCD
:103C6000B11D359FA00DB11D279FB00D369FB00D22
:103C70000F90112408950B2E052657FF07C050956D
:103C80004095309521953F4F4F4F5F4FB7FF07C08D
:103C9000B095A095909581959F4FAF4FBF4F0E94D3
:103CA000591E969587957795679507FE08950C940C
:103CB0007F1EE0E21E2EEE27FF27BF01880F991F0F
:103CC000AA1FBB1FEE1FFF1F38F0A217B307E407A0
:103CD000F50710F4661F05C0A21BB30BE40BF50B30
:103CE000660F771F881F991F1A9451F7609570957A
:103CF00080959095089597FF08950C94871E909550
:103D00008095709561957F4F8F4F9F4F08950E94CA
:103D10007F1E23F49FE78FEF7FEF6FEF08958F9261
:103D20009F92AF92BF92CF92DF92EF92FF92CF938A
:103D3000DF93EC01688179818A819B81611571052E
:103D40008105910521F464E279ED8BE597E02DE1A1
:103D500033EF41E050E00E946C1F49015A019B0182
:103D6000AC01A7EAB1E40E94831F6B017C01ACEEB9
:103D7000B4EFA50194010E94911FDC01CB018C0DD1
:103D80009D1DAE1DBF1DB7FF03C00197A109B0481F
:103D900088839983AA83BB839F77DF91CF91FF901C
:103DA000EF90DF90CF90BF90AF909F908F9008954D
:103DB0000E948F1E089580E090E20E948F1E089559
:103DC000A0E0B0E08093002090930120A093022017
:103DD000B093032008956817790768F4FB01DC01AC
:103DE000E40FF51FA40FB51F02C002900E924150C0
:103DF0005040D8F708950C94531FBB274A3031F434
:103E0000992322F4BDE2909581959F4F0C943A1F1F
:103E1000BB272A3051F4992342F4BDE29095809556
:103E2000709561957F4F8F4F9F4F0C94181FBB2744
:103E3000FA01A62F6217710581059105330B30FB3E
:103E400066F0AA27660F771F881F991FAA1FA2175F
:103E500010F0A21B63953850A9F7A05DAA3308F0B3
:103E6000A95DA19336F7B111B1931082CA010C94E8
:103E70005C1FBB27FB015527AA27880F991FAA1F84
:103E8000A41710F0A41B83955051B9F7A05DAA3375
:103E900008F0A95DA193009779F7B111B193119240
:103EA000CB010C945C1FFB01DC0102C001900D9260
:103EB00041505040D8F70895DC01FC01672F719103
:103EC0007723E1F7329704C07C916D937083629100
:103ED000AE17BF07C8F30895052E97FB1EF4009494
:103EE0000E947F1E57FD07D00E94961F07FC03D03B
:103EF0004EF40C947F1E50954095309521953F4F80
:103F00004F4F5F4F08950E94D81DA59F900DB49FFD
:103F1000900DA49F800D911D11240895B7FF0C945E
:103F2000831F0E94831F821B930B0895A1E21A2E08
:103F3000AA1BBB1BFD010DC0AA1FBB1FEE1FFF1F4D
:103F4000A217B307E407F50720F0A21BB30BE40B9D
:103F5000F50B661F771F881F991F1A9469F76095E4
:103F60007095809590959B01AC01BD01CF0108959E
:043F7000F894FFCFF3
:103F7400637261736865642100F08E2E666C4EC6B0
:103F8400596F7520776F6E21000065F27DFBCB5A67
:103F94007FC97FFE4028707265737320746F20732D
:103FA4007461727429006279205061756C204B6CC5
:103FB400696E676572003E2000536E616B65005444
:103FC4006574726973004C616E646572004D696E4C
:103FD40065730047616D65206F66204C69666500F6
:0B3FE4004D616E64656C62726F7400CA
:043FEF0001000000CD
:02000004008278
:090000000000020000C40700002A
:00000001FF
