:100000000C9484010C94A1010C9440020C94A10165
:100010000C94A1010C94A1010C94A1010C94F80979
:100020000C94A1010C94A1010C94A1010C94A101C8
:100030000C94A1010C94A1010C94A1010C94A101B8
:100040000C94A1010C94A1010C94A1010C94A101A8
:100050000C94A1010C94A1010C94A1010C94A10198
:100060000C94A1010C94A1010C94A1010C94A10188
:100070000C94A1010C94A1010C94A10100000000BA
:1000800000000000002F000000000700070000141F
:100090007F147F1400242A7F2A120062640813232D
:1000A00000364955225000000503000000001C22C4
:1000B0004100000041221C000014083E0814000802
:1000C000083E0808000000A06000000808080808B2
:1000D000000060600000002010080402003E51494A
:1000E000453E0000427F40000042615149460021E8
:1000F00041454B31001814127F1000274545453902
:10010000003C4A494930000171090503003649495C
:10011000493600064949291E000036360000000015
:100120005636000000081422410000141414141460
:100130000000412214080002015109060032495909
:10014000513E007C1211127C007F49494936003E25
:1001500041414122007F4141221C007F49494941E0
:10016000007F09090901003E4149497A007F0808DA
:10017000087F0000417F4100002040413F01007F97
:1001800008142241007F40404040007F020C027F63
:10019000007F0408107F003E4141413E007F090975
:1001A0000906003E4151215E007F0919294600469B
:1001B000494949310001017F0101003F4040403F72
:1001C000001F2040201F003F4038403F00631408BC
:1001D0001463000708700807006151494543000097
:1001E0007F41410000552A552A55000041417F00BA
:1001F00000040201020400404040404000000102AF
:100200000400002054545478007F48444438003897
:100210004444442000384444487F0038545454181F
:1002200000087E0901020018A4A4A47C007F080431
:1002300004780000447D4000004080847D00007F01
:10024000102844000000417F4000007C041804781E
:10025000007C0804047800384444443800FC24241A
:1002600024180018242418FC007C08040408004802
:100270005454542000043F444020003C4040207C23
:10028000001C2040201C003C4030403C0044281012
:100290002844001CA0A0A07C004464544C440000EE
:1002A000087741000000006300000000417708006B
:1002B000000804080804003A4040207A003D40400D
:1002C000403D002154545479007D1211127D0039B3
:1002D00044444439003D4242423D000205020000D0
:1002E000007E01495573007C1010081CAE2000B040
:1002F000C8001040813FA1A6A83FA4D300D5F0D9E3
:1003000022DA12DB208D140011241FBECFEFCDBFE7
:10031000DFE3DEBF10E2A0E0B0E2E1EEFDE102C00B
:1003200005900D92A630B107D9F724E2A6E0B0E21D
:1003300001C01D92AD30B207E1F70E9400070C9496
:10034000B90E0C94000002980A98E2E1F4E0808172
:100350008860808380818F7780838081887F80839D
:1003600022982A98E2E3F4E08081877F808380816D
:100370008F7780838081887F808301980998E1E16D
:10038000F4E080818860808380818F7780838081A2
:10039000887F808304980C98E4E1F4E08081886091
:1003A000808380818F7780838081887F808303989A
:1003B0000B98E3E1F4E080818860808380818F770F
:1003C00080838081887F808305980D98E5E1F4E043
:1003D00080818860808380818F7780838081887F1F
:1003E000808321982998E1E3F4E08081877F8083EE
:1003F00080818F7780838081887F80832098289870
:10040000E0E3F4E08081877F808380818F77808341
:100410008081887F8083E0E0F2E010821382118285
:1004200012820895789480E0089580E00895FC0198
:1004300064BF4083089540E068ED81E690E00E944B
:10044000170280E00895E0E1F4E080818860819304
:10045000E83184E0F807C9F7E0E3F4E080818860E0
:100460008193E83384E0F807C9F7089580E00895A0
:1004700041E068ED80E890E00E94170280E0089576
:100480001F920F920FB60F9211248F9381E08093E9
:100490008A008F910F900FBE0F901F9018950E94A9
:1004A00023020E94A3010E9436020E9438020E9489
:1004B00015020E941B020E94A30B0C94120280934F
:1004C0001808909115088091150890748071892BF7
:1004D000C1F380E008959091150893709330D9F09E
:1004E000909114089B7F9093140880931708282FED
:1004F000217080FF07C08091150887FFFCCF20E0A6
:10050000822F08959091150896FDFACF90911508C5
:1005100096FFF8CFF5CF21E0822F0895FF920F9339
:100520001F93CF93DF93F82E192F062F88E70E9491
:100530006B02809115088370823059F10023C9F055
:10054000CF2DD12F015010E00F5F1F4F0C0F1D1F3B
:1005500004C02196C017D10761F0809115088370FF
:100560008230B9F788810E945F022196C017D107B7
:10057000A1F7809114088460809314088091140876
:10058000836080931408DF91CF911F910F91FF90AA
:10059000089580E00E945F02D1CFCF93DF9300D017
:1005A00000D0CDB7DEB7E6E0F4E28083618360552A
:1005B000698391E29A838B838FE78C8364E0CE0119
:1005C00001960E948E022496CDBFDEBFDF91CF91AF
:1005D0000895EF92FF920F931F93CF93DF937C01C7
:1005E0008B0188E70E946B0280911508837082302E
:1005F00041F101151105A1F0E7010E0D1F1D04C009
:100600002196C017D10761F0809115088370823060
:10061000B9F788810E945F022196C017D107A1F720
:10062000809114088460809314088091140883607A
:1006300080931408DF91CF911F910F91FF90EF905D
:10064000089580E40E945F02D4CF982F990F890FFC
:10065000880F813810F4683008F008950C94CD02AA
:100660000F931F93CF93DF9306E010E2C0E0D0E832
:10067000F8018D2F11928A95E9F76C2F80E00E9486
:10068000CD0260E870E0C8010E94E902CF5F005827
:100690001F4FC83069F760E080E0DF91CF911F9174
:1006A0000F910C94CD02CF93DF93CDB7DEB76C974B
:1006B000CDBFDEBF98E29093160893E090931308A5
:1006C0009091140898609093140890911508916087
:1006D0009093150890911508906C90931508ECEE86
:1006E000F2E0DE0111969E01245E3F4F94919D93AE
:1006F0003196A217B307D1F78C8F6CE1CE0101962A
:100700000E948E020E9430036C96CDBFDEBFDF9147
:10071000CF9108956F927F928F929F92BF92CF92C6
:10072000DF92EF92FF920F931F93CF93DF93CDB79A
:10073000DEB72C97CDBFDEBF893009F48CC068F1DD
:100740008A30C9F08D3009F059C0609107246830B3
:1007500008F4A9C02C96CDBFDEBFDF91CF911F91C9
:100760000F91FF90EF90DF90CF90BF909F908F9070
:100770007F906F90089560910724673058F78091BB
:100780000624982F990F890F880F813818F79091B8
:100790000420690F6830F0F61FC0883079F5109199
:1007A000042080910624811B982F990F890F880FB0
:1007B000813808F469C080E20E948A03809106248F
:1007C000811B982F990F890F880F813818F6609137
:1007D0000724683008F0BECF2C96CDBFDEBFDF9176
:1007E000CF911F910F91FF90EF90DF90CF90BF902E
:1007F0009F908F907F906F900C94CD02B0900624C4
:1008000099E7792E7B1408F4A5CF803208F4A2CFA3
:10081000805290910420923009F447C090910724AF
:1008200026E0829FF0011124E458FF4FAB2DB0E089
:1008300030E8939FA00DB11D1124AA5FBF4D86E043
:1008400094919D93815031968111FACF86E08B0D62
:10085000809306247FCF8091062490910420292F35
:1008600030E0220F331F220F331FB901680F711DB3
:1008700045E150E03A01621A730A6615770560F4A3
:10088000990F990F890F9DCF60910724683008F068
:1008900092CF0E94CD028FCF60910724683008F07C
:1008A00059CF8EE799CF80E097CF9E012F5F3F4FC2
:1008B000690136E0839FF0011124E458FF4F4E0197
:1008C0008DE0880E911CD601EE24E394F12C1D924C
:1008D0001C921197049110E021E030E080E090E05C
:1008E000A801082E02C0559547950A94E2F740FFEB
:1008F0001BC06D917C911197A701022E02C0440F7D
:10090000551F0A94E2F7642B752BAC01440F551F59
:10091000370102C0660C771C4A95E2F7A301462B0B
:10092000572B4D935C93119701962E5F3F4F883064
:100930009105B1F612963196A815B90541F62B2D01
:1009400030E0E0910724F0E03196F695FE2FEE2797
:10095000F795E795C901DF01A80FB91FAA5FBF4D41
:10096000E80FF91FAF014A57504EF601808191817F
:10097000F2E0CF0ED11C9C9311969C931197FA0133
:100980008083818312964E5F5F4FC814D90469F744
:100990008CE08B0D80930624DDCECF93DF93EC01AA
:1009A0008881882331F021960E948A0389918111E0
:1009B000FBCFDF91CF91089587FD1BC06034C8F451
:1009C000E62FE695E695E69590E8E99FF00111247B
:1009D000EA5FFF4DE80FF11D677081E090E001C014
:1009E000880F6A95EAF7413029F080959081892334
:1009F000808308959081892B808308955F926F9200
:100A00007F928F929F92AF92BF92CF92DF92EF929E
:100A1000FF920F931F93CF93DF93C82FD62F142FDE
:100A2000522E87FD42C047FD40C06034F0F58FE391
:100A30008217D8F1C42ED12CCC1AD108D7FC48C0CB
:100A4000C11708F442C077247A94852C912C8D1A12
:100A5000910897FC44C0AA24BB24A818B908D5154E
:100A6000D8F166246A947601E818F908402F6D2FB2
:100A70008C2F0E94DC041C17B1F0C701880F991F4E
:100A8000A816B9061CF4E818F908C70D8C159D05C1
:100A90006CF7EC0CFD1CD60D402F6D2F8C2F0E9497
:100AA000DC041C13EACF5D12E8CFDF91CF911F91D8
:100AB0000F91FF90EF90DF90CF90BF90AF909F90FD
:100AC0008F907F906F905F90089577247394BDCF3F
:100AD000D194C194D108B4CF66246394C4CF9194C7
:100AE00081949108B8CFCF92DF92EF92FF920F934B
:100AF0001F93CF93DF93D82F162FD42EC02E4817D5
:100B000028F4122F262F8D2FD42FD82EE22EF12C41
:100B1000E11AF108F7FC0FC0C0E0612F6C0F0C2D3B
:100B2000262F4D2D8D2F0E94FE04CF5F8C2F90E03D
:100B3000E816F90694F7DF91CF911F910F91FF907E
:100B4000EF90DF90CF90089560E080E00E94CD02AA
:100B500060E074E086E090E20C94E902E6E0F0E206
:100B600080E8DF01982F1D929A95E9F7E058FF4F32
:100B7000A4E2E630FA07A9F7089587FD18C06034AB
:100B8000B0F4E62FE695E695E69590E8E99FF0014A
:100B90001124EA5FFF4DE80FF11D677081E090E0DE
:100BA00001C0880F6A95EAF790818923089580E053
:100BB0000895FF920F931F93CF93DF93082F10E0B8
:100BC000C42FD0E09E01200F311F21383105ACF435
:100BD000683098F4F62E8138B0F0C80120E8F29E13
:100BE000800D911D1124BE018A5F9F4DDF91CF9131
:100BF0001F910F91FF900C94E902DF91CF911F910B
:100C00000F91FF9008950E94CD02E7CF9B01220F24
:100C1000331F620F731F229A25B12B7F35B13460C9
:100C20004FB7F89461157105C9F0FC01680F791F81
:100C3000819198E035B9000000C000C087FF25B958
:100C4000880F000000C000C000C000C025B900002F
:100C500000C09A9579F7E617F70751F74FBF8BED6C
:100C600095E00197F1F700C00000089540E06FEFB4
:100C700080E00E94DD098FEA0E94530360E087E074
:100C80000E94250386E79DE90E94CD0463E083E08E
:100C90000E9425038FE79DE90E94CD0467E086E06E
:100CA0000E94250380E99DE90E94CD040E94A405CD
:100CB0000C945C0A0F931F93CF938C010E94AE0596
:100CC000F8018181882311F1C0E013C06C2F82E00C
:100CD0000E942503F80184E0C89FE00DF11D112456
:100CE000828193810E94CD04CF5FF8018181C81772
:100CF00068F46C2F80E00E942503F80180818C133A
:100D0000E5CF80EA9DE90E94CD04E0CFCF911F910D
:100D10000F910C94A405CF93DF93CDB7DEB7A297C4
:100D2000CDBFDEBF8E010F5F1F4F82E2F80111922F
:100D30008A95E9F782E08A8383EA9DE98B839C8325
:100D40008BEB98E08D839E8389EA9DE98F8398875A
:100D500088E49BE089879A87C8010E945A0691E03F
:100D600080910B24811111C080910C2481110DC040
:100D700080910B24811128C080910C24811114C012
:100D800090E080910B24882379F380910B248823B1
:100D900029F09923C9F080910C24E2CF80910C2492
:100DA0008823F1F29111DCCF8981F80134E0839F2F
:100DB000E00DF11D11240480F581E02D0995C80195
:100DC0000E945A0691E0CCCF80910A2481110CC078
:100DD0006A8170E089819B01280F311DC90101974B
:100DE0000E949D0D8983B8CF80910A24823009F03A
:100DF000B3CF89818F5F6A810E94910D9983ACCFB7
:100E00000E944F020E9436060E948B060F93FC013F
:100E1000E757FF4F6081660F660F31978081880F1B
:100E2000880F22E0260F42E0480F6F5F01E08F5FDE
:100E30000E9473050F9108955F926F927F928F9237
:100E40009F92AF92BF92CF92DF92EF92FF920F9359
:100E50001F93CF93DF93FC01E058FF4F60807180B8
:100E60003696C081D1813497508031961081209779
:100E700009F448C07C015C0184E8A80EB11C67013C
:100E8000E5E8CE0ED11C0FC02330D1F12130B1F1F5
:100E90001F5F1F70E52DEF715E2E3401F1E06F1AB8
:100EA0007108219779F1C130D105E1F14301F1E0F9
:100EB0009F22612F660F660F23E0260F852D880F76
:100EC000880F43E0480F01E00E947305F401F69596
:100ED000E795F695E795EE0DFF1D208130E083E064
:100EE00068227724660C771C02C0359527956A9492
:100EF000E2F72370223041F61150CBCF5A94C9CF7C
:100F00005394C7CFDF91CF911F910F91FF90EF9036
:100F1000DF90CF90BF90AF909F908F907F906F9019
:100F20005F900895F5015082F6011083BFCFDC0178
:100F3000A058BF4F2D913C9111972F5F3F4FF90162
:100F4000F170ED93FC9311971A966C91F695E795D5
:100F5000F695E79523703327220F331FE80FF91F0B
:100F600043E050E0022E01C0440F0A94EAF7409596
:100F700070817423462F50E0DA0102C0AA0FBB1F14
:100F80002A95E2F79D01272B2083613029F1A0F1FA
:100F9000623091F0DC01AE57BF4F3C91633009F5F0
:100FA0003150FC01ED57FF4F2081832F8F718C93BF
:100FB000822F8F7080830895FC01ED57FF4F2081B1
:100FC0002F5FDC01AE57BF4F3C91832F8F718C9305
:100FD000822F8F7080830895DC01AE57BF4F3C9104
:100FE0003F5FFC01ED57FF4F2081832F8F718C9362
:100FF000822F8F7080830895FC01ED57FF4F208171
:101000002150DC01AE57BF4F3C91832F8F718C93E1
:10101000822F8F70808308950F931F93CF93DF9358
:10102000EC01C857DF4F8C0107571F4F15C088834D
:101030000E94110E8F70907897FD1FC0F801808379
:10104000880F880F62E0680F8881880F880F8E5F95
:101050000E94BD058823B1F00E94110E8F71907817
:1010600097FFE5CF0197806E9F6F019688830E945E
:10107000110E8F70907897FFE1CF0197806F9F6F6F
:101080000196DCCFDF91CF911F910F910895CF9200
:10109000DF92EF92FF92CF93DF93EC01BC0180E0EF
:1010A00090E00E94C30C9B01AC0160E070E088EC12
:1010B00092E40E94B50B20E030E048E453E40E9443
:1010C000220C9B01AC0160E070E088E493E40E9494
:1010D000000D6B017C01BE01660F771F6C0F7D1F39
:1010E00080E090E00E94C30C9B01AC0160E070E0E6
:1010F0008FE793E40E94210D0E94940CC62FC70134
:10110000B6010E94940C862F40E06C2FDF91CF91A6
:10111000FF90EF90DF90CF900C94DD09CF93DF9399
:10112000EC0191E090930A24FE01EA57FF4F21E081
:1011300030E02083318334971082319610823397C8
:101140001082118288818C7F816088833A96908397
:1011500081E090E00E944708CE010E940C080E94A6
:10116000AE05CE010E941C07CE010E940607DF914A
:10117000CF910C94A405EF92FF920F931F93CF93FE
:10118000DF93CDB7DEB7CE58D109CDBFDEBFCE01DC
:1011900001960E948E0882E0E82E93E0F92E63C04B
:1011A00080910A24833009F4B1C080910A2481110E
:1011B0007FC0C557DF4F8881CB58D040823009F4BB
:1011C000B7C0C557DF4F1882CB58D040CE0101962B
:1011D0000E949707CD57DF4F8881C358D040C7572B
:1011E000DF4F9881C958D040CC57DF4F6881C45831
:1011F000D040891709F46FC0660F660F880F880FFB
:101200000E94BD0581119FC00E94AE05CE010196CE
:101210000E941C07CE0101960E940607CC57DF4FA3
:101220006881C458D040CD57DF4F8881C358D04023
:101230000E94F209602F812F0E94F209C657DF4FEA
:101240006881CA58D040C757DF4F8881C958D040FD
:101250000E94F2092FE78AE196E0215080409040F9
:10126000E1F700C00000CB57DF4F1881C558D040D0
:10127000CA57DF4F0881C658D04080910A24813078
:1012800009F08ECFC557DF4F9881CB58D0409330AF
:1012900031F0C557DF4F8883CB58D04097CF80912E
:1012A0000A248330D1F180910A24882309F489CF5C
:1012B00080910A24823009F089CFC557DF4F888199
:1012C000CB58D040882309F481CFC557DF4FE8823F
:1012D000CB58D0407BCFC657DF4F9881CA58D040FB
:1012E00069138ACFC957DF4F88819981C758D04089
:1012F0000196C957DF4F88839983C758D0400E9411
:101300004708CE0101960E940C087ECFC557DF4FDB
:101310008881CB58D040813031F0C557DF4FF882FB
:10132000CB58D04053CF80910A24882309F449CF69
:1013300080910A24823009F049CFC557DF4FE882F7
:10134000CB58D04043CF0E94AE0562E086E00E94B9
:10135000250386EB9DE90E94CD044AE0BE01645757
:101360007F4FC957DF4F88819981C758D0400E946D
:10137000210E63E086E00E942503CE0184579F4F33
:101380000E94CD0483EC9DE90E94CD0465E083E0DA
:101390000E9425038FEC9DE90E94CD040E94A405C4
:1013A0000E945C0AC257DF4FCDBFDEBFDF91CF91F5
:1013B0001F910F91FF90EF900895CF93DF9300D08E
:1013C0001F92CDB7DEB78A8369834B8361E070E0FB
:1013D000CE0101960E9406062396CDBFDEBFDF91A7
:1013E000CF910895669544E0880F880F0C94D90535
:1013F0001F920F920FB60F9211248F939F931499FF
:1014000036C081E080930A24149B02C015993AC02B
:1014100091E080910B24891709F440C08091092440
:101420008F5F8093092480910924843030F582B144
:101430008695817091E0892790910C24891769F035
:10144000909108249F5F90930824909108249430F1
:1014500020F080930C241092082481E080935301A3
:101460009F918F910F900FBE0F901F901895159917
:1014700018C083E080930A24C7CF90930B24109266
:101480000924D5CF129BC4CF92B193FB992790F931
:1014900081E0982780910B248913C0CF10920924F2
:1014A000C6CF129B06C01399AFCF82E080930A2467
:1014B000ABCF10920A24A8CF80910C248111FCCFCD
:1014C00080910C248823E1F30895BF92CF92DF929C
:1014D000EF92FF920F931F93CF93DF93D82FC92FD3
:1014E0000E94AE05ED2EFC2E11E0CC24C394D12C2D
:1014F000BB24BA94B10ED1E0C0E004C0CF5FDE5F80
:10150000C03419F18C2F869586958695F701E80FE2
:10151000F11D8081282F30E08C2F8770A60102C03A
:10152000440F551F8A95E2F7CA0182239323892B22
:1015300029F301E0212F4D2F6B2D8C2F880F0E9456
:101540007305CF5FDE5FC034E9F658E0E50EF11CAD
:101550001E5F113469F6DF91CF911F910F91FF90BB
:10156000EF90DF90CF90BF900C94A4056F927F9284
:101570009F92AF92BF92CF92FF920F931F93CF9300
:10158000DF93EC01912C66246394712CA12CBB2475
:10159000BA94B90C1FEFC12C812F8A0D082E000CB4
:1015A000990B8F73907897FD57C08F739927F82EFA
:1015B000FF0C00E00130B1F06B2D600F062E000C27
:1015C000770B6F71707877FD40C06F717727660F6A
:1015D0008F2D0E94BD058111C394023031F00F5F41
:1015E000013051F71111E8CFFACF1F5F1230A1F689
:1015F0008EEF8C0D8230A8F18A2D86958695869582
:10160000FE01E80FF11D8A2D8770930102C0220FA1
:10161000331F8A95E2F7C9018095908189238083E1
:10162000A39430E4A312B6CF9394289680E2981244
:10163000ADCFDF91CF911F910F91FF90CF90BF90D1
:10164000AF909F907F906F90089561507109606E88
:101650007F6F6F5F7F4FB9CF0197806C9F6F01964F
:10166000A4CF33E0C312DCCF8A2D8695869586956C
:10167000FE01E80FF11D8A2D8770930102C0220F31
:10168000331F8A95E2F7C9019081892B8083C8CFE7
:10169000CF92DF92EF92FF920F931F93CF93DF933E
:1016A000CDB7DEB7DA95CDBFDEBF8091480190910E
:1016B00049010E94160E8E010F5F1F4F6E0181E0DF
:1016C000C80ED81E7801F8E0EF0EF11C0E94110E32
:1016D000F80181938F01EE15FF05C1F7CE16DF06E5
:1016E00089F710910C2480910C24882391F0CE016D
:1016F00001960E94650ACE0101960E94B60A809169
:101700000C24882381F3112381F080910C24811112
:10171000EECFCE0101960E94650ACE0101960E948D
:10172000B60A80910C24882361F0D395CDBFDEBF2B
:10173000DF91CF911F910F91FF90EF90DF90CF90AD
:10174000089510E0D0CF809141018111FCCF8091AC
:1017500051018111FCCF89E38093500181E0809396
:1017600052018093400180E008955058BB27AA277A
:101770000E94CD0B0C94570D0E94490D38F00E9429
:10178000500D20F039F49F3F19F426F40C94460DC7
:101790000EF4E095E7FB0C94400DE92F0E94680DD4
:1017A00058F3BA17620773078407950720F079F496
:1017B000A6F50C948A0D0EF4E0950B2EBA2FA02DF1
:1017C0000B01B90190010C01CA01A0011124FF27EE
:1017D000591B99F0593F50F4503E68F11A16F040E9
:1017E000A22F232F342F4427585FF3CF46953795E8
:1017F0002795A795F0405395C9F77EF41F16BA0BAD
:10180000620B730B840BBAF09150A1F0FF0FBB1F5A
:10181000661F771F881FC2F70EC0BA0F621F731FA3
:10182000841F48F4879577956795B795F7959E3F00
:1018300008F0B0CF9395880F08F09927EE0F979591
:10184000879508950E94360C0C94570D0E94500DF8
:1018500058F00E94490D40F029F45F3F29F00C94A4
:10186000400D51110C948B0D0C94460D0E94680D87
:1018700068F39923B1F3552391F3951B550BBB27BF
:10188000AA2762177307840738F09F5F5F4F220F04
:10189000331F441FAA1FA9F335D00E2E3AF0E0E8FB
:1018A00032D091505040E695001CCAF72BD0FE2F45
:1018B00029D0660F771F881FBB1F261737074807D9
:1018C000AB07B0E809F0BB0B802DBF01FF27935891
:1018D0005F4F3AF09E3F510578F00C94400D0C9408
:1018E0008B0D5F3FE4F3983ED4F38695779567952B
:1018F000B795F7959F5FC9F7880F911D96958795C6
:1019000097F90895E1E0660F771F881FBB1F6217E4
:1019100073078407BA0720F0621B730B840BBA0BA2
:10192000EE1F88F7E09508950E94700D88F09F578C
:1019300098F0B92F9927B751B0F0E1F0660F771FF3
:10194000881F991F1AF0BA95C9F714C0B13091F0E9
:101950000E948A0DB1E008950C948A0D672F782FAC
:101960008827B85F39F0B93FCCF3869577956795AE
:10197000B395D9F73EF490958095709561957F4F1A
:101980008F4F9F4F0895E89409C097FB3EF49095C0
:101990008095709561957F4F8F4F9F4F9923A9F048
:1019A000F92F96E9BB279395F695879577956795D7
:1019B000B795F111F8CFFAF4BB0F11F460FF1BC01B
:1019C0006F5F7F4F8F4F9F4F16C0882311F096E9AE
:1019D00011C0772321F09EE8872F762F05C066235C
:1019E00071F096E8862F70E060E02AF09A95660F15
:1019F000771F881FDAF7880F9695879597F90895CE
:101A0000092E052A3AF0621773078407950738F004
:101A10000C94B50B2617370748075907C8F7E0E8B5
:101A2000FEEF990F16161706E807F90740F0550F55
:101A300012161306E407F50710F00C948A0D0C94A7
:101A4000460D990FBB0B550FAA0BE0E8FEEF1616DB
:101A50001706E807F90770F012161306E407F507F2
:101A600060F0BA1754F031F42617370748075907C2
:101A7000A7951BF4B901CA01BA2FB6959795089599
:101A800097F99F6780E870E060E008959FEF80EC31
:101A9000089500240A9416161706180609060895D4
:101AA00000240A9412161306140605060895092E3A
:101AB0000394000C11F4882352F0BB0F40F4BF2BA9
:101AC00011F460FF04C06F5F7F4F8F4F9F4F0895E9
:101AD00057FD9058440F551F59F05F3F71F04795DF
:101AE000880F97FB991F61F09F3F79F087950895C4
:101AF000121613061406551FF2CF4695F1DF08C0E3
:101B0000161617061806991FF1CF869571056105FF
:101B100008940895E894BB2766277727CB0197F9A7
:101B20000895991B79E004C0991F961708F0961B39
:101B3000881F7A95C9F78095089597FB072E16F4AC
:101B4000009407D077FD09D00E94B10D07FC05D0A5
:101B50003EF4909581959F4F0895709561957F4FC4
:101B60000895AA1BBB1B51E107C0AA1FBB1FA617E4
:101B7000B70710F0A61BB70B881F991F5A95A9F736
:101B800080959095BC01CD0108958F929F92AF9260
:101B9000BF92CF92DF92EF92FF92CF93DF93EC014F
:101BA000688179818A819B81611571058105910523
:101BB00021F464E279ED8BE597E02DE133EF41E02C
:101BC00050E00E94560E49015A019B01AC01A7EA60
:101BD000B1E40E94750E6B017C01ACEEB4EFA5017F
:101BE00094010E94830EDC01CB018C0D9D1DAE1D66
:101BF000BF1DB7FF03C00197A109B048888399832F
:101C0000AA83BB839F77DF91CF91FF90EF90DF9006
:101C1000CF90BF90AF909F908F9008950E94C50D78
:101C2000089580E090E20E94C50D0895A0E0B0E024
:101C30008093002090930120A0930220B093032072
:101C40000895BB274A3031F4992322F4BDE29095E0
:101C500081959F4F0C942D0EBB27FB015527AA277A
:101C6000880F991FAA1FA41710F0A41B8395505129
:101C7000B9F7A05DAA3308F0A95DA193009779F7A1
:101C8000B111B1931192CB010C94460EDC01FC0111
:101C9000672F71917723E1F7329704C07C916D93A0
:101CA00070836291AE17BF07C8F30895052E97FBA6
:101CB0001EF400940E946D0E57FD07D00E94880EFE
:101CC00007FC03D04EF40C946D0E50954095309562
:101CD00021953F4F4F4F5F4F089590958095709598
:101CE00061957F4F8F4F9F4F08950E94AA0EA59F29
:101CF000900DB49F900DA49F800D911D1124089507
:101D0000B7FF0C94750E0E94750E821B930B0895FD
:101D1000A1E21A2EAA1BBB1BFD010DC0AA1FBB1FEF
:101D2000EE1FFF1FA217B307E407F50720F0A21B61
:101D3000B30BE40BF50B661F771F881F991F1A94CE
:101D400069F760957095809590959B01AC01BD01F8
:101D5000CF010895A29FB001B39FC001A39F700D52
:101D6000811D1124911DB29F700D811D1124911DA3
:061D70000895F894FFCF76
:101D76007E54696E7950437E0028707265737320B5
:101D8600746F2073746172742900627920506175D2
:101D96006C204B6C696E676572002A2000536E6179
:101DA6006B650047616D65206F66204C696665004E
:101DB60047414D45204F564552210D0A0020706F70
:101DC600696E74730D0A0D0A0028707265737320AC
:0B1DD600746F2072657475726E290036
:061DE100010000000100FA
:02000004008278
:090000000000020000C40700002A
:00000001FF
