:100000000C9484010C94A1010C946F0F0C94A10129
:100010000C94A1010C94A1010C94A1010C946E14F8
:100020000C94A1010C94A1010C94A1010C94A101C8
:100030000C94A1010C94A1010C94A1010C94A101B8
:100040000C94A1010C94A1010C94A1010C94A101A8
:100050000C94A1010C94A1010C94A1010C94A10198
:100060000C94A1010C94A1010C94A1010C94A10188
:100070000C94A1010C94A1010C94A10100000000BA
:1000800000000000002F000000000700070000141F
:100090007F147F1400242A7F2A120062640813232D
:1000A00000364955225000000503000000001C22C4
:1000B0004100000041221C000014083E0814000802
:1000C000083E0808000000A06000000808080808B2
:1000D000000060600000002010080402003E51494A
:1000E000453E0000427F40000042615149460021E8
:1000F00041454B31001814127F1000274545453902
:10010000003C4A494930000171090503003649495C
:10011000493600064949291E000036360000000015
:100120005636000000081422410000141414141460
:100130000000412214080002015109060032495909
:10014000513E007C1211127C007F49494936003E25
:1001500041414122007F4141221C007F49494941E0
:10016000007F09090901003E4149497A007F0808DA
:10017000087F0000417F4100002040413F01007F97
:1001800008142241007F40404040007F020C027F63
:10019000007F0408107F003E4141413E007F090975
:1001A0000906003E4151215E007F0919294600469B
:1001B000494949310001017F0101003F4040403F72
:1001C000001F2040201F003F4038403F00631408BC
:1001D0001463000708700807006151494543000097
:1001E0007F41410000552A552A55000041417F00BA
:1001F00000040201020400404040404000000102AF
:100200000400002054545478007F48444438003897
:100210004444442000384444487F0038545454181F
:1002200000087E0901020018A4A4A47C007F080431
:1002300004780000447D4000004080847D00007F01
:10024000102844000000417F4000007C041804781E
:10025000007C0804047800384444443800FC24241A
:1002600024180018242418FC007C08040408004802
:100270005454542000043F444020003C4040207C23
:10028000001C2040201C003C4030403C0044281012
:100290002844001CA0A0A07C004464544C440000EE
:1002A000087741000000006300000000417708006B
:1002B000000804080804003A4040207A003D40400D
:1002C000403D002154545479007D1211127D0039B3
:1002D00044444439003D4242423D000205020000D0
:1002E000007E01495573007C1010081CAE2000B040
:1002F000C8001040813FA1A6A83FA4D300D5F0D9E3
:1003000022DA12DB208D140011241FBECFEFCDBFE7
:10031000DFE3DEBF10E2A0E0B0E2E9E2F3E302C017
:1003200005900D92A630B107D9F724E2A6E0B0E21D
:1003300001C01D92AD30B207E1F70E944A140C943F
:1003400053190C9400004F925F926F927F928F929C
:100350009F92AF92BF92CF92DF92EF92FF920F9354
:100360001F93CF93DF93CDB7DEB7DA95CDBFDEBF56
:1003700080914801909149010E94B0185E0121E0EE
:10038000A20EB21E8E010F5F1F4F7801F8E0EF0E34
:10039000F11C0E94AB18F80181938F01EE16FF0645
:1003A000C1F78701AE14BF0481F750900C24EE24EE
:1003B000E394F12C80910C24811101C0512C0E94F6
:1003C000EF129E012F5F3F4F6901812C77247394B8
:1003D000780C9924939410E005C01F5F9394939434
:1003E000103421F1812F869586958695F601E80FC8
:1003F000F11D8081282F30E0812F8770A70102C076
:10040000440F551F8A95E2F7CA0182239323892B53
:1004100021F301E0272D492D682D812F880F0E949F
:10042000B4121F5F939493941034E1F658E0C50E14
:10043000D11C83948394AC14BD0441F60E94E51250
:10044000CE0101966C01412C612C77247A94740CB6
:10045000812C99249A94892D860D082E000C990BD5
:100460008F73907897FD6AC08F739927182F110F9B
:1004700000E00130B1F0672D600F062E000C770B05
:100480006F71707877FD53C06F717727660F812F7A
:100490000E94FE1281118394023031F00F5F01300F
:1004A00051F79110E8CFFACF939492E09912D3CFFD
:1004B0008EEF880D823008F446C0862D869586958D
:1004C0008695F601E80FF11D862D8770970102C011
:1004D000220F331F8A95E2F7C90180959081892305
:1004E0008083639450E46512B3CF439488E0C80ED0
:1004F000D11C90E24912A8CF80910C24882309F4E2
:1005000059CF511057CFD395CDBFDEBFDF91CF91DB
:100510001F910F91FF90EF90DF90CF90BF90AF9021
:100520009F908F907F906F905F904F900895615053
:100530007109606E7F6F6F5F7F4FA6CF0197806CF0
:100540009F6F019691CF33E08312CBCF862D869596
:1005500086958695F601E80FF11D862D8770A70117
:1005600002C0440F551F8A95E2F7CA019081892B7A
:100570008083B7CFBF92CF92DF92EF92FF920F931B
:100580001F93CF93DF93EC01688179818A819B81EE
:100590000E9491176B017C016C817D818E819F810E
:1005A0000E9491170E94FE15B62EC701B6010E9447
:1005B000FE150EEF060F8EEFE82EFF24FA94BA9484
:1005C000BA941B2DCEEFDFEFCC24DD24CE18DF084C
:1005D000CE01D7FD23C0029729F4C701F7FC23C041
:1005E000029729F041E0612F802F0E941D12219671
:1005F0001F5FC330D10561F70F5F8FEFE81AF80A6C
:1006000083E0E816F104E9F6DF91CF911F910F9195
:10061000FF90EF90DF90CF90BF90089588279927A3
:100620008C1B9D0BD8CFC601DBCF0F930E94911777
:1006300020E030E040E451E40E941A150E94FE15CB
:10064000862F49E1460F01E02FE36CE30E94B412CC
:100650000F910895CF92DF92EF92FF920F931F9325
:10066000CF93DF936C01C0E0EE24E394F12C1BEAFE
:10067000D5E103C0CF5FC831A1F18C2F8695869557
:100680008695F601E80FF11D8081282F30E08C2F30
:100690008770A70102C0440F551F8A95E2F7CA016F
:1006A00082239323892B31F3C19F612D11246695F9
:1006B0006695862F880F860F880F5C2F581B5D9FCD
:1006C000802D1124962F990F990F690F23E0260F83
:1006D00044E1480F01E08F5F0E94B412CF5FC83140
:1006E00061F6DF91CF911F910F91FF90EF90DF9016
:1006F000CF9008954F925F926F927F928F929F92C8
:10070000AF92BF92CF92DF92EF92FF92CF93DF939F
:10071000EC0188849984AA84BB84CC84DD84EE8433
:10072000FF84A5019401C501B4010E9424172B0187
:100730003C01A7019601C701B6010E9424179B0145
:10074000AC01C301B2010E941B150E94BB179B01A3
:10075000AC01688979898A899B890E948C152B0153
:100760003C019B01AC01C501B4010E9424176887BC
:1007700079878A879B87A3019201C701B6010E94EE
:1007800024176C877D878E879F87DF91CF91FF909D
:10079000EF90DF90CF90BF90AF909F908F907F9021
:1007A0006F905F904F9008958F929F92AF92BF92FB
:1007B000EF92FF920F931F93CF93DF93CDB7DEB7E6
:1007C000E697CDBFDEBF7C018E010F5D1F4F86E136
:1007D000F80111928A95E9F7812C912C80E8A82ED6
:1007E00082E4B82E89A29AA2ABA2BCA280E090E0DB
:1007F000A8E6B2E48DA39EA3AFA3B8A780E090E0E3
:10080000A0E4B0E489A79AA7ABA7BCA780E090E0DA
:10081000A0E2B1EC8DA79EA7AFA7B8AB80E090E0B7
:10082000A0E8BFE389AB9AABABABBCABC8010E94FD
:100830007A0386E1F801DE01119601900D928A9506
:10084000E1F78F8A988EA98EBA8E2FEF3FEF2B8F0C
:100850003C8F8FEF8D8F2E8F3F8F88A380E2FE011C
:100860003196D70101900D928A95E1F7C701E6967E
:10087000CDBFDEBFDF91CF911F910F91FF90EF9021
:10088000BF90AF909F908F9008952F923F924F927C
:100890005F926F927F928F929F92AF92BF92CF9210
:1008A000DF92EF92FF920F931F93CF93DF93CDB719
:1008B000DEB7C157D109CDBFDEBFCE0101960E9480
:1008C000D4030E94EF12CE014B960E942A03CE0160
:1008D00001960E94BA026F89788D898D9A8D0E9447
:1008E00015030E94E5120E94D21480910C248111FC
:1008F000FCCFE2961FAEE2970E94EF1280910B248C
:10090000882329F080910A24833009F4F7C6BF892F
:10091000AA96BFAFAA97E88DAB96EFAFAB97F98DCC
:10092000AC96FFAFAC972A8DAD962FAFAD976B2FDE
:100930007E2F8F2F922F0E949117E1966CAF7DAF83
:100940008EAF9FAFE19780910B24882329F080918F
:100950000A24813009F427C7C980DA80EB80FC8043
:10096000C701B6010E9491170E94FE156D8B8D8004
:100970009E80AF80B884C501B4010E94911720E029
:1009800030E040E050E40E941A1520E030E040E002
:100990005EE30E9424170E94FE156E8B49845A84E0
:1009A0006B847C84A3019201C701B6010E941B15D0
:1009B000362E272E8C01862F922DD80189839A837B
:1009C000AB83BC83CD84DE84EF84F888A7019601D5
:1009D000C501B4010E941B1522966FAF2297239682
:1009E0007FAF239724968FAF249725969FAF2597A7
:1009F000CB012496AFAD24972596BFAD25978D8367
:100A00009E83AF83B88720E030E040E250E4632D5E
:100A1000722DC8010E94871587FDD2C520E030E005
:100A20004BEF52E4632D722DC8010E941F17181658
:100A30000CF413C620E030E040E250E422966FADA3
:100A4000229723967FAD239724968FAD24972596E2
:100A50009FAD25970E94871587FF49C020E030E0B1
:100A600040E250E422966FAD229723967FAD239704
:100A700024968FAD249725969FAD25970E941A1531
:100A8000A70196010E948C15A30192010E942417D0
:100A90009B01AC01632D722DC8010E941A15362EE0
:100AA000272E462F572FBC0149835A836B837C83A3
:100AB00040E050E060E270E44D835E836F837887AE
:100AC000F7FAF094F7F8F094CD86DE86EF86F88A90
:100AD0008C0122961FAE229723961FAE239780E2A9
:100AE00024968FAF249790E425969FAF259726965E
:100AF0001FAE269715C020E030E040E250E4632DA1
:100B0000722DC8010E941B152B013C0126962FADAA
:100B100026972F5F26962FAF2697283109F479C2A2
:100B200026968FAD26978695869586959BE1892E8C
:100B3000912C8C0E9D1E880E911CD401DC90269663
:100B40008FAD26978770AA24A394B12C02C0AA0C5B
:100B5000BB1C8A95E2F78D2D90E08A219B21892B81
:100B600051F22696BFAD2697EBEABE9FE12C1124E9
:100B7000E694E6948E2D880F8E0D880FFB2EF81AC2
:100B8000F5E1FF9EF02C112420E030E040E250E43B
:100B9000632D722DC8010E941B152B013C0161E0E1
:100BA0006F0D70E080E090E00E942F1661966CAFB0
:100BB0007DAF8EAF9FAF61979B01AC01C301B201C6
:100BC0000E941F1718160CF0A1CF64E16F0D70E0A2
:100BD00080E090E00E942F162D966CAF7DAF8EAF17
:100BE0009FAF2D9720E030E040E250E4632D722D5E
:100BF000C8010E941A152D962CAD3DAD4EAD5FADCE
:100C00002D970E94871587FF81CF6E2D660F660F87
:100C1000E60E6E2D70E080E090E00E942F166D963B
:100C20006CAF7DAF8EAF9FAF6D9720E030E040E2BC
:100C300050E422966FAD229723967FAD239724969A
:100C40008FAD249725969FAD25970E941B156D9615
:100C50002CAD3DAD4EAD5FAD6D970E941F171816C0
:100C60000CF054CF63E06E0D70E080E090E00E94E5
:100C70002F16A1966CAF7DAF8EAF9FAFA19720E0EE
:100C800030E040E250E422966FAD229723967FAD8C
:100C9000239724968FAD249725969FAD25970E9484
:100CA0001A15A1962CAD3DAD4EAD5FADA1970E943A
:100CB000871587FF2BCFA094DA20F401D0823980EA
:100CC0002A800B811C8189859A85AB85BC85A59678
:100CD0008CAF9DAFAEAFBFAFA59720E030E040E254
:100CE00051E4BC01CD010E948C1565966CAF7DAFBF
:100CF0008EAF9FAF65979D8122969FAF2297AE8161
:100D00002396AFAF2397BF812496BFAF2497E88582
:100D10002596EFAF25978D859E85AF85B889A996D5
:100D20008CAF9DAFAEAFBFAFA99720E030E040E2FF
:100D300051E4BC01CD010E948C1569966CAF7DAF6A
:100D40008EAF9FAF699765962CAD3DAD4EAD5FAD53
:100D50006597632D722DC8010E941A15362E272E15
:100D60008C0169962CAD3DAD4EAD5FAD6997229675
:100D70006FAD229723967FAD239724968FAD24974E
:100D800025969FAD25970E941A1522966FAF229740
:100D900023967FAF239724968FAF249725969FAFF6
:100DA000259720E030E040E250E4632D722DC80129
:100DB0000E941B152B013C019B01AC0161966CAD9F
:100DC0007DAD8EAD9FAD61970E94871587FFC8C02E
:100DD00020E030E040E250E4632D722DC8010E9413
:100DE0001A156B017C019B01AC012D966CAD7DAD9C
:100DF0008EAD9FAD2D970E941F1718160CF0E7C0FF
:100E000020E030E040E250E422966FAD2297239636
:100E10007FAD239724968FAD249725969FAD259778
:100E20000E941B159B01AC016D966CAD7DAD8EAD26
:100E30009FAD6D970E94871587FFC9C020E030E005
:100E400040E250E422966FAD229723967FAD239720
:100E500024968FAD249725969FAD25970E941A154D
:100E60004B015C019B01AC01A1966CAD7DAD8EADDB
:100E70009FADA1970E941F1718160CF464CF832D05
:100E8000922DD80189839A83AB83BC8322968FAD40
:100E9000229723969FAD23972496AFAD249725964E
:100EA000BFAD25978D839E83AF83B887A701960139
:100EB0002D966CAD7DAD8EAD9FAD2D970E948715A3
:100EC00087FD0CC0A301920161966CAD7DAD8EAD26
:100ED0009FAD61970E941F1718165CF4A5968CAD04
:100EE0009DADAEADBFADA597B05889879A87AB874A
:100EF000BC87A5019401A1966CAD7DAD8EAD9FAD73
:100F0000A1970E94871587FD1FC020E030E040E2D6
:100F100050E422966FAD229723967FAD23972496B7
:100F20008FAD249725969FAD25970E941B159B0199
:100F3000AC016D966CAD7DAD8EAD9FAD6D970E9491
:100F40001F1718160CF0E2CDA9968CAD9DADAEAD75
:100F5000BFADA997B0588D879E87AF87B88BD6CD88
:100F6000832D922DD80189839A83AB83BC832296EB
:100F70008FAD229723969FAD23972496AFAD2497EC
:100F80002596BFAD25978D839E83AF83B88720E0DC
:100F900030E040E250E4632D722DC8010E941A1522
:100FA0006B017C0120E030E040E250E422966FAD1E
:100FB000229723967FAD239724968FAD249725966D
:100FC0009FAD25970E941A154B015C016FCF832DB1
:100FD000922DD80189839A83AB83BC8322968FADEF
:100FE000229723969FAD23972496AFAD24972596FD
:100FF000BFAD25978D839E83AF83B88720E030E017
:1010000040E250E4BC01CD010E941A154B015C0185
:101010004DCF20E030E040E451E4E1966CAD7DAD91
:101020008EAD9FADE1970E941A150E94FE1570E0EB
:1010300080E090E00E942F164B015C01A301920119
:101040000E94871587FF62C120E030E040E451E450
:10105000E1966CAD7DAD8EAD9FADE1970E941B1505
:101060000E94FE1570E080E090E00E942F166196CD
:101070006CAF7DAF8EAF9FAF619720E030E040E274
:1010800050E4632D722DC8010E941A1561962CAD93
:101090003DAD4EAD5FAD61970E94871587FF36C1AC
:1010A00020E030E040E250E422966FAD2297239694
:1010B0007FAD239724968FAD249725969FAD2597D6
:1010C0000E941B1520E030E040E752E40E941F1709
:1010D00018160CF01BC120E030E040E250E42296EC
:1010E0006FAD229723967FAD239724968FAD2497DB
:1010F00025969FAD25970E941A1520E030E04CE719
:1011000052E40E94871587FF01C189859A85AB85C6
:10111000BC8529968CAF9DAFAEAFBFAF299720E0BD
:1011200030E040E251E4BC01CD010E948C152B015E
:101130003C018D859E85AF85B8892D968CAF9DAF7E
:10114000AEAFBFAF2D9720E030E040E251E4BC01EC
:10115000CD010E948C156B017C01A3019201632DCE
:10116000722DC8010E941A15362E272E8C01A70158
:10117000960122966FAD229723967FAD23972496F2
:101180008FAD249725969FAD25970E941A1522961C
:101190006FAF229723967FAF239724968FAF249724
:1011A00025969FAF259720E030E040E250E4632D84
:1011B000722DC8010E941B159B01AC01C501B40131
:1011C0000E94871587FF49C020E030E040E250E4EC
:1011D000632D722DC8010E941A159B01AC01619606
:1011E0006CAD7DAD8EAD9FAD61970E941F17181637
:1011F000A4F520E030E040E250E422966FAD229763
:1012000023967FAD239724968FAD249725969FAD87
:1012100025970E941B1520E030E040E752E40E9431
:101220001F171816D4F420E030E040E250E4229674
:101230006FAD229723967FAD239724968FAD249789
:1012400025969FAD25970E941A1520E030E04CE7C7
:1012500052E40E94871587FD80CF832D922DD801FF
:1012600089839A83AB83BC8322968FAD2297239682
:101270009FAD23972496AFAD24972596BFAD2597B4
:101280008D839E83AF83B8872D968CAD9DADAEAD1B
:10129000BFAD2D97B0588D879E87AF87B88BAA9624
:1012A0002FADAA97AB963FADAB97AC964FADAC9731
:1012B000AD965FADAD97632D722DC8010E941A15D2
:1012C00020E030E048EC51E40E948C1529962CADCA
:1012D0003DAD4EAD5FAD29970E941B1569877A879A
:1012E0008B879C87CE0101960E947A039D8122966E
:1012F0009FAF2297AE812396AFAF2397BF812496ED
:10130000BFAF2497E8852596EFAF259720E030E022
:1013100046E752E422966FAD229723967FAD23973E
:1013200024968FAD249725969FAD25970E941F1771
:1013300018160CF459C2CE014B960E942A03CE0116
:1013400001960E94BA026F89788D898D9A8D0E94CC
:1013500015036D817E818F8198850E94911720E011
:1013600030E040E050E40E941A1520E030E040E018
:101370005EE30E9424170E94FE15162F69817A8170
:101380008B819C810E94911720E030E040E050E486
:101390000E941A150E94FE15862F45E0612F0E94BB
:1013A0001A1369817A818B819C810E9491171F5F3A
:1013B00020E030E040E050E40E941A150E94FE1543
:1013C000862F45E0612F0E941A138D8945E06E89B2
:1013D00082500E941A136E896F5F8D8945E082509A
:1013E0000E941A136F89788D898D9A8D0E949117AA
:1013F00020E030E040E451E40E941A150E94FE15FE
:1014000070E080E090E00E942F166B017C0120E0EC
:1014100030E040E850E40E94871587FD1CC120E0C1
:1014200030E040E850E4C701B6010E941A150E945E
:10143000FE15862F42E267E00E941A1300E0E29652
:10144000FFACE29704C00F5F083109F4A6C0802FFB
:1014500086958695869590E0202F277041E050E094
:1014600002C0440F551F2A95E2F7EEE1F0E0EC0FC1
:10147000FD1FE80FF91F208130E02423352361E0B0
:10148000232B09F460E0EBE1F0E0EC0FFD1FE80F27
:10149000F91F808190E04823592381E0452B09F40E
:1014A00080E0681781F2ABEA0A9F912D112496958E
:1014B0009695892F880F890F880FE02EE81AB5E1DD
:1014C000EB9EE02C1124E394192F110F110F190F2B
:1014D000D12ED694D694D69444E16D2D8E2D0E94B3
:1014E0001A1363E0610F669566956695D61621F02E
:1014F00044E18E2D0E941A1323E333E343E85FE3B4
:1015000069897A898B899C890E942417698B7A8BD7
:101510008B8B9C8BCE0101960E947A03F394EBEAAD
:10152000FE9E812D112482958F70FF2D28E1829FD0
:10153000F0191124F11187CF65E082E00E94661056
:101540008AEA92EB0E940E120E94E5120E94D214C7
:1015500089889A88AB88BC88CE0181960E94D40382
:1015600080E2FE01B196DE01119601900D928A95FE
:10157000E1F7898A9A8AAB8ABC8ACE0101960E94D9
:101580007A030E947110CE014B960E942A030E949A
:10159000E5120F5F083109F05ACFE296FFAEE297ED
:1015A0008FEF99EFA0E081509040A040E1F700C09C
:1015B00000008B8D9C8DAD8D8E8F9F8FA8A39CC9B5
:1015C00020E030E040E250E4632D722DC8010E941B
:1015D0001A15A30192010E948C15A70196010E9481
:1015E00024179B01AC0122966FAD229723967FAD05
:1015F000239724968FAD249725969FAD25970E941B
:101600001A15362F272F462F572FBC014D835E8387
:101610006F83788740E050E060E270E449835A834A
:101620006B837C8377FA709477F8709449865A8636
:101630006B867C8622963FAF229723962FAF239707
:1016400024968FAF249725969FAF2597312C212C78
:1016500000E210E44CCA80E0EDCE20E030E040E053
:1016600053E4632D722DC8010E941A1520E030E06A
:1016700040E250E40E941B15A30192010E948C15C8
:10168000A70196010E9424179B01AC0122966FAD21
:10169000229723967FAD239724968FAD2497259686
:1016A0009FAD25970E941A15362F272F462F572FAB
:1016B000BC014D835E836F83788740E050E06BEF21
:1016C00072E449835A836B837C8377FA709477F84A
:1016D000709449865A866B867C8622963FAF229705
:1016E00023962FAF239724968FAF249725969FAFED
:1016F0002597312C212C0BEF12E4F9C92F89AA96DA
:101700002FAFAA97888DAB968FAFAB97998DAC967C
:101710009FAFAC97AA8DAD96AFAFAD97622F782FE4
:10172000892F9A2F0E949117E1966CAF7DAF8EAFF3
:101730009FAFE19720E030E048E751E40E941F1797
:1017400018160CF000C920E030E040E650E4AA96FC
:101750006FADAA97AB967FADAB97AC968FADAC97BC
:10176000AD969FADAD970E941A157B018C01CB0100
:10177000D8018F8B988FA98FBA8FC8010E949117BB
:10178000E1966CAF7DAF8EAF9FAFE197AA96EFAEBB
:10179000AA97AB96FFAEAB97AC960FAFAC97AD9652
:1017A0001FAFAD97D9C820E030E04FED52E4E1968D
:1017B0006CAD7DAD8EAD9FADE1970E94871587FF23
:1017C000CBC820E030E040E650E4AA966FADAA977F
:1017D000AB967FADAB97AC968FADAC97AD969FAD0A
:1017E000AD970E941B15C1CFE2968FADE2970E9484
:1017F000DB14CF58DF4FCDBFDEBFDF91CF911F91FC
:101800000F91FF90EF90DF90CF90BF90AF909F909F
:101810008F907F906F905F904F903F902F900895A2
:10182000CF92DF92EF92FF92CF93DF93EC01BC0156
:1018300080E090E00E942D169B01AC0160E070E01A
:1018400088EC92E40E941A1520E030E048E453E46A
:101850000E948C159B01AC0160E070E088E493E489
:101860000E946A166B017C01BE01660F771F6C0F28
:101870007D1F80E090E00E942D169B01AC0160E08E
:1018800070E08FE793E40E948B160E94FE15C62F2E
:10189000C701B6010E94FE15862F40E06C2FDF9134
:1018A000CF91FF90EF90DF90CF900C9453145F9204
:1018B0006F927F928F929F92AF92BF92CF92DF9260
:1018C000EF92FF920F931F93CF93DF93FC01E058A9
:1018D000FF4F608071803696C081D18134975080EF
:1018E00031961081209709F448C07C015C0184E89E
:1018F000A80EB11C6701E5E8CE0ED11C0FC0233045
:10190000D1F12130B1F11F5F1F70E52DEF715E2E17
:101910003401F1E06F1A7108219779F1C130D105D6
:10192000E1F14301F1E09F22612F660F660F23E092
:10193000260F852D880F880F43E0480F01E00E9495
:10194000B412F401F695E795F695E795EE0DFF1DB7
:10195000208130E083E068227724660C771C02C087
:10196000359527956A94E2F72370223041F611509D
:10197000CBCF5A94C9CF5394C7CFDF91CF911F914A
:101980000F91FF90EF90DF90CF90BF90AF909F901E
:101990008F907F906F905F900895F5015082F601CF
:1019A0001083BFCF0F931F93CF93DF93EC018B0175
:1019B00015C088830E94AB188F70907897FD1FC068
:1019C000F8018083880F880F62E0680F8881880F94
:1019D000880F8E5F0E94FE128823B1F00E94AB1820
:1019E0008F71907897FFE5CF0197806E9F6F01967A
:1019F00088830E94AB188F70907897FFE1CF019792
:101A0000806F9F6F0196DCCFDF91CF911F910F9177
:101A100008950F93660F660F880F880F22E0260F38
:101A200042E0480F6F5F01E08F5F0E94B4120F9198
:101A30000895EF92FF920F931F93CF93DF93CDB74B
:101A4000DEB7CB58D109CDBFDEBF91E090930A2419
:101A500021E030E0C957DF4F28833983C758D04091
:101A6000CD57DF4F1882C358D040CC57DF4F188274
:101A7000C458D040CF57DF4F18821982C158D04088
:101A800089818C7F81608983C557DF4F9883CB58CC
:101A9000D04081E090E00E94100CBE0166577F4F5D
:101AA000CE0187579F4F0E94D20C0E94EF12CE01A9
:101AB00001960E94570CC657DF4F6881CA58D04024
:101AC000C757DF4F8881C958D0400E94090D0E9436
:101AD000E51272E0E72EE3E0FE2EAFC080910A240B
:101AE000C557DF4F2881CB58D040833009F4FAC066
:101AF00080910A248111EBC0223009F417C1C55727
:101B0000DF4F1882CB58D04040E050E020E0CF5764
:101B1000DF4F88819981C158D0400196FC01F17056
:101B2000CF57DF4FE883F983C158D040F695E7954A
:101B3000F695E79583709927880F991F61E070E00B
:101B40006C0F7D1FE60FF71F63E070E0082E01C0E9
:101B5000660F0A94EAF760959081692301C0440FEB
:101B60008A95EAF7462B4083213009F485C008F4B2
:101B7000D1C0223009F4C2C0CD57DF4F8881C3588D
:101B8000D040233009F07EC08150CC57DF4F6881B0
:101B9000C458D0408F71CD57DF4F8883C358D04091
:101BA0006F70CC57DF4F6883C458D040C757DF4FA2
:101BB0009881C958D040981709F46AC0660F660F1B
:101BC000880F880F0E94FE128111B7C00E94EF1289
:101BD000CE0101960E94570CC657DF4F6881CA5844
:101BE000D040C757DF4F8881C958D0400E94090DA7
:101BF000CC57DF4F6881C458D040CD57DF4F888124
:101C0000C358D0400E946814602F812F0E9468142E
:101C1000C657DF4F6881CA58D040C757DF4F888109
:101C2000C958D0400E9468147FE78AE196E071505D
:101C300080409040E1F700C00000CB57DF4F188193
:101C4000C558D040CA57DF4F0881C658D0402091B0
:101C50000A24213009F042CFC557DF4F8881CB5885
:101C6000D040833009F47BC0C557DF4F2883CB5861
:101C7000D04041E050E04BCFCD57DF4F8881C35873
:101C8000D0408F5FCC57DF4F6881C458D04082CF9F
:101C9000C657DF4F9881CA58D04096138FCFC95787
:101CA000DF4F88819981C758D0400196C957DF4FCF
:101CB00088839983C758D0400E94100CBE01665794
:101CC0007F4FCE0187579F4F0E94D20C7FCF8091CC
:101CD0000A24823011F0422F1ACF21115AC040E05D
:101CE00050E015CF213009F44AC0C557DF4FF882C4
:101CF000CB58D04043E050E023E009CFCC57DF4F32
:101D00006881C458D0406F5FCD57DF4F8881C3587A
:101D1000D04040CFCC57DF4F6881C458D04061508D
:101D2000CD57DF4F8881C358D04034CF80910A24EB
:101D3000823079F142E050E0EACEC957DF4F888126
:101D4000C758D0400E94DB14C557DF4FCDBFDEBF60
:101D5000DF91CF911F910F91FF90EF9008958091A7
:101D60000A24833011F280910A24882309F4C7CE13
:101D700080910A24823069F023E0422FC8CE8091FE
:101D80000A24882309F4BBCE80910A24823009F00A
:101D9000A2CFC557DF4FE882CB58D04042E050E099
:101DA00022E0B5CE02980A98E2E1F4E080818860F2
:101DB000808380818F7780838081887F8083229851
:101DC0002A98E2E3F4E08081877F808380818F77A7
:101DD00080838081887F808301980998E1E1F4E025
:101DE00080818860808380818F7780838081887FF5
:101DF000808304980C98E4E1F4E08081886080831B
:101E000080818F7780838081887F808303980B987F
:101E1000E3E1F4E080818860808380818F77808334
:101E20008081887F808305980D98E5E1F4E08081CA
:101E30008860808380818F7780838081887F8083A2
:101E400021982998E1E3F4E08081877F8083808175
:101E50008F7780838081887F808320982898E0E333
:101E6000F4E08081877F808380818F778083808189
:101E7000887F8083E0E0F2E0108213821182128278
:101E80000895789480E0089580E00895FC0164BF8F
:101E90004083089540E068ED81E690E00E94460F9F
:101EA00080E00895E0E1F4E0808188608193E8318A
:101EB00084E0F807C9F7E0E3F4E08081886081936B
:101EC000E83384E0F807C9F7089580E0089541E019
:101ED00068ED80E890E00E94460F80E008951F9230
:101EE0000F920FB60F9211248F9381E080938A0096
:101EF0008F910F900FBE0F901F9018958091410108
:101F00008111FCCF809151018111FCCF89E3809335
:101F1000500181E0809352018093400180E0089558
:101F20000E94520F0E94D20E0E94650F0E94670FFE
:101F30000E94440F0E944A0F0E947E0F0C94410F92
:101F400080931808909115088091150890748071FD
:101F5000892BC1F380E00895909115089370933018
:101F6000D9F0909114089B7F9093140880931708E0
:101F7000282F217080FF07C08091150887FFFCCFB4
:101F800020E0822F08959091150896FDFACF909148
:101F9000150896FFF8CFF5CF21E0822F0895FF9224
:101FA0000F931F93CF93DF93F82E192F062F88E7F7
:101FB0000E94AC0F809115088370823059F1002384
:101FC000C9F0CF2DD12F015010E00F5F1F4F0C0F24
:101FD0001D1F04C02196C017D10761F0809115081C
:101FE00083708230B9F788810E94A00F2196C017B4
:101FF000D107A1F780911408846080931408809120
:102000001408836080931408DF91CF911F910F9182
:10201000FF90089580E00E94A00FD1CFCF93DF936F
:1020200000D000D0CDB7DEB7E6E0F4E28083618374
:102030006055698391E29A838B838FE78C8364E098
:10204000CE0101960E94CF0F2496CDBFDEBFDF9157
:10205000CF910895EF92FF920F931F93CF93DF9349
:102060007C018B0188E70E94AC0F8091150883707A
:10207000823041F101151105A1F0E7010E0D1F1D80
:1020800004C02196C017D10761F0809115088370B4
:102090008230B9F788810E94A00F2196C017D1071E
:1020A000A1F780911408846080931408809114082B
:1020B000836080931408DF91CF911F910F91FF905F
:1020C000EF90089580E40E94A00FD4CF982F990F2D
:1020D000890F880F813810F4683008F008950C9447
:1020E0000E100F931F93CF93DF9306E010E2C0E032
:1020F000D0E8F8018D2F11928A95E9F76C2F80E0D6
:102100000E940E1060E870E0C8010E942A10CF5FA4
:1021100000581F4FC83069F760E080E0DF91CF9131
:102120001F910F910C940E10CF93DF93CDB7DEB7B4
:102130006C97CDBFDEBF98E29093160893E0909322
:1021400013089091140898609093140890911508C2
:1021500091609093150890911508906C90931508D4
:10216000ECEEF2E0DE0111969E01245E3F4F949169
:102170009D933196A217B307D1F78C8F6CE1CE01F6
:1021800001960E94CF0F0E9471106C96CDBFDEBFEA
:10219000DF91CF9108956F927F928F929F92BF921D
:1021A000CF92DF92EF92FF920F931F93CF93DF9323
:1021B000CDB7DEB72C97CDBFDEBF893009F48CC018
:1021C00068F18A30C9F08D3009F059C06091072458
:1021D000683008F4A9C02C96CDBFDEBFDF91CF9147
:1021E0001F910F91FF90EF90DF90CF90BF909F9045
:1021F0008F907F906F90089560910724673058F713
:1022000080910624982F990F890F880F813818F72D
:1022100090910420690F6830F0F61FC0883079F57E
:102220001091042080910624811B982F990F890F0B
:10223000880F813808F469C080E20E94CB10809139
:102240000624811B982F990F890F880F813818F663
:1022500060910724683008F0BECF2C96CDBFDEBF5A
:10226000DF91CF911F910F91FF90EF90DF90CF9072
:10227000BF909F908F907F906F900C940E10B090B5
:10228000062499E7792E7B1408F4A5CF803208F450
:10229000A2CF805290910420923009F447C09091CF
:1022A000072426E0829FF0011124E458FF4FAB2D54
:1022B000B0E030E8939FA00DB11D1124AA5FBF4D7F
:1022C00086E094919D93815031968111FACF86E0FA
:1022D0008B0D809306247FCF80910624909104205B
:1022E000292F30E0220F331F220F331FB901680F4F
:1022F000711D45E150E03A01621A730A66157705CF
:1023000060F4990F990F890F9DCF60910724683071
:1023100008F092CF0E940E108FCF60910724683092
:1023200008F059CF8EE799CF80E097CF9E012F5FBD
:102330003F4F690136E0839FF0011124E458FF4FBD
:102340004E018DE0880E911CD601EE24E394F12C11
:102350001D921C921197049110E021E030E080E082
:1023600090E0A801082E02C0559547950A94E2F71F
:1023700040FF1BC06D917C911197A701022E02C0F6
:10238000440F551F0A94E2F7642B752BAC01440FE0
:10239000551F370102C0660C771C4A95E2F7A3016E
:1023A000462B572B4D935C93119701962E5F3F4F11
:1023B00088309105B1F612963196A815B90541F607
:1023C0002B2D30E0E0910724F0E03196F695FE2FBA
:1023D000EE27F795E795C901DF01A80FB91FAA5F9E
:1023E000BF4DE80FF91FAF014A57504EF6018081EB
:1023F0009181F2E0CF0ED11C9C9311969C93119782
:10240000FA018083818312964E5F5F4FC814D9040E
:1024100069F78CE08B0D80930624DDCECF93DF939C
:10242000EC018881882331F021960E94CB1089919C
:102430008111FBCFDF91CF91089587FD1BC06034E0
:10244000C8F4E62FE695E695E69590E8E99FF00159
:102450001124EA5FFF4DE80FF11D677081E090E005
:1024600001C0880F6A95EAF7413029F08095908184
:102470008923808308959081892B808308955F92BA
:102480006F927F928F929F92AF92BF92CF92DF9284
:10249000EF92FF920F931F93CF93DF93C82FD62F06
:1024A000142F522E87FD42C047FD40C06034F0F526
:1024B0008FE38217D8F1C42ED12CCC1AD108D7FCC7
:1024C00048C0C11708F442C077247A94852C912C17
:1024D0008D1A910897FC44C0AA24BB24A818B908F7
:1024E000D515D8F166246A947601E818F908402FCA
:1024F0006D2F8C2F0E941D121C17B1F0C701880F81
:10250000991FA816B9061CF4E818F908C70D8C1510
:102510009D056CF7EC0CFD1CD60D402F6D2F8C2FFC
:102520000E941D121C13EACF5D12E8CFDF91CF91FC
:102530001F910F91FF90EF90DF90CF90BF90AF90E1
:102540009F908F907F906F905F9008957724739401
:10255000BDCFD194C194D108B4CF66246394C4CFC5
:10256000919481949108B8CFCF92DF92EF92FF922D
:102570000F931F93CF93DF93D82F162FD42EC02EF7
:10258000481728F4122F262F8D2FD42FD82EE22E65
:10259000F12CE11AF108F7FC0FC0C0E0612F6C0FBD
:1025A0000C2D262F4D2D8D2F0E943F12CF5F8C2F8B
:1025B00090E0E816F90694F7DF91CF911F910F9103
:1025C000FF90EF90DF90CF90089560E080E00E9450
:1025D0000E1060E074E086E090E20C942A10E6E0D1
:1025E000F0E280E8DF01982F1D929A95E9F7E05814
:1025F000FF4FA4E2E630FA07A9F7089587FD18C057
:102600006034B0F4E62FE695E695E69590E8E99F0C
:10261000F0011124EA5FFF4DE80FF11D677081E0C2
:1026200090E001C0880F6A95EAF7908189230895A8
:1026300080E00895EF92FF921F93CF93DF93162FC0
:10264000683018F587FD21C0E82EF12CC42FD0E0AA
:102650009E012E0D3F1D2138310524F040E8481B16
:10266000C42FD0E0612F0E940E10C70120E8129FF6
:10267000800D911D1124BE018A5F9F4DDF91CF9186
:102680001F91FF90EF900C942A10DF91CF911F9132
:10269000FF90EF9008959B01220F331F620F731F6D
:1026A000229A25B12B7F35B134604FB7F89461156C
:1026B0007105C9F0FC01680F791F819198E035B967
:1026C000000000C000C087FF25B9880F000000C0CF
:1026D00000C000C000C025B9000000C09A9579F77D
:1026E000E617F70751F74FBF8BED95E00197F1F72C
:1026F00000C00000089540E06FEF80E00E94531496
:1027000060E087E00E94661085EB92EB0E940E125B
:1027100063E083E00E9466108EEB92EB0E940E1243
:1027200067E086E00E9466108FEC92EB0E940E122A
:102730000E94E5120C94D2140F931F93CF938C0137
:102740000E94EF12F8018181882311F1C0E013C0CB
:102750006C2F82E00E946610F80184E0C89FE00DB3
:10276000F11D1124828193810E940E12CF5FF80126
:102770008181C81768F46C2F80E00E946610F80110
:1027800080818C13E5CF8FED92EB0E940E12E0CF8B
:10279000CF911F910F910C94E512CF93DF93CDB79A
:1027A000DEB7A297CDBFDEBF8E010F5F1F4F82E263
:1027B000F80111928A95E9F783E08A8382EE92EB21
:1027C0008B839C8389E19DE08D839E8388EE92EBD1
:1027D0008F83988783EA91E089879A8785EF92EBC8
:1027E0008B879C8785E494E08D879E87C8010E9433
:1027F0009C1391E080910B24811111C080910C24D5
:1028000081110DC080910B24811128C080910C246E
:10281000811114C090E080910B24882379F380917A
:102820000B24882329F09923C9F080910C24E2CF4E
:1028300080910C248823F1F29111DCCF8981F80179
:1028400034E0839FE00DF11D11240480F581E02D1B
:102850000995C8010E949C1391E0CCCF80910A2475
:1028600081110CC06A8170E089819B01280F311DA4
:10287000C90101970E9437188983B8CF80910A2433
:10288000823009F0B3CF89818F5F6A810E942B1853
:102890009983ACCF0E94900F8FEA0E9494100E94FF
:1028A0007B130E94CD13CF93DF9300D01F92CDB73F
:1028B000DEB78A8369834B8361E070E0CE010196C5
:1028C0000E944B132396CDBFDEBFDF91CF910895B9
:1028D000669544E0880F880F0C941A131F920F928C
:1028E0000FB60F9211248F939F93149936C081E0F5
:1028F00080930A24149B02C015993AC091E08091FC
:102900000B24891709F440C0809109248F5F8093BC
:10291000092480910924843030F582B18695817034
:1029200091E0892790910C24891769F090910824EF
:102930009F5F9093082490910824943020F0809316
:102940000C241092082481E0809353019F918F9171
:102950000F900FBE0F901F901895159918C083E027
:1029600080930A24C7CF90930B2410920924D5CFCB
:10297000129BC4CF92B193FB992790F981E09827DD
:1029800080910B248913C0CF10920924C6CF129BCB
:1029900006C01399AFCF82E080930A24ABCF109288
:1029A0000A24A8CF80910C248111FCCF80910C24A3
:1029B0008823E1F308951F93CF93DF9300D01F92F4
:1029C000CDB7DEB7182F0E94EF1262E086E00E94BA
:1029D00066108EEF92EB0E940E124AE0BE016F5F0E
:1029E0007F4F812F90E00E94BB1863E086E00E9439
:1029F0006610CE0101960E940E128BE093EB0E94AE
:102A00000E1265E083E00E94661087E193EB0E945E
:102A10000E120E94E51280910C248111FCCF80914E
:102A20000C248823E1F32396CDBFDEBFDF91CF9145
:102A30001F9108955058BB27AA270E9432150C9465
:102A4000E5160E94D71638F00E94DE1620F039F401
:102A50009F3F19F426F40C94D4160EF4E095E7FB8E
:102A60000C94CE16E92F0E94F61658F3BA17620797
:102A700073078407950720F079F4A6F50C941817CE
:102A80000EF4E0950B2EBA2FA02D0B01B901900189
:102A90000C01CA01A0011124FF27591B99F0593FCD
:102AA00050F4503E68F11A16F040A22F232F342F15
:102AB0004427585FF3CF469537952795A795F04063
:102AC0005395C9F77EF41F16BA0B620B730B840B78
:102AD000BAF09150A1F0FF0FBB1F661F771F881F30
:102AE000C2F70EC0BA0F621F731F841F48F4879588
:102AF00077956795B795F7959E3F08F0B0CF93957A
:102B0000880F08F09927EE0F9795879508950E94F2
:102B1000AA1608F481E008950E94A0150C94E51609
:102B20000E94DE1658F00E94D71640F029F45F3F4D
:102B300029F00C94CE1651110C9419170C94D4163C
:102B40000E94F61668F39923B1F3552391F3951B70
:102B5000550BBB27AA2762177307840738F09F5FBE
:102B60005F4F220F331F441FAA1FA9F335D00E2E2B
:102B70003AF0E0E832D091505040E695001CCAF798
:102B80002BD0FE2F29D0660F771F881FBB1F26175B
:102B900037074807AB07B0E809F0BB0B802DBF0132
:102BA000FF2793585F4F3AF09E3F510578F00C9401
:102BB000CE160C9419175F3FE4F3983ED4F3869534
:102BC00077956795B795F7959F5FC9F7880F911D22
:102BD0009695879597F90895E1E0660F771F881F0E
:102BE000BB1F621773078407BA0720F0621B730BC1
:102BF000840BBA0BEE1F88F7E09508950E94FE162D
:102C000088F09F5798F0B92F9927B751B0F0E1F0AD
:102C1000660F771F881F991F1AF0BA95C9F714C05D
:102C2000B13091F00E941817B1E008950C94181774
:102C3000672F782F8827B85F39F0B93FCCF3869596
:102C400077956795B395D9F73EF4909580957095F3
:102C500061957F4F8F4F9F4F0895E89409C097FB70
:102C60003EF490958095709561957F4F8F4F9F4F63
:102C70009923A9F0F92F96E9BB279395F6958795A7
:102C800077956795B795F111F8CFFAF4BB0F11F46A
:102C900060FF1BC06F5F7F4F8F4F9F4F16C0882311
:102CA00011F096E911C0772321F09EE8872F762F47
:102CB00005C0662371F096E8862F70E060E02AF088
:102CC0009A95660F771F881FDAF7880F9695879574
:102CD00097F90895092E052A3AF0621773078407B9
:102CE000950738F00C941A15261737074807590727
:102CF000C8F7E0E8FEEF990F16161706E807F90780
:102D000040F0550F12161306E407F50710F00C9467
:102D100018170C94D416990FBB0B550FAA0BE0E8AB
:102D2000FEEF16161706E807F90770F012161306DD
:102D3000E407F50760F0BA1754F031F426173707A7
:102D400048075907A7951BF4B901CA01BA2FB695D0
:102D500097950895990F0008550FAA0BE0E8FEEF2C
:102D600016161706E807F907C0F012161306E4074F
:102D7000F50798F0621B730B840B950B39F40A2648
:102D800061F0232B242B252B21F408950A2609F426
:102D9000A140A6958FEF811D811D089597F99F672A
:102DA00080E870E060E008959FEF80EC08950024D3
:102DB0000A941616170618060906089500240A94A0
:102DC00012161306140605060895092E0394000C26
:102DD00011F4882352F0BB0F40F4BF2B11F460FFB5
:102DE00004C06F5F7F4F8F4F9F4F089557FD9058DE
:102DF000440F551F59F05F3F71F04795880F97FBBF
:102E0000991F61F09F3F79F0879508951216130678
:102E10001406551FF2CF4695F1DF08C016161706A7
:102E20001806991FF1CF86957105610508940895DC
:102E3000E894BB2766277727CB0197F908950E946E
:102E4000AA1608F48FEF08950E9437170C94E51620
:102E50000E94D71638F00E94DE1620F0952311F05C
:102E60000C94CE160C94D41611240C9419170E94AD
:102E7000F61670F3959FC1F3950F50E0551F629FB2
:102E8000F001729FBB27F00DB11D639FAA27F00DC3
:102E9000B11DAA1F649F6627B00DA11D661F829FEA
:102EA0002227B00DA11D621F739FB00DA11D621FCF
:102EB000839FA00D611D221F749F3327A00D611DEC
:102EC000231F849F600D211D822F762F6A2F1124CE
:102ED0009F5750409AF0F1F088234AF0EE0FFF1F01
:102EE000BB1F661F771F881F91505040A9F79E3F58
:102EF000510580F00C94CE160C9419175F3FE4F343
:102F0000983ED4F3869577956795B795F795E795AD
:102F10009F5FC1F7FE2B880F911D9695879597F9B6
:102F200008950E94FE16E8F09E37E8F09639B8F44E
:102F30009E3848F4672F782F8827985FF9CF8695B9
:102F40007795679593959539D0F3B62FB1706B0F40
:102F5000711D811D20F487957795679593950C9445
:102F6000FB170C9416180C94191719F416F40C94FA
:102F7000D4160C9416180E94FE16B8F39923C9F3C0
:102F8000B6F39F57550B87FF0E9424180024A0E634
:102F900040EA900180585695979528F4805C660F1A
:102FA000771F881F20F026173707480730F4621B69
:102FB000730B840B202931294A2BA695179407946B
:102FC000202531254A2758F7660F771F881F20F0E4
:102FD00026173707480730F4620B730B840B200D5C
:102FE000311D411DA09581F7B901842F9158880F9B
:102FF000969587950895882371F4772321F098504A
:10300000872B762F07C0662311F499270DC09051A6
:10301000862B70E060E02AF09A95660F771F881F74
:10302000DAF7880F9695879597F908959F3F31F0C5
:10303000915020F4879577956795B795880F911DE6
:103040009695879597F9089591505040660F771F90
:10305000881FD2F70895991B79E004C0991F96172D
:1030600008F0961B881F7A95C9F78095089597FBFD
:10307000072E16F4009407D077FD09D00E944B1854
:1030800007FC05D03EF4909581959F4F089570956B
:1030900061957F4F0895AA1BBB1B51E107C0AA1F72
:1030A000BB1FA617B70710F0A61BB70B881F991FE9
:1030B0005A95A9F780959095BC01CD0108958F92FE
:1030C0009F92AF92BF92CF92DF92EF92FF92CF93F7
:1030D000DF93EC01688179818A819B81611571059B
:1030E0008105910521F464E279ED8BE597E02DE10E
:1030F00033EF41E050E00E94F01849015A019B0172
:10310000AC01A7EAB1E40E940F196B017C01ACEE9F
:10311000B4EFA50194010E941D19DC01CB018C0DB7
:103120009D1DAE1DBF1DB7FF03C00197A109B0488B
:1031300088839983AA83BB839F77DF91CF91FF9088
:10314000EF90DF90CF90BF90AF909F908F900895B9
:103150000E945F18089580E090E20E945F18089531
:10316000A0E0B0E08093002090930120A093022083
:10317000B09303200895BB274A3031F4992322F4F9
:10318000BDE2909581959F4F0C94C718BB27FB011A
:103190005527AA27880F991FAA1FA41710F0A41B50
:1031A00083955051B9F7A05DAA3308F0A95DA193AA
:1031B000009779F7B111B1931192CB010C94E018FB
:1031C000DC01FC01672F71917723E1F7329704C08E
:1031D0007C916D9370836291AE17BF07C8F3089519
:1031E000052E97FB1EF400940E94071957FD07D087
:1031F0000E94221907FC03D04EF40C940719509535
:103200004095309521953F4F4F4F5F4F08959095D2
:103210008095709561957F4F8F4F9F4F08950E94C5
:103220004419A59F900DB49F900DA49F800D911DF2
:1032300011240895B7FF0C940F190E940F19821BD7
:10324000930B0895A1E21A2EAA1BBB1BFD010DC012
:10325000AA1FBB1FEE1FFF1FA217B307E407F50746
:1032600020F0A21BB30BE40BF50B661F771F881F22
:10327000991F1A9469F760957095809590959B01B8
:10328000AC01BD01CF010895A29FB001B39FC00161
:10329000A39F700D811D1124911DB29F700D811D82
:0A32A0001124911D0895F894FFCF4A
:1032AA006E657874207374616765007E54696E79FF
:1032BA0050437E0028707265737320746F20737494
:1032CA0061727429006279205061756C204B6C69B7
:1032DA006E676572002A2000536E616B6500476154
:1032EA006D65206F66204C69666500427265616B88
:1032FA006F75740047414D45204F564552210D0ABE
:10330A000020706F696E74730D0A0D0A00287072BE
:0F331A0065737320746F2072657475726E29006D
:063329000100000001009C
:02000004008278
:090000000000020000C40700002A
:00000001FF
