:100000000C9484010C94A1010C943F020C94A10166
:100010000C94A1010C94A1010C94A1010C94A101D8
:100020000C94A1010C94A1010C94A1010C94A101C8
:100030000C94A1010C94A1010C94A1010C94A101B8
:100040000C94A1010C94A1010C94A1010C94A101A8
:100050000C94A1010C94A1010C94A1010C94A10198
:100060000C94A1010C94A1010C94A1010C94A10188
:100070000C94A1010C94A1010C94A10100000000BA
:1000800000000000002F000000000700070000141F
:100090007F147F1400242A7F2A120062640813232D
:1000A00000364955225000000503000000001C22C4
:1000B0004100000041221C000014083E0814000802
:1000C000083E0808000000A06000000808080808B2
:1000D000000060600000002010080402003E51494A
:1000E000453E0000427F40000042615149460021E8
:1000F00041454B31001814127F1000274545453902
:10010000003C4A494930000171090503003649495C
:10011000493600064949291E000036360000000015
:100120005636000000081422410000141414141460
:100130000000412214080002015109060032495909
:10014000513E007C1211127C007F49494936003E25
:1001500041414122007F4141221C007F49494941E0
:10016000007F09090901003E4149497A007F0808DA
:10017000087F0000417F4100002040413F01007F97
:1001800008142241007F40404040007F020C027F63
:10019000007F0408107F003E4141413E007F090975
:1001A0000906003E4151215E007F0919294600469B
:1001B000494949310001017F0101003F4040403F72
:1001C000001F2040201F003F4038403F00631408BC
:1001D0001463000708700807006151494543000097
:1001E0007F41410000552A552A55000041417F00BA
:1001F00000040201020400404040404000000102AF
:100200000400002054545478007F48444438003897
:100210004444442000384444487F0038545454181F
:1002200000087E0901020018A4A4A47C007F080431
:1002300004780000447D4000004080847D00007F01
:10024000102844000000417F4000007C041804781E
:10025000007C0804047800384444443800FC24241A
:1002600024180018242418FC007C08040408004802
:100270005454542000043F444020003C4040207C23
:10028000001C2040201C003C4030403C0044281012
:100290002844001CA0A0A07C004464544C440000EE
:1002A000087741000000006300000000417708006B
:1002B000000804080804003A4040207A003D40400D
:1002C000403D002154545479007D1211127D0039B3
:1002D00044444439003D4242423D000205020000D0
:1002E000007E01495573007C1010081CAE2000B040
:1002F000C8001040813FA1A6A83FA4D300D5F0D9E3
:1003000022DA12DB208D140011241FBECFEFCDBFE7
:10031000DFE3DEBF10E2A0E0B0E2E0E3F7E102C01D
:1003200005900D92A630B107D9F724E2A6E0B0E21D
:1003300001C01D92A339B207E1F70E94B6070C94E1
:100340006B0B0C94000002980A98E2E1F4E08081C3
:100350008860808380818F7780838081887F80839D
:1003600022982A98E2E3F4E08081877F808380816D
:100370008F7780838081887F808301980998E1E16D
:10038000F4E080818860808380818F7780838081A2
:10039000887F808304980C98E4E1F4E08081886091
:1003A000808380818F7780838081887F808303989A
:1003B0000B98E3E1F4E080818860808380818F770F
:1003C00080838081887F808305980D98E5E1F4E043
:1003D00080818860808380818F7780838081887F1F
:1003E000808321982998E1E3F4E08081877F8083EE
:1003F00080818F7780838081887F80832098289870
:10040000E0E3F4E08081877F808380818F77808341
:100410008081887F8083E0E0F2E010821382118285
:100420001282089580E0089580E00895FC0164BF81
:100430004083089540E068ED81E690E00E94160256
:1004400080E00895E0E1F4E0808188608193E83104
:1004500084E0F807C9F7E0E3F4E0808188608193E5
:10046000E83384E0F807C9F7089580E0089541E093
:1004700068ED80E890E00E94160280E008951F92E7
:100480000F920FB60F9211248F9381E080938A0010
:100490008F910F900FBE0F901F9018950E9422020F
:1004A0000E94A3010E9414020E941A020E943502B7
:1004B0000E9437020E9412020895E0E1F8E088E20B
:1004C000868383E0838384818860848385818160DF
:1004D00085838581806C858308959091150893703C
:1004E0009330A9F0E0E1F8E094819B7F94838783C7
:1004F000282F217080FF05C085818823ECF720E03C
:1005000007C0E0E1F8E0958196FFFDCF01C021E052
:10051000822F0895909115089370923061F4809322
:100520001808E0E1F8E09581858190748071892B4D
:10053000D1F380E0089581E00895E0E1F8E084815E
:10054000846084838481836084830895EF92FF9222
:100550000F931F93CF93DF937C01162F88E70E94A0
:100560006D0280E00E948A02112371F0E7011150B0
:10057000012F10E00F5F1F4F0E0D1F1D89910E946C
:100580008A02C017D107D1F70E949D02DF91CF9157
:100590001F910F91FF90EF900895EF92FF920F93AC
:1005A0001F93CF93DF937C018B0188E70E946D023C
:1005B00080E40E948A020115110549F0E7010E0D41
:1005C0001F1D89910E948A02C017D107D1F70E948E
:1005D0009D02DF91CF911F910F91FF90EF900895B1
:1005E000CF93DF9300D000D0CDB7DEB78631B0F423
:1005F0006830A0F4982F990F890F880FE6E0F4E295
:10060000808361836055698391E29A838B838FE74E
:100610008C8364E0CE0101960E94A6022496CDBF91
:10062000DEBFDF91CF910895CF93DF9300D000D04C
:10063000CDB7DEB7813890F4683080F4E6E0F4E2BC
:10064000808361836055698391E29A838B838FE70E
:100650008C8364E0CE0101960E94A6022496CDBF51
:10066000DEBFDF91CF91089560E080E00E94F0024C
:1006700008950F931F93CF93DF9306E010E2C0E03D
:10068000D0E8F8018D2F11928A95E9F76C2F80E060
:100690000E94F00260E870E0C8010E94CD02CF5FC6
:1006A00000581F4FC83069F70E943403DF91CF9183
:1006B0001F910F9108951F93CF93DF93CDB7DEB7AE
:1006C0006C97CDBFDEBF182F0E945D02ECEEF2E00A
:1006D000DE0111969E01245E3F4F84918D933196E9
:1006E000A217B307D1F71C8F6CE1CE0101960E94CF
:1006F000A6020E9439036C96CDBFDEBFDF91CF9179
:100700001F9108954F925F926F927F929F92AF9246
:10071000BF92CF92DF92EF92FF920F931F93CF93EE
:10072000DF93CDB7DEB72C97CDBFDEBF8930F1F0B8
:1007300018F4883039F050C08A30D9F18D3009F47E
:1007400045C04AC0F090042006E014E2F801808120
:1007500061818F190E94F00280E20E948203F801F9
:10076000808161818F190E94F002EDC08091062482
:1007700090910420292F30E0220F331F220F331FC6
:10078000B901680F711D45E150E02A01421A530A70
:100790006415750540F4990F990F60910724890F2E
:1007A0000E94F002D0C06091072485E10E94F0020F
:1007B000CAC080910724873008F0C5C0609104202A
:1007C000680F809106240E94F002BDC0609107244A
:1007D00080E00E94F002B7C0909006240F2EF9E747
:1007E0005F2EF02D591408F4AEC0803208F4ABC06F
:1007F000805290910420923009F085C09E012F5FB5
:100800003F4F790190E05C01AA0CBB1C8A0D9B1D37
:10081000880F991FFC01E458FF4F5F013E01FDE086
:100820006F0E711C690101E010E0D6011D921C924F
:100830001197F501449121E030E080E090E0E42F51
:10084000F0E0AF01082E02C0559547950A94E2F7F3
:1008500040FF1BC06D917C911197A801022E02C030
:10086000440F551F0A94E2F7642B752BAC01440F1B
:10087000551F280102C0440C551C4A95E2F7A201FD
:10088000462B572B4D935C93119701962E5F3F4F4C
:1008900088309105B1F622E0C20ED11C3FEFA31AB9
:1008A000B30AC614D70409F0C0CFE92DF0E0909147
:1008B0000724892F90E001969695982F8827979581
:1008C0008795DF01A80FB91FAA5FBF4DE80FF91F79
:1008D000AF014A57504EF70180819181F2E0EF0E4F
:1008E000F11C9C9311969C931197FA01808381834C
:1008F00012964E5F5F4FE614F70469F78CE0890D9E
:100900008093062420C02091072490E0FC01EE0F84
:10091000FF1FE80FF91FEE0FFF1FE458FF4FA92D2F
:10092000B0E030E8239FA00DB11D1124AA5FBF4D98
:1009300086E094919D93815031968111FACF86E0A3
:10094000890D809306242C96CDBFDEBFDF91CF9119
:100950001F910F91FF90EF90DF90CF90BF90AF90DD
:100960009F907F906F905F904F900895CF93DF930B
:10097000EC018881882331F021960E9482038991BD
:100980008111FBCFDF91CF9108958823A4F16034CA
:1009900090F54130C1F4E62FE695E695E69590E8AE
:1009A000E99FF0011124EA5FFF4DE80FF11D677028
:1009B00081E090E002C0880F991F6A95E2F790816C
:1009C000892B80830895E62FE695E695E69590E8D5
:1009D000E99FF0011124EA5FFF4DE80FF11D6770F8
:1009E00081E090E002C0880F991F6A95E2F7809538
:1009F00090818923808308955F926F927F928F9276
:100A00009F92AF92BF92CF92DF92EF92FF920F939D
:100A10001F93CF93DF93C82FD62F142F522E8823E6
:100A20000CF44CC044230CF449C0603408F046C0B8
:100A30008FE3821708F442C0842F90E08C1B910949
:100A40006C0122F4CC24DD24C81AD90AC11718F08D
:100A500077247A9402C077247394852D90E08D1BBF
:100A600091095C0122F4AA24BB24A81AB90A450101
:100A7000B194A194B108D51518F066246A9402C007
:100A8000662463947601E818F908402F6D2F8C2FA7
:100A90000E94C504C11302C0D51581F0C701880F9B
:100AA000991FA816B9061CF4E818F908C70D8C158B
:100AB0009D055CF7EC0CFD1CD60DE7CFDF91CF91C7
:100AC0001F910F91FF90EF90DF90CF90BF90AF906C
:100AD0009F908F907F906F905F900895CF92DF925C
:100AE000EF92FF920F931F93CF93DF93D82F162F80
:100AF000D42EC02E481728F4122F262F8D2FD42F36
:100B0000D82EE22EF12CE11AF1087AF0C0E0612F24
:100B10006C0F0C2D262F4D2D8D2F0E94FC04CF5FC6
:100B20008C2F90E0E816F90694F7DF91CF911F9192
:100B30000F91FF90EF90DF90CF90089560E080E0FC
:100B40000E94F00260E074E086E090E20E94CD0234
:100B50000895E6E0F0E226E034E280E8DF01982F35
:100B60001D929A95E9F7E058FF4FE217F307B1F7A6
:100B700008958823CCF06034C8F4E62FE695E69516
:100B8000E69590E8E99FF0011124EA5FFF4DE80F38
:100B9000F11D677081E090E002C0880F991F6A958F
:100BA000E2F790818923089580E0089580E0089518
:100BB0000F931F93CF93DF93082F10E09801240F1A
:100BC000311D2138310594F4683080F4C42FD62FBC
:100BD0000E9414036C2F70E0C80120E8D29F800DA2
:100BE000911D11248A5F9F4D0E94CD02DF91CF910C
:100BF0001F910F9108959B01220F331F620F731FE6
:100C0000229A25B12B7F35B134604FB7F894611526
:100C10007105C9F0FC01680F791F919188E035B921
:100C2000000000C000C097FF25B9990F000000C068
:100C300000C000C000C025B9000000C08A9579F747
:100C4000E617F70751F74FBF8BED95E00197F1F7E6
:100C500000C0000008950F93660F660F880F880F7D
:100C600023E0260F43E0480F01E00E946E050F913C
:100C700008950F9360910924660F660F80910A24EE
:100C8000880F880F22E0260F42E0480F6F5F01E0D7
:100C90008F5F0E946E050F910895FC01F695E79510
:100CA000F695E795ED5EFB4D208130E08370992746
:100CB000880F991FA90102C0559547958A95E2F7BB
:100CC000CA0183700895462FFC01F695E795F695C5
:100CD000E7959C0123703327220F331FED5EFB4DF8
:100CE00063E070E0022E02C0660F771F0A94E2F7FD
:100CF000609580818623642F70E002C0660F771FA5
:100D00002A95E2F7682B60830895EF92FF920F9384
:100D10001F93CF93DF93C0911124D091122400919F
:100D20000B2410910C24E0901024F0900F24011556
:100D3000110541F10130110521F4E0920E24F092E9
:100D40000D24D1706F2D8E2D0E942B06CE010E9496
:100D50004D06813061F028F0823029F0833029F08F
:100D600007C0F39405C0FA9403C0E39401C0EA9469
:100D70008F2D8F70F82E8E2D8F71E82E21970150B8
:100D80001109C1F6DF91CF911F910F91FF90EF9064
:100D90000895CF93C82F8091112490911224019629
:100DA000917080931124909312246C2F0E946306FB
:100DB000C130C1F058F0C23019F0C33069F017C02B
:100DC00080910F248F5F80930F2411C080910F2496
:100DD000815080930F240BC0809110248150809308
:100DE000102405C0809110248F5F8093102480917F
:100DF00010248F718093102480910F248F70809322
:100E00000F24CF9108950E94C30A8F71907899237F
:100E100024F40197806E9F6F019680930A240E94AC
:100E2000C30A8F709078992324F40197806F9F6F85
:100E3000019680930924880F880F62E0680F8091E3
:100E40000A24880F880F8E5F0E94B9058111DBCFBD
:100E50000895CF93DF9300D01F92CDB7DEB78A837A
:100E600069834B8361E070E0CE0101960E94FB052F
:100E70002396CDBFDEBFDF91CF910895CF92DF9251
:100E8000EF92FF92CF93DF93C0910B24D0910C246B
:100E9000BE0180E090E00E94A9099B01AC0160E0E6
:100EA00070E088EC92E40E949B0820E030E048E487
:100EB00053E40E9408099B01AC0160E070E088E403
:100EC00093E40E94E6096B017C01BE01660F771F67
:100ED0006C0F7D1F80E090E00E94A9099B01AC018E
:100EE00060E070E08FE793E40E94070A0E947A09AD
:100EF000C62FC701B6010E947A09862F40E06C2FE9
:100F00000E942907DF91CF91FF90EF90DF90CF9063
:100F10000895669544E0880F880F0E94D8050895CB
:100F200040E060E088EC0E94290781E090E0809337
:100F30000B2490930C241092102410920F241092E2
:100F400011241092122461E080E090E00E94630678
:100F500081E0809308240E9403070E94A9050E9453
:100F600085060E9439060E949E050895CF93DF935F
:100F700000D01F92CDB7DEB70E944E0240E06FEF67
:100F800080E00E9429078FEA0E945B0360E087E00F
:100F90000E94F0028AED96E90E94B60463E083E0C5
:100FA0000E94F00283EE96E90E94B60467E086E0B4
:100FB0000E94F00284EF96E90E94B6040E949E050A
:100FC0001199FECF0E9490076894DD24D1F80F2E6E
:100FD000F3E0FF2EF02DEE24E39410910E24009107
:100FE0000D24149908C080910824833009F494C01A
:100FF000E09208241BC0159908C080910824813014
:1010000009F48DC0F092082411C0129908C0809193
:101010000824823009F486C01092082407C013996E
:1010200005C0809108248111D09208248091082461
:101030000E94C9068091102490910A24891314C03B
:1010400020910F249091092429130EC080910B2424
:1010500090910C24019680930B2490930C240E9471
:101060003E070E94030738C060910F24660F660F89
:10107000880F880F0E94B905882371F10E94A90585
:101080006D2D86E00E94F00284E097E90E94B6048C
:101090004AE0BE016F5F7F4F80910B2490910C243A
:1010A0000E94D30A6F2D86E00E94F002CE010196C5
:1010B0000E94B60481E197E90E94B60465E08F2D95
:1010C0000E94F0028DE197E90E94B6040E949E05FD
:1010D0001199FECF0E9490070E94A9050E948506E3
:1010E0000E94390660910F24809110240E94890784
:1010F000602F812F0E9489076091092480910A2422
:101100000E9489072FE78AE196E0215080409040B5
:10111000E1F700C0000061CF159B74CF06C0129BA1
:101120007BCF06C0139B80CF81CF129B75CF77CF2B
:10113000139B7ACF7BCF5058BB27AA270E94B308B6
:101140000C943D0A0E942F0A38F00E94360A20F0C3
:1011500039F49F3F19F426F40C942C0A0EF4E09510
:10116000E7FB0C94260AE92F0E944E0A58F3BA179F
:10117000620773078407950720F079F4A6F50C94AD
:10118000700A0EF4E0950B2EBA2FA02D0B01B901B9
:1011900090010C01CA01A0011124FF27591B99F0ED
:1011A000593F50F4503E68F11A16F040A22F232FF9
:1011B000342F4427585FF3CF469537952795A79549
:1011C000F0405395C9F77EF41F16BA0B620B730BF0
:1011D000840BBAF09150A1F0FF0FBB1F661F771F61
:1011E000881FC2F70EC0BA0F621F731F841F48F416
:1011F000879577956795B795F7959E3F08F0B0CF9F
:101200009395880F08F09927EE0F97958795089585
:101210000E941C090C943D0A0E94360A58F00E9454
:101220002F0A40F029F45F3F29F00C94260A51114F
:101230000C94710A0C942C0A0E944E0A68F39923AC
:10124000B1F3552391F3951B550BBB27AA276217C2
:101250007307840738F09F5F5F4F220F331F441FCF
:10126000AA1FA9F335D00E2E3AF0E0E832D0915003
:101270005040E695001CCAF72BD0FE2F29D0660FF0
:10128000771F881FBB1F261737074807AB07B0E833
:1012900009F0BB0B802DBF01FF2793585F4F3AF039
:1012A0009E3F510578F00C94260A0C94710A5F3F1A
:1012B000E4F3983ED4F3869577956795B795F795BF
:1012C0009F5FC9F7880F911D9695879597F90895A7
:1012D000E1E0660F771F881FBB1F62177307840743
:1012E000BA0720F0621B730B840BBA0BEE1F88F752
:1012F000E09508950E94560A88F09F5798F0B92FFC
:101300009927B751B0F0E1F0660F771F881F991F3A
:101310001AF0BA95C9F714C0B13091F00E94700A62
:10132000B1E008950C94700A672F782F8827B85F72
:1013300039F0B93FCCF3869577956795B395D9F792
:101340003EF490958095709561957F4F8F4F9F4F9C
:101350000895E89409C097FB3EF4909580957095A8
:1013600061957F4F8F4F9F4F9923A9F0F92F96E9F1
:10137000BB279395F695879577956795B795F11166
:10138000F8CFFAF4BB0F11F460FF1BC06F5F7F4F03
:101390008F4F9F4F16C0882311F096E911C0772315
:1013A00021F09EE8872F762F05C0662371F096E81E
:1013B000862F70E060E02AF09A95660F771F881FED
:1013C000DAF7880F9695879597F90895092E052ADB
:1013D0003AF0621773078407950738F00C949B085E
:1013E0002617370748075907C8F7E0E8FEEF990FB7
:1013F00016161706E807F90740F0550F12161306E0
:10140000E407F50710F00C94700A0C942C0A990F5D
:10141000BB0B550FAA0BE0E8FEEF16161706E80700
:10142000F90770F012161306E407F50760F0BA1713
:1014300054F031F42617370748075907A7951BF4CE
:10144000B901CA01BA2FB6959795089597F99F6784
:1014500080E870E060E008959FEF80EC089500243C
:101460000A941616170618060906089500240A9409
:1014700012161306140605060895092E0394000C8F
:1014800011F4882352F0BB0F40F4BF2B11F460FF1E
:1014900004C06F5F7F4F8F4F9F4F089557FD905847
:1014A000440F551F59F05F3F71F04795880F97FB28
:1014B000991F61F09F3F79F08795089512161306E2
:1014C0001406551FF2CF4695F1DF08C01616170611
:1014D0001806991FF1CF8695710561050894089546
:1014E000E894BB2766277727CB0197F908958F9259
:1014F0009F92AF92BF92CF92DF92EF92FF92CF93E3
:10150000DF93EC01688179818A819B816115710586
:101510008105910521F464E279ED8BE597E02DE1F9
:1015200033EF41E050E00E94080B49015A019B0152
:10153000AC01A7EAB1E40E94270B6B017C01ACEE81
:10154000B4EFA50194010E94350BDC01CB018C0D99
:101550009D1DAE1DBF1DB7FF03C00197A109B04877
:1015600088839983AA83BB839F77DF91CF91FF9074
:10157000EF90DF90CF90BF90AF909F908F900895A5
:101580000E94770A089580E090E20E94770A089509
:10159000A0E0B0E08093002090930120A09302206F
:1015A000B09303200895BB274A3031F4992322F4E5
:1015B000BDE2909581959F4F0C94DF0ABB27FB01FC
:1015C0005527AA27880F991FAA1FA41710F0A41B3C
:1015D00083955051B9F7A05DAA3308F0A95DA19396
:1015E000009779F7B111B1931192CB010C94F80ADD
:1015F000DC01FC01672F71917723E1F7329704C07A
:101600007C916D9370836291AE17BF07C8F3089504
:10161000052E97FB1EF400940E941F0B57FD07D068
:101620000E943A0B07FC03D04EF40C941F0B50950C
:101630004095309521953F4F4F4F5F4F08959095BE
:101640008095709561957F4F8F4F9F4F08950E94B1
:101650005C0BA59F900DB49F900DA49F800D911DD4
:1016600011240895B7FF0C94270B0E94270B821BAF
:10167000930B0895A1E21A2EAA1BBB1BFD010DC0FE
:10168000AA1FBB1FEE1FFF1FA217B307E407F50732
:1016900020F0A21BB30BE40BF50B661F771F881F0E
:1016A000991F1A9469F760957095809590959B01A4
:1016B000AC01BD01CF010895A29FB001B39FC0014D
:1016C000A39F700D811D1124911DB29F700D811D6E
:0A16D0001124911D0895F894FFCF36
:1016DA007E54696E7950437E002870726573732058
:1016EA00746F207374617274290062792050617575
:1016FA006C204B6C696E6765720047414D45204FFF
:10170A00564552210D0A0020706F696E74730D0AD6
:10171A000D0A0028707265737320746F20726573E6
:06172A00746172742900D5
:06173000010000000100B1
:02000004008278
:090000000000020000C40700002A
:00000001FF
