:100000000C9484010C94A1010C94E40D0C94A101B6
:100010000C94A1010C94A1010C94A1010C94EB127D
:100020000C94A1010C94A1010C94A1010C94A101C8
:100030000C94A1010C94A1010C94A1010C94A101B8
:100040000C94A1010C94A1010C94A1010C94A101A8
:100050000C94A1010C94A1010C94A1010C94A10198
:100060000C94A1010C94A1010C94A1010C94A10188
:100070000C94A1010C94A1010C94A10100000000BA
:1000800000000000002F000000000700070000141F
:100090007F147F1400242A7F2A120062640813232D
:1000A00000364955225000000503000000001C22C4
:1000B0004100000041221C000014083E0814000802
:1000C000083E0808000000A06000000808080808B2
:1000D000000060600000002010080402003E51494A
:1000E000453E0000427F40000042615149460021E8
:1000F00041454B31001814127F1000274545453902
:10010000003C4A494930000171090503003649495C
:10011000493600064949291E000036360000000015
:100120005636000000081422410000141414141460
:100130000000412214080002015109060032495909
:10014000513E007C1211127C007F49494936003E25
:1001500041414122007F4141221C007F49494941E0
:10016000007F09090901003E4149497A007F0808DA
:10017000087F0000417F4100002040413F01007F97
:1001800008142241007F40404040007F020C027F63
:10019000007F0408107F003E4141413E007F090975
:1001A0000906003E4151215E007F0919294600469B
:1001B000494949310001017F0101003F4040403F72
:1001C000001F2040201F003F4038403F00631408BC
:1001D0001463000708700807006151494543000097
:1001E0007F41410000552A552A55000041417F00BA
:1001F00000040201020400404040404000000102AF
:100200000400002054545478007F48444438003897
:100210004444442000384444487F0038545454181F
:1002200000087E0901020018A4A4A47C007F080431
:1002300004780000447D4000004080847D00007F01
:10024000102844000000417F4000007C041804781E
:10025000007C0804047800384444443800FC24241A
:1002600024180018242418FC007C08040408004802
:100270005454542000043F444020003C4040207C23
:10028000001C2040201C003C4030403C0044281012
:100290002844001CA0A0A07C004464544C440000EE
:1002A000087741000000006300000000417708006B
:1002B000000804080804003A4040207A003D40400D
:1002C000403D002154545479007D1211127D0039B3
:1002D00044444439003D4242423D000205020000D0
:1002E000007E01495573007C1010081CAE2000B040
:1002F000C8001040813FA1A6A83FA4D300D5F0D9E3
:1003000022DA12DB208D140011241FBECFEFCDBFE7
:10031000DFE3DEBF10E2A0E0B0E2EAEFF4E302C008
:1003200005900D92A630B107D9F724E2A6E0B0E21D
:1003300001C01D92AD30B207E1F70E94C7120C94C4
:10034000361A0C9400004F925F926F927F928F92B8
:100350009F92AF92BF92CF92DF92EF92FF920F9354
:100360001F93CF93DF93CDB7DEB7DA95CDBFDEBF56
:1003700080914801909149010E949B195E0121E002
:10038000A20EB21E8E010F5F1F4F7801F8E0EF0E34
:10039000F11C0E949619F80181938F01EE16FF0659
:1003A000C1F78701AE14BF0481F750900C24EE24EE
:1003B000E394F12C80910C24811101C0512C0E94F6
:1003C00064119E012F5F3F4F6901612C812C912C9C
:1003D00044244394460C7724739410E005C01F5FB7
:1003E00073947394103439F1812F86958695869590
:1003F000F601E80FF11D8081282F30E0812F8770F2
:10040000A70102C0440F551F8A95E2F7CA01822353
:100410009323892B21F301E0242D472D662D812F75
:10042000880F0E9429115FEF851A950A1F5F739448
:1004300073941034C9F688E0C80ED11C6394639499
:10044000AC14BD0429F60E945A1160E074E0C401A6
:100450000E949713FE0131966F01412C612C772485
:100460007A94740C812C99249A94892D860D082EE7
:10047000000C990B8F73907897FD6AC08F73992742
:10048000182F110F00E00130B1F0672D600F062E1C
:10049000000C770B6F71707877FD53C06F71772701
:1004A000660F812F0E94731181118394023031F005
:1004B0000F5F013051F79110E8CFFACF9394F2E03B
:1004C0009F12D3CF8EEF880D823008F446C0862D60
:1004D000869586958695F601E80FF11D862D877025
:1004E000970102C0220F331F8A95E2F7C901809558
:1004F000908189238083639450E46512B3CF439441
:1005000088E0C80ED11C90E24912A8CF80910C243B
:10051000882309F44FCF51104DCFD395CDBFDEBF07
:10052000DF91CF911F910F91FF90EF90DF90CF90CF
:10053000BF90AF909F908F907F906F905F904F9003
:10054000089561507109606E7F6F6F5F7F4FA6CF16
:100550000197806C9F6F019691CF33E08312CBCFD0
:10056000862D869586958695F601E80FF11D862DD8
:100570008770A70102C0440F551F8A95E2F7CA0190
:100580009081892B8083B7CFBF92CF92DF92EF9279
:10059000FF920F931F93CF93DF93EC0168817981D2
:1005A0008A819B810E9488180E94CE176B017C0172
:1005B0006C817D818E819F810E9488180E94CE1758
:1005C0000E947B16B62EC701B6010E947B160EEF65
:1005D000060F8EEFE82EFF24FA94BA94BA941B2DDE
:1005E000CEEFDFEFCC24DD24CE18DF08CE01D7FD1F
:1005F00023C0029729F4C701F7FC23C0029729F012
:1006000041E0612F802F0E94921021961F5FC3301E
:10061000D10561F70F5F8FEFE81AF80A83E0E8165B
:10062000F104E9F6DF91CF911F910F91FF90EF90C8
:10063000DF90CF90BF900895882799278C1B9D0B42
:10064000D8CFC601DBCF0F930E9488180E94CE1727
:1006500020E030E040E451E40E9409160E947B163D
:10066000862F49E1460F01E02FE36CE30E94291138
:100670000F910895CF92DF92EF92FF920F931F9305
:10068000CF93DF936C01C0E0EE24E394F12C1BEADE
:10069000D5E103C0CF5FC831A1F18C2F8695869537
:1006A0008695F601E80FF11D8081282F30E08C2F10
:1006B0008770A70102C0440F551F8A95E2F7CA014F
:1006C00082239323892B31F3C19F612D11246695D9
:1006D0006695862F880F860F880F5C2F581B5D9FAD
:1006E000802D1124962F990F990F690F23E0260F63
:1006F00044E1480F01E08F5F0E942911CF5FC831AC
:1007000061F6DF91CF911F910F91FF90EF90DF90F5
:10071000CF9008954F925F926F927F928F929F92A7
:10072000AF92BF92CF92DF92EF92FF920F931F93FF
:10073000CF93DF93EC0188849984AA84BB84CC8412
:10074000DD84EE84FF8495018401B501A4010E943B
:1007500093182C013D0197018601B701A6010E9463
:100760009318BC01CD01640D751D861D971D0E9457
:1007700088180E94F8170E948F189B01AC01888985
:100780009989AA89BB890E94E71895018401AB0168
:10079000BC010E94931888879987AA87BB87970115
:1007A00086010E9493188C879D87AE87BF87DF9153
:1007B000CF911F910F91FF90EF90DF90CF90BF905E
:1007C000AF909F908F907F906F905F904F90089523
:1007D0008F929F92AF92BF92EF92FF920F931F93CF
:1007E000CF93DF93CDB7DEB7E697CDBFDEBF7C01F9
:1007F0008E010F5D1F4F86E1F80111928A95E9F78E
:10080000812C912C80E2A82EB12C89A29AA2ABA2B5
:10081000BCA280E090E0ADE1B0E08DA39EA3AFA3C9
:10082000B8A780E090E8A1E0B0E089A79AA7ABA7BD
:10083000BCA780E090E0ABEFBFEF8DA79EA7AFA76E
:10084000B8AB80E090E8A0E0B0E089AB9AABABAB8E
:10085000BCABC8010E948A0386E1F801DE01119653
:1008600001900D928A95E1F78F8A988EA98EBA8EA3
:100870002FEF3FEF2B8F3C8F8FEF8D8F2E8F3F8F82
:1008800088A380E2FE013196D70101900D928A95EE
:10089000E1F7C701E696CDBFDEBFDF91CF911F9193
:1008A0000F91FF90EF90BF90AF909F908F90089521
:1008B0002F923F924F925F926F927F928F929F9270
:1008C000AF92BF92CF92DF92EF92FF920F931F935E
:1008D000CF93DF93CDB7DEB7C057D109CDBFDEBF11
:1008E000CE0101960E94E8030E946411CE014B964E
:1008F0000E943A03CE0101960E94C4026F89788D4E
:10090000898D9A8D0E9423030E945A1168E470E039
:1009100080E090E00E949713212C0E946411809146
:100920000B24882309F422C580910A24833009F41A
:10093000A8C50F89188D298D3A8DA1960CAF1DAFD2
:100940002EAF3FAFA197C901B8010E9488180E943D
:10095000CE17A5966CAF7DAF8EAF9FAFA597809158
:100960000B24882329F080910A24813009F4C8C51A
:10097000C980DA80EB80FC80C701B6010E9488182C
:100980000E94CE170E947B166D8B4D805E806F801B
:100990007884C301B2010E9488180E94CE1720E01B
:1009A00030E040E050E40E94091620E030E040E0F2
:1009B0005EE30E9461170E947B166E8B09851A8583
:1009C0002B853C8529960CAF1DAF2EAF3FAF2997E5
:1009D000480159018C0C9D1CAE1CBF1C89829A8257
:1009E000AB82BC82CD84DE84EF84F8884C0C5D1C25
:1009F0006E1C7F1C4D825E826F827886811410E4AB
:100A0000910611E0A106B1040CF4C5C4811440ECB8
:100A100094064EE3A406B10411F00CF0F8C441149E
:100A200070E4570671E067067104ACF5D301C201AA
:100A30009054A140B109A70196010E94E7188B01CB
:100A40009C0129964CAD5DAD6EAD7FAD29970E949E
:100A50009318881A990AAA0ABB0A89829A82AB82D9
:100A6000BC8280E090E4A1E0B0E08D839E83AF8300
:100A7000B8879701860140E050E86FEF7FEF0E9452
:100A800093188D879E87AF87B88B412C80E4582EB2
:100A900066246394712C312C7501640130E4D30E0B
:100AA00031E0E31EF11C88C0A5019401305441409F
:100AB0005109E1962CAF3DAF4EAF5FAFE19729965C
:100AC0006CAD7DAD8EAD9FAD2997261737074807D2
:100AD00059070CF48EC1DA01C90189829A82AB826E
:100AE000BC824D825E826F827886930182011054AF
:100AF0002140310925960CAF1DAF2EAF3FAF259792
:100B000029960CAD1DAD2EAD3FAD299708171907DD
:100B10002A073B075CF02D960CAD1DAD2EAD3FAD09
:100B20002D97C016D106E206F30684F469960CAD43
:100B30001DAD2EAD3FAD699740E050E86FEF7FEF00
:100B40000E94931889879A87AB87BC8765962CADDE
:100B50003DAD4EAD5FAD659725966CAD7DAD8EAD6F
:100B60009FAD2597261737074807590784F0D3010B
:100B7000C201905CAE4FBF4F61960CAD1DAD2EAD66
:100B80003FAD619780179107A207B30784F46D9674
:100B90000CAD1DAD2EAD3FAD6D9740E050E86FEF51
:100BA0007FEF0E9493188D879E87AF87B88B339411
:100BB00018E1311609F46DC1832D869586958695C9
:100BC000EBE1F0E0EC0FFD1FE80FF11D1081832D2C
:100BD000877021E030E002C0220F331F8A95E2F7D0
:100BE000812F90E082239323892B09F39BEA399E7E
:100BF000812D1124082F06950695902F990F900F9F
:100C0000990F432D491BA5E14A9F402D1124A1E0D6
:100C1000A40F6A2F70E0DB0199278827B595A79567
:100C200097952D968CAF9DAFAEAFBFAF2D978C151E
:100C30009D05AE05BF050CF0BACF4C5E50E0CA0171
:100C40007727662795958795779529966CAF7DAF21
:100C50008EAF9FAF2997D501C4019054A140B1092F
:100C600029964CAD5DAD6EAD7FAD29978417950784
:100C7000A607B7070CF09BCF902F990F990F090F7C
:100C8000402F50E0CA01772766279595879577957D
:100C900061966CAF7DAF8EAF9FAF6197D301C201FC
:100CA000905CAE4FBF4F61964CAD5DAD6EAD7FAD0C
:100CB0006197481759076A077B070CF078CF83E0E4
:100CC000800F90E044275527BC017595679557958F
:100CD00065964CAF5DAF6EAF7FAF6597D301C20134
:100CE0009054A140B10984179507A607B7070CF0E7
:100CF0005ECF2095612F6223608389809A80AB80CC
:100D0000BC8009851A852B853C8569960CAF1DAF83
:100D10002EAF3FAF6997D901C80120E030E045E030
:100D200050E00E94E7186B017C014D805E806F806F
:100D300078842D853E854F8558896D962CAF3DAFC3
:100D40004EAF5FAF6D97DA01C90120E030E045E0BA
:100D500050E00E94E718AB01BC01A996CCAEDDAE15
:100D6000EEAEFFAEA997AD964CAF5DAF6EAF7FAF65
:100D7000AD97A9966CAD7DAD8EAD9FADA997861A46
:100D8000970AA80AB90AAD968CAD9DADAEADBFADC0
:100D9000AD97481A590A6A0A7B0A7501640190E402
:100DA000D90E91E0E91EF11C2D960CAD1DAD2EADB6
:100DB0003FAD2D970C151D052E053F050CF474CE87
:100DC00089829A82AB82BC824D825E826F827886F3
:100DD000D501C4019054A140B109B301A2015054FE
:100DE0006140710925964CAF5DAF6EAF7FAF25971F
:100DF00087CED301C201905CAE4FBF4F61962CAD40
:100E00003DAD4EAD5FAD6197281739074A075B07C7
:100E1000D4F0E1968CAD9DADAEADBFADE1978982CA
:100E20009A82AB82BC824D825E826F827886B301E9
:100E3000A20150546140710925964CAF5DAF6EAF71
:100E40007FAF25975DCEC301B201705481409109F7
:100E500025966CAF7DAF8EAF9FAF259765960CAD95
:100E60001DAD2EAD3FAD65976017710782079307E3
:100E70000CF47FCFE1968CAD9DADAEADBFADE197EB
:100E800089829A82AB82BC824D825E826F82788632
:100E900037CE20E030E040E451E4A5966CAD7DAD66
:100EA0008EAD9FADA5970E9409160E947B16862FD6
:100EB00090E022273327AC015595479537956196E9
:100EC0002CAF3DAF4EAF5FAF61972C153D054E0582
:100ED0005F050CF0EFC020E030E040E451E4A5965F
:100EE0006CAD7DAD8EAD9FADA5970E940A160E9498
:100EF0007B16862F90E0002711279C0135952795BA
:100F0000179525960CAF1DAF2EAF3FAF2597D50196
:100F1000C4019054A140B10980179107A207B307FB
:100F20000CF0C8C0D301C201905CAE4FBF4F009718
:100F3000AE41B10509F00CF4BDC0D301C20190541B
:100F4000A140B10981159048AF41B1050CF0B2C084
:100F500049855A856B857C8529964CAF5DAF6EAF10
:100F60007FAF2997DB01CA0120E030E045E050E087
:100F70000E94E7186B017C010D851E852F8538893D
:100F80002D960CAF1DAF2EAF3FAF2D97D901C801E5
:100F900020E030E045E050E00E94E718AB01BC01E2
:100FA00061960CAD1DAD2EAD3FAD619765964CAF12
:100FB0005DAF6EAF7FAF65978C189D08AE08BF0818
:100FC00065964CAD5DAD6EAD7FAD6597441A550A23
:100FD000660A770AD501C401905CAE4FBF4F08176F
:100FE00019072A073B0734F5C501B4017054814045
:100FF0009109AB01BC0125968CAD9DADAEADBFADE9
:101000002597481759076A077B07A4F4D301C20143
:10101000905CAE4FBF4F0097AE41B10559F054F010
:10102000D301C2019054A140B10981159048AF414C
:10103000B10514F289829A82AB82BC824D825E82B3
:101040006F8278862D960CAD1DAD2EAD3FAD2D97E0
:1010500040E050E86FEF7FEF0E9493188D879E87E6
:10106000AF87B88BD501C401A1962CAD3DAD4EAD77
:101070005FADA197821B930BA40BB50B20E030E86A
:101080004CE050E00E94E71829960CAD1DAD2EAD46
:101090003FAD2997060F171F281F391F09871A8789
:1010A0002B873C87CE0101960E948A034D805E808B
:1010B0006F807884411470EC57067EE167067104F6
:1010C00011F00CF04BC2CE014B960E943A03CE01B8
:1010D00001960E94C4026F89788D898D9A8D0E9435
:1010E00023036D817E818F8198850E9488180E94DC
:1010F000CE1720E030E040E050E40E94091620E0E6
:1011000030E040E05EE30E9461170E947B16162FDC
:1011100069817A818B819C810E9488180E94CE17F8
:1011200020E030E040E050E40E9409160E947B1667
:10113000862F45E0612F0E948F1169817A818B8112
:101140009C810E9488180E94CE171F5F20E030E02B
:1011500040E050E40E9409160E947B16862F45E06D
:10116000612F0E948F118D8945E06E8982500E9407
:101170008F116E896F5F8D8945E082500E948F11BB
:101180006F89788D898D9A8D0E9488180E94CE175C
:1011900020E030E040E451E40E9409160E947B16F2
:1011A00070E080E090E00E94AC166B017C0120E0D2
:1011B00030E040E850E40E94761687FD26C120E02A
:1011C00030E040E850E4C701B6010E9409160E94D1
:1011D0007B16862F42E267E00E948F11F12C05C03A
:1011E000F39418E1F11609F4ACC08F2D869586951D
:1011F000869590E02F2D277041E050E002C0440F0B
:10120000551F2A95E2F7EEE1F0E0EC0FFD1FE80F25
:10121000F91F208130E02423352361E0232B09F4DA
:1012200060E0EBE1F0E0EC0FFD1FE80FF91F8081BB
:1012300090E04823592381E0452B09F480E06817AA
:1012400079F28BEAF89E912D112496959695892F27
:10125000880F890F880F0F2D081BA5E10A9F002D0D
:1012600011240F5F192F110F110F190FE12EE694A2
:10127000E694E69444E16E2D802F0E948F1163E086
:10128000610F669566956695E61621F044E1802F1C
:101290000E948F1109891A892B893C8943E353E8FD
:1012A00060E070E00E949318898B9A8BAB8BBC8BAB
:1012B000CE0101960E948A03239468E470E0822D97
:1012C00090E00E949713BBEA2B9E812D11248295FA
:1012D0008F70E22D08E1809FE0191124E11180CF89
:1012E00065E086E00E94DB0E80E794EB0E948310AD
:1012F0000E945A110E944F1389889A88AB88BC8833
:10130000CE0181960E94E80380E2FE01B196DE01E3
:10131000119601900D928A95E1F7898A9A8AAB8A93
:10132000BC8ACE0101960E948A030E94E60ECE017D
:101330004B960E943A030E945A11F39418E1F1125D
:1013400054CF2FEF39EF40E0215030404040E1F7DB
:1013500000C000008B8D9C8DAD8D8E8F9F8FA8A3BC
:101360000E94641180910B248111DECA6F89788DEF
:10137000898D9A8DA1966CAF7DAF8EAF9FAFA197EF
:101380000E9488180E94CE17A5966CAF7DAF8EAFD5
:101390009FAFA597E4CAD501C4019054A140B109FB
:1013A00029962CAD3DAD4EAD5FAD29970E94E71853
:1013B0008B019C01B701A6010E949318481A590A93
:1013C0006A0A7B0A4D825E826F82788620E030E472
:1013D00041E050E029833A834B835C8329960CAD2E
:1013E0001DAD2EAD3FAD299740E050E86FEF7FEF88
:1013F0000E94931889879A87AB87BC87812C20E449
:10140000922EAA24A394B12C46CB80E0E3CED50142
:10141000C401905CAE43B10929962CAD3DAD4EADF3
:101420005FAD29970E94E7188B019C01B701A601C7
:101430000E949318481A590A6A0A7B0A4D825E82F2
:101440006F82788660E070EC8EE390E069837A8347
:101450008B839C8329960CAD1DAD2EAD3FAD299796
:1014600040E050E86FEF7FEF0E94931889879A87DA
:10147000AB87BC87812C90EC992E9EE3A92EB12CD2
:101480000ACB2F89388D498D5A8DA1962CAF3DAF4F
:101490004EAF5FAFA197CA01B9010E9488180E94A0
:1014A000CE17A5966CAF7DAF8EAF9FAFA59720E00E
:1014B00030E048E751E40E945C1718160CF04FCA60
:1014C000A1964CAD5DAD6EAD7FADA197505C614016
:1014D0007109A1964CAF5DAF6EAF7FAFA1974F8BF7
:1014E000588F698F7A8FCB01BA010E9488180E94A9
:1014F000CE17A5966CAF7DAF8EAF9FAFA59738CABC
:1015000020E030E04FED52E4A5966CAD7DAD8EADA0
:101510009FADA5970E94761687FF2ACAA1968CAD2B
:101520009DADAEADBFADA1979054AE4FBF4FA1964C
:101530008CAF9DAFAEAFBFAFA1978F8B988FA98FA8
:10154000BA8FBC01CD010E9488180E94CE17A596C3
:101550006CAF7DAF8EAF9FAFA5970ACA822D0E9458
:101560005813C059DF4FCDBFDEBFDF91CF911F9120
:101570000F91FF90EF90DF90CF90BF90AF909F9032
:101580008F907F906F905F904F903F902F90089535
:101590005F926F927F928F929F92AF92BF92CF9203
:1015A000DF92EF92FF920F931F93CF93DF93FC0193
:1015B000E058FF4F608071803696C081D1813497AA
:1015C000508031961081209709F448C07C015C015D
:1015D00084E8A80EB11C6701E5E8CE0ED11C0FC04F
:1015E0002330D1F12130B1F11F5F1F70E52DEF7174
:1015F0005E2E3401F1E06F1A7108219779F1C13044
:10160000D105E1F14301F1E09F22612F660F660FE2
:1016100023E0260F852D880F880F43E0480F01E057
:101620000E942911F401F695E795F695E795EE0DE0
:10163000FF1D208130E083E068227724660C771C50
:1016400002C0359527956A94E2F72370223041F65F
:101650001150CBCF5A94C9CF5394C7CFDF91CF91BC
:101660001F910F91FF90EF90DF90CF90BF90AF90C0
:101670009F908F907F906F905F900895F5015082BA
:10168000F6011083BFCF0F931F93CF93DF93EC012D
:101690008B0115C088830E9496198F70907897FDF2
:1016A0001FC0F8018083880F880F62E0680F88816F
:1016B000880F880F8E5F0E9473118823B1F00E94FB
:1016C00096198F71907897FFE5CF0197806E9F6F85
:1016D000019688830E9496198F70907897FFE1CFCA
:1016E0000197806F9F6F0196DCCFDF91CF911F91A3
:1016F0000F9108950F93660F660F880F880F22E0F1
:10170000260F42E0480F6F5F01E08F5F0E942911B2
:101710000F910895EF92FF920F931F93CF93DF9352
:10172000CDB7DEB7CB58D109CDBFDEBF91E09093E6
:101730000A2421E030E0C957DF4F28833983C75896
:10174000D040CD57DF4F1882C358D040CC57DF4F21
:101750001882C458D040CF57DF4F18821982C15821
:10176000D04089818C7F81608983C557DF4F988302
:10177000CB58D04064E670E081E090E00E9497137F
:10178000BE0166577F4FCE0187579F4F0E94430B84
:101790000E946411CE0101960E94C80AC657DF4F0D
:1017A0006881CA58D040C757DF4F8881C958D04098
:1017B0000E947A0B0E945A1172E0E72EE3E0FE2E9F
:1017C000AFC080910A24C557DF4F2881CB58D04045
:1017D000833009F4FCC080910A248111EDC02230CD
:1017E00009F419C1C557DF4F1882CB58D04040E0EB
:1017F00050E020E0CF57DF4F88819981C158D04019
:101800000196FC01F170CF57DF4FE883F983C1588F
:10181000D040F695E795F695E79583709927880F60
:10182000991F61E070E06C0F7D1FE60FF71F63E00A
:1018300070E0082E01C0660F0A94EAF76095908167
:10184000692301C0440F8A95EAF7462B4083213073
:1018500009F485C008F4D3C0223009F4C4C0CD57C0
:10186000DF4F8881C358D040233009F07EC08150BB
:10187000CC57DF4F6881C458D0408F71CD57DF4FB0
:101880008883C358D0406F70CC57DF4F6883C458EB
:10189000D040C757DF4F9881C958D040981709F4F6
:1018A0006AC0660F660F880F880F0E94731181113E
:1018B000B9C00E946411CE0101960E94C80AC657A1
:1018C000DF4F6881CA58D040C757DF4F8881C95859
:1018D000D0400E947A0BCC57DF4F6881C458D0406B
:1018E000CD57DF4F8881C358D0400E94E512602F4A
:1018F000812F0E94E512C657DF4F6881CA58D04039
:10190000C757DF4F8881C958D0400E94E5127FE752
:101910008AE196E0715080409040E1F700C00000FD
:10192000CB57DF4F1881C558D040CA57DF4F0881C9
:10193000C658D04020910A24213009F042CFC55723
:10194000DF4F8881CB58D040833009F47DC0C55724
:10195000DF4F2883CB58D04041E050E04BCFCD57EC
:10196000DF4F8881C358D0408F5FCC57DF4F6881ED
:10197000C458D04082CFC657DF4F9881CA58D04054
:1019800096138FCFC957DF4F88819981C758D040B0
:101990000196C957DF4F88839983C758D04064E6C2
:1019A00070E00E949713BE0166577F4FCE018757A4
:1019B0009F4F0E94430B7DCF80910A24823011F00B
:1019C000422F18CF21115AC040E050E013CF2130F0
:1019D00009F44AC0C557DF4FF882CB58D04043E0E6
:1019E00050E023E007CFCC57DF4F6881C458D04088
:1019F0006F5FCD57DF4F8881C358D0403ECFCC5763
:101A0000DF4F6881C458D0406150CD57DF4F888187
:101A1000C358D04032CF80910A24823079F142E01D
:101A200050E0E8CEC957DF4F8881C758D0400E94A8
:101A30005813C557DF4FCDBFDEBFDF91CF911F9148
:101A40000F91FF90EF90089580910A24833011F256
:101A500080910A24882309F4C5CE80910A2482301B
:101A600069F023E0422FC6CE80910A24882309F42E
:101A7000B9CE80910A24823009F0A2CFC557DF4F3A
:101A8000E882CB58D04042E050E022E0B3CE02984A
:101A90000A98E2E1F4E080818860808380818F771A
:101AA00080838081887F808322982A98E2E3F4E013
:101AB0008081877F808380818F7780838081887F0A
:101AC000808301980998E1E1F4E080818860808357
:101AD00080818F7780838081887F808304980C98B1
:101AE000E4E1F4E080818860808380818F77808367
:101AF0008081887F808303980B98E3E1F4E0808104
:101B00008860808380818F7780838081887F8083D5
:101B100005980D98E5E1F4E08081886080838081FC
:101B20008F7780838081887F808321982998E1E363
:101B3000F4E08081877F808380818F7780838081BC
:101B4000887F808320982898E0E3F4E08081877F75
:101B5000808380818F7780838081887F8083E0E0AD
:101B6000F2E010821382118212820895789480E04C
:101B7000089580E00895FC0164BF4083089540E02B
:101B800068ED81E690E00E94BB0D80E00895E0E101
:101B9000F4E0808188608193E83184E0F807C9F738
:101BA000E0E3F4E0808188608193E83384E0F80723
:101BB000C9F7089580E0089541E068ED80E890E07D
:101BC0000E94BB0D80E008951F920F920FB60F92F6
:101BD00011248F9381E080938A008F910F900FBE24
:101BE0000F901F901895809141018111FCCF809139
:101BF00051018111FCCF89E38093500181E08093F2
:101C000052018093400180E008950E94C70D0E9418
:101C1000470D0E94DA0D0E94DC0D0E94B90D0E9452
:101C2000BF0D0E94F30D0C94B60D8093180890918F
:101C300015088091150890748071892BC1F380E09C
:101C400008959091150893709330D9F090911408ED
:101C50009B7F9093140880931708282F217080FF92
:101C600007C08091150887FFFCCF20E0822F0895E0
:101C70009091150896FDFACF9091150896FFF8CF30
:101C8000F5CF21E0822F0895FF920F931F93CF93FA
:101C9000DF93F82E192F062F88E70E94210E8091DE
:101CA00015088370823059F10023C9F0CF2DD12F50
:101CB000015010E00F5F1F4F0C0F1D1F04C0219635
:101CC000C017D10761F08091150883708230B9F791
:101CD00088810E94150E2196C017D107A1F7809127
:101CE00014088460809314088091140883608093A2
:101CF0001408DF91CF911F910F91FF90089580E01C
:101D00000E94150ED1CFCF93DF9300D000D0CDB776
:101D1000DEB7E6E0F4E2808361836055698391E297
:101D20009A838B838FE78C8364E0CE0101960E94B7
:101D3000440E2496CDBFDEBFDF91CF910895EF9280
:101D4000FF920F931F93CF93DF937C018B0188E762
:101D50000E94210E809115088370823041F1011597
:101D60001105A1F0E7010E0D1F1D04C02196C0173B
:101D7000D10761F08091150883708230B9F78881AE
:101D80000E94150E2196C017D107A1F78091140863
:101D900084608093140880911408836080931408F1
:101DA000DF91CF911F910F91FF90EF90089580E404
:101DB0000E94150ED4CF982F990F890F880F813864
:101DC00010F4683008F008950C94830E0F931F935D
:101DD000CF93DF9306E010E2C0E0D0E8F8018D2F4A
:101DE00011928A95E9F76C2F80E00E94830E60E8DB
:101DF00070E0C8010E949F0ECF5F00581F4FC8308F
:101E000069F760E080E0DF91CF911F910F910C9412
:101E1000830ECF93DF93CDB7DEB76C97CDBFDEBF18
:101E200098E29093160893E0909313089091140809
:101E300098609093140890911508916090931508FC
:101E400090911508906C90931508ECEEF2E0DE018D
:101E500011969E01245E3F4F94919D933196A21757
:101E6000B307D1F78C8F6CE1CE0101960E94440E2E
:101E70000E94E60E6C96CDBFDEBFDF91CF91089534
:101E80006F927F928F929F92BF92CF92DF92EF924A
:101E9000FF920F931F93CF93DF93CDB7DEB72C97AD
:101EA000CDBFDEBF893009F48CC068F18A30C9F03B
:101EB0008D3009F059C060910724683008F4A9C03A
:101EC0002C96CDBFDEBFDF91CF911F910F91FF9078
:101ED000EF90DF90CF90BF909F908F907F906F900A
:101EE000089560910724673058F780910624982F51
:101EF000990F890F880F813818F790910420690F86
:101F00006830F0F61FC0883079F510910420809178
:101F10000624811B982F990F890F880F813808F4A8
:101F200069C080E20E94400F80910624811B982F97
:101F3000990F890F880F813818F66091072468304F
:101F400008F0BECF2C96CDBFDEBFDF91CF911F91A1
:101F50000F91FF90EF90DF90CF90BF909F908F9068
:101F60007F906F900C94830EB090062499E7792EA1
:101F70007B1408F4A5CF803208F4A2CF8052909150
:101F80000420923009F447C09091072426E0829FF4
:101F9000F0011124E458FF4FAB2DB0E030E8939FDF
:101FA000A00DB11D1124AA5FBF4D86E094919D93B1
:101FB000815031968111FACF86E08B0D80930624F3
:101FC0007FCF8091062490910420292F30E0220FAA
:101FD000331F220F331FB901680F711D45E150E017
:101FE0003A01621A730A6615770560F4990F990F22
:101FF000890F9DCF60910724683008F092CF0E942E
:10200000830E8FCF60910724683008F059CF8EE798
:1020100099CF80E097CF9E012F5F3F4F690136E057
:10202000839FF0011124E458FF4F4E018DE0880E8C
:10203000911CD601EE24E394F12C1D921C92119771
:10204000049110E021E030E080E090E0A801082E4B
:1020500002C0559547950A94E2F740FF1BC06D9169
:102060007C911197A701022E02C0440F551F0A94BC
:10207000E2F7642B752BAC01440F551F370102C0EA
:10208000660C771C4A95E2F7A301462B572B4D931C
:102090005C93119701962E5F3F4F88309105B1F602
:1020A00012963196A815B90541F62B2D30E0E09136
:1020B0000724F0E03196F695FE2FEE27F795E79589
:1020C000C901DF01A80FB91FAA5FBF4DE80FF91FB3
:1020D000AF014A57504EF60180819181F2E0CF0E58
:1020E000D11C9C9311969C931197FA018083818354
:1020F00012964E5F5F4FC814D90469F78CE08B0DC0
:1021000080930624DDCECF93DF93EC018881882372
:1021100031F021960E94400F89918111FBCFDF9110
:10212000CF91089587FD1BC06034C8F4E62FE69573
:10213000E695E69590E8E99FF0011124EA5FFF4DEE
:10214000E80FF11D677081E090E001C0880F6A958B
:10215000EAF7413029F080959081892380830895A2
:102160009081892B808308955F926F927F928F92E6
:102170009F92AF92BF92CF92DF92EF92FF920F9316
:102180001F93CF93DF93C82FD62F142F522E87FD86
:1021900042C047FD40C06034F0F58FE38217D8F1AC
:1021A000C42ED12CCC1AD108D7FC48C0C11708F4D2
:1021B00042C077247A94852C912C8D1A910897FC33
:1021C00044C0AA24BB24A818B908D515D8F16624A0
:1021D0006A947601E818F908402F6D2F8C2F0E9421
:1021E00092101C17B1F0C701880F991FA816B906E5
:1021F0001CF4E818F908C70D8C159D056CF7EC0C5C
:10220000FD1CD60D402F6D2F8C2F0E9492101C1399
:10221000EACF5D12E8CFDF91CF911F910F91FF9030
:10222000EF90DF90CF90BF90AF909F908F907F9076
:102230006F905F90089577247394BDCFD194C1942B
:10224000D108B4CF66246394C4CF9194819491084B
:10225000B8CFCF92DF92EF92FF920F931F93CF935D
:10226000DF93D82F162FD42EC02E481728F4122F04
:10227000262F8D2FD42FD82EE22EF12CE11AF10823
:10228000F7FC0FC0C0E0612F6C0F0C2D262F4D2DD9
:102290008D2F0E94B410CF5F8C2F90E0E816F906C6
:1022A00094F7DF91CF911F910F91FF90EF90DF9006
:1022B000CF90089560E080E00E94830E60E074E0BB
:1022C00086E090E20C949F0EE6E0F0E280E8DF0109
:1022D000982F1D929A95E9F7E058FF4FA4E2E63057
:1022E000FA07A9F7089587FD18C06034B0F4E62F07
:1022F000E695E695E69590E8E99FF0011124EA5FFE
:10230000FF4DE80FF11D677081E090E001C0880F7C
:102310006A95EAF790818923089580E00895EF9205
:10232000FF921F93CF93DF93162F683018F587FD28
:1023300021C0E82EF12CC42FD0E09E012E0D3F1DB0
:102340002138310524F040E8481BC42FD0E0612F2C
:102350000E94830EC70120E8129F800D911D112459
:10236000BE018A5F9F4DDF91CF911F91FF90EF904B
:102370000C949F0EDF91CF911F91FF90EF900895E5
:102380009B01220F331F620F731F229A25B12B7FEF
:1023900035B134604FB7F89461157105C9F0FC018F
:1023A000680F791F819198E035B9000000C000C026
:1023B00087FF25B9880F000000C000C000C000C022
:1023C00025B9000000C09A9579F7E617F70751F78D
:1023D0004FBF8BED95E00197F1F700C00000089525
:1023E00040E06FEF80E00E94D01260E087E00E9442
:1023F000DB0E8BE794EB0E94831063E083E00E9486
:10240000DB0E84E894EB0E94831067E086E00E9474
:10241000DB0E85E994EB0E9483100E945A110C9404
:102420004F130F931F93CF938C010E946411F801F7
:102430008181882311F1C0E013C06C2F82E00E94DB
:10244000DB0EF80184E0C89FE00DF11D11248281AC
:1024500093810E948310CF5FF8018181C81768F4CF
:102460006C2F80E00E94DB0EF80180818C13E5CF99
:1024700085EA94EB0E948310E0CFCF911F910F91DA
:102480000C945A11CF93DF93CDB7DEB7A297CDBF8F
:10249000DEBF8E010F5F1F4F82E2F80111928A9515
:1024A000E9F784E08A8388EA94EB8B839C838AE84B
:1024B0009BE08D839E838EEA94EB8F83988783EADB
:1024C00091E089879A878BEB94EB8B879C878DE0D3
:1024D00094E18D879E8786EC94EB8F87988B88E5B7
:1024E00094E0898B9A8BC8010E94111291E080912F
:1024F0000B24811111C080910C2481110DC0809199
:102500000B24811128C080910C24811114C090E00B
:1025100080910B24882379F380910B24882329F060
:102520009923C9F080910C24E2CF80910C24882358
:10253000F1F29111DCCF8981F80134E0839FE00D45
:10254000F11D11240480F581E02D0995C8010E9438
:10255000111291E0CCCF80910A2481110CC06A81C4
:1025600070E089819B01280F311DC90101970E94EC
:1025700074188983B8CF80910A24823009F0B3CFD0
:1025800089818F5F6A810E9468189983ACCF0E940D
:10259000050E8FEA0E94090F0E94F0110E9442125C
:1025A000CF93DF9300D01F92CDB7DEB78A836983C4
:1025B0004B8361E070E0CE0101960E94C01123962A
:1025C000CDBFDEBFDF91CF910895669544E0880FBF
:1025D000880F0C948F111F920F920FB60F92112437
:1025E0008F939F93149936C081E080930A24149BA3
:1025F00002C015993AC091E080910B24891709F423
:1026000040C0809109248F5F809309248091092420
:10261000843030F582B18695817091E08927909160
:102620000C24891769F0909108249F5F90930824E7
:1026300090910824943020F080930C241092082468
:1026400081E0809353019F918F910F900FBE0F9067
:102650001F901895159918C083E080930A24C7CF5E
:1026600090930B2410920924D5CF129BC4CF92B122
:1026700093FB992790F981E0982780910B24891387
:10268000C0CF10920924C6CF129B06C01399AFCFBA
:1026900082E080930A24ABCF10920A24A8CF8091C5
:1026A0000C248111FCCF80910C248823E1F3089540
:1026B0001F93CF93DF9300D01F92CDB7DEB7182FB3
:1026C0000E94641162E086E00E94DB0E8FEC94EBC6
:1026D0000E9483104AE0BE016F5F7F4F812F90E020
:1026E0000E94A61963E086E00E94DB0ECE010196EF
:1026F0000E9483108CED94EB0E94831065E083E0D0
:102700000E94DB0E88EE94EB0E9483100E945A1107
:1027100080910C248111FCCF80910C248823E1F35B
:102720002396CDBFDEBFDF91CF911F910895CF9249
:10273000DF92EF92FF920F931F93CF93DF93CDB76A
:10274000DEB72797CDBFDEBF6817790708F4CB0146
:1027500022273327AB01569547953795DC019927FA
:102760008827B695A79597950E94E7186B017C017D
:1027700000E010E820E030E0061B170B280B390BB7
:1027800040E050E86FE770E00E949318905CAF4F14
:10279000BF4F2BF4BFE7AFEF8A2F9A2F02C08827D5
:1027A00090788C839D83AE83BF83970186010E94BE
:1027B0009318905CAF4FBF4F2BF4BFE7AFEF8A2F5A
:1027C0009A2F02C0882790784C815D816E817F812D
:1027D00077231AF4413050486F4F262F550F221F90
:1027E0002A83BB231AF481309048AF4F8A2F990F68
:1027F000881F89831B8261E070E0CE0101960E94F0
:10280000C0112796CDBFDEBFDF91CF911F910F91F1
:10281000FF90EF90DF90CF9008952F923F924F92CC
:102820005F926F927F928F929F92AF92BF92CF9260
:10283000DF92EF92FF920F931F93CF93DF93CDB769
:10284000DEB7A697CDBFDEBF0E94641180910C2435
:102850008111FCCF80E090E0A0E4B0E020E030E027
:1028600041E050E00E94E7186F8F78A389A39AA3F4
:1028700080E090E0A0E2B0E00E94E7186D8B7E8BD4
:102880008F8B988F20E030E040E150E02D873E872D
:102890004F87588B198A1A8A1B8A1C8A1B8E1C8E9A
:1028A0001D8E1E8E0E94E60E1CA298E0392E88EF27
:1028B000830D8BA389EF282E198E1A8E498D4D8397
:1028C000E98DFA8D88279927DF01B595A79597950A
:1028D0002F8D38A149A15AA1821B930BA40BB50BD4
:1028E0002D853E854F8558890E94E7182B8D3C8D9C
:1028F0004D8D5E8D260F371F481F591F29873A8738
:102900004B875C873BA139834D814EA35981852F2D
:1029100090E0DC0199278827B595A79597952D8993
:102920003E894F89588D821B930BA40BB50B2D85C7
:102930003E854F8558890E94E71829893A894B8935
:102940005C89260F371F481F591F2D833E834F83F5
:102950005887E4E1812C912C54017501640139817F
:102960003DA31AC003970CF066C0C501092CBB201B
:1029700042F418141A94E89417F8011C1124811DCC
:10298000911D000C881F991F97FDA2C003970CF0A2
:10299000A5C0E15009F4A5C097018601B701A601C1
:1029A0000E94931829853A854B855C85280F391F2D
:1029B0004A1F5B1F29833A834B835C8397018601FF
:1029C000B501A4010E9493188C019D0140E050E0E4
:1029D00061E070E00E9493182C013D019501840193
:1029E000B501A4010E949318C980DA80EB80FC80B5
:1029F000C81AD90AEA0AFB0A8D809E80AF80B88483
:102A0000840C951CA61CB71CC7010D2CFF2042F49A
:102A10001C141A94E89417F8011C1124811D911DAF
:102A2000000C881F991F97FF9DCF91958195910963
:102A300003970CF49ACFFDA1F983F981FF5FF98325
:102A4000F31164CF298D3A8D2F5F3F4F298F3A8F35
:102A5000C90187709927892B09F450C0239439E75D
:102A600023122CCF4CA14F5F4CA358E0350E4830B9
:102A700009F01DCF80910C24811108C080910B2496
:102A8000811142C080910C248823C1F380910C24D1
:102A9000882379F084E603C0815009F45AC0AFE47A
:102AA000B3EC1197F1F700C0000090910C24911144
:102AB000F3CF0D851E852F85388940E050E061E019
:102AC00070E00E9493188D879E87AF87B88BEACEFF
:102AD00091958195910903970CF45BCFEDA1E98362
:102AE00007C0EDA1E98341E06E2F8EA10E949210F4
:102AF000F981FF5FF983F31109CFA4CF48E06CA1FE
:102B0000822D0E948F11AACF80910A24833009F46C
:102B100069C080910A24813009F44DC080910A2453
:102B200081112DC080E090E8ACE0B0E02D853E85BD
:102B30004F8558890E94E71829893A894B895C8911
:102B4000261B370B480B590B298B3A8B4B8B5C8B15
:102B5000A9CEA696CDBFDEBFDF91CF911F910F9179
:102B6000FF90EF90DF90CF90BF90AF909F908F90AD
:102B70007F906F905F904F903F902F90089580913D
:102B80000A24823009F08ECE80E090E8ACE0B0E01C
:102B90002D853E854F8558890E94E71829893A89F5
:102BA0004B895C89260F371F481F591F298B3A8B89
:102BB0004B8B5C8B77CE80E090E0A9E1B0E02D8577
:102BC0003E854F8558890E94E7182B8D3C8D4D8D91
:102BD0005E8D260F371F481F591F2B8F3C8F4D8F3F
:102BE0005E8F60CE80E090E0A9E1B0E02D853E856B
:102BF0004F8558890E94E7182B8D3C8D4D8D5E8D39
:102C0000261B370B480B590B2B8F3C8F4D8F5E8F3C
:102C100049CE5058BB27AA270E9421160C94221790
:102C20000E94141738F00E941B1720F039F49F3FC0
:102C300019F426F40C9411170EF4E095E7FB0C94AC
:102C40000B17E92F0E94331758F3BA17620773075F
:102C50008407950720F079F4A6F50C9455170EF427
:102C6000E0950B2EBA2FA02D0B01B90190010C019C
:102C7000CA01A0011124FF27591B99F0593F50F4B4
:102C8000503E68F11A16F040A22F232F342F44270C
:102C9000585FF3CF469537952795A795F040539504
:102CA000C9F77EF41F16BA0B620B730B840BBAF0D4
:102CB0009150A1F0FF0FBB1F661F771F881FC2F73F
:102CC0000EC0BA0F621F731F841F48F48795779553
:102CD0006795B795F7959E3F08F0B0CF9395880F0D
:102CE00008F09927EE0F9795879508950E94E716AB
:102CF00008F481E008950E943B1788F09F5798F0F0
:102D0000B92F9927B751B0F0E1F0660F771F881FF0
:102D1000991F1AF0BA95C9F714C0B13091F00E940A
:102D20005517B1E008950C945517672F782F882711
:102D3000B85F39F0B93FCCF3869577956795B39531
:102D4000D9F73EF490958095709561957F4F8F4FA0
:102D50009F4F0895E89409C097FB3EF490958095A5
:102D6000709561957F4F8F4F9F4F9923A9F0F92F51
:102D700096E9BB279395F695879577956795B795CF
:102D8000F111F8CFFAF4BB0F11F460FF1BC06F5FB5
:102D90007F4F8F4F9F4F16C0882311F096E911C0C7
:102DA000772321F09EE8872F762F05C0662371F0E8
:102DB00096E8862F70E060E02AF09A95660F771FFC
:102DC000881FDAF7880F9695879597F90895990FD8
:102DD0000008550FAA0BE0E8FEEF16161706E807E5
:102DE000F907C0F012161306E407F50798F0621B06
:102DF000730B840B950B39F40A2661F0232B242BDB
:102E0000252B21F408950A2609F4A140A6958FEFF9
:102E1000811D811D089597F99F6780E870E060E04B
:102E200008959FEF80EC089500240A941616170663
:102E300018060906089500240A94121613061406AB
:102E400005060895092E0394000C11F4882352F00E
:102E5000BB0F40F4BF2B11F460FF04C06F5F7F4FC6
:102E60008F4F9F4F089557FD9058440F551F59F0AD
:102E70005F3F71F04795880F97FB991F61F09F3F67
:102E800079F087950895121613061406551FF2CF90
:102E90004695F1DF08C0161617061806991FF1CFE0
:102EA00086957105610508940895E894BB27662707
:102EB0007727CB0197F908950E94E71608F48FEF62
:102EC00008950E9474170C9422170E94141738F06A
:102ED0000E941B1720F0952311F00C940B170C94F3
:102EE000111711240C9456170E94331770F3959FF5
:102EF000C1F3950F50E0551F629FF001729FBB27F1
:102F0000F00DB11D639FAA27F00DB11DAA1F649F8C
:102F10006627B00DA11D661F829F2227B00DA11D3F
:102F2000621F739FB00DA11D621F839FA00D611DC5
:102F3000221F749F3327A00D611D231F849F600DE6
:102F4000211D822F762F6A2F11249F5750409AF00F
:102F5000F1F088234AF0EE0FFF1FBB1F661F771F9B
:102F6000881F91505040A9F79E3F510580F00C9466
:102F70000B170C9456175F3FE4F3983ED4F38695F5
:102F800077956795B795F795E7959F5FC1F7FE2B06
:102F9000880F911D9695879597F908950E943B1784
:102FA000E8F09E37E8F09639B8F49E3848F4672F79
:102FB000782F8827985FF9CF8695779567959395B1
:102FC0009539D0F3B62FB1706B0F711D811D20F4B0
:102FD00087957795679593950C9438180C945318AA
:102FE0000C94561719F416F40C9411170C945318EA
:102FF0000E943B17B8F39923C9F3B6F39F57550BBB
:1030000087FF0E9461180024A0E640EA90018058E2
:103010005695979528F4805C660F771F881F20F0DF
:1030200026173707480730F4621B730B840B2029DF
:1030300031294A2BA69517940794202531254A2734
:1030400058F7660F771F881F20F0261737074807A5
:1030500030F4620B730B840B200D311D411DA095C4
:1030600081F7B901842F9158880F96958795089517
:10307000882371F4772321F09850872B762F07C08F
:10308000662311F499270DC09051862B70E060E003
:103090002AF09A95660F771F881FDAF7880F9695A2
:1030A000879597F908959F3F31F0915020F48795C7
:1030B00077956795B795880F911D9695879597F9A0
:1030C000089591505040660F771F881FD2F70895DA
:1030D000991B79E004C0991F961708F0961B881F6A
:1030E0007A95C9F78095089597FB072E16F40094FA
:1030F00007D077FD09D00E94271907FC05D03EF4C0
:10310000909581959F4F0895709561957F4F089593
:103110000E94AC16992311F080589740089580586A
:10312000984F0C944319E8940E94AA18772312F43C
:10313000A01BB10B37FF02C0A41BB50B000C881FEE
:10314000991FAA1FBB1F000C811D911DA11DB11D40
:103150000895689488279927049FD001149FB00D83
:10316000811D059FB00D811D991F16F4B7FD0196B5
:10317000BF93069F800D911DAA0B159F800D911D79
:10318000A040249F800D911DA040A195079F900D08
:10319000A11DBB0B169F900DA11DB040259F900D4A
:1031A000A11DB040349F900DA11DB040B195179F57
:1031B000A00DB11D269FA00DB11D359FA00DB11D05
:1031C000279FB00D369FB00D0F90112408950B2E40
:1031D000052657FF07C050954095309521953F4FE4
:1031E0004F4F5F4FB7FF07C0B095A0959095819561
:1031F0009F4FAF4FBF4F0E940519969587957795C2
:10320000679507FE08950C943B19E0E21E2EEE2709
:10321000FF27BF01880F991FAA1FBB1FEE1FFF1FAB
:1032200038F0A217B307E407F50710F4661F05C0CE
:10323000A21BB30BE40BF50B660F771F881F991FBA
:103240001A9451F760957095809590950895AA1BF2
:10325000BB1B51E107C0AA1FBB1FA617B70710F081
:10326000A61BB70B881F991F5A95A9F780959095B3
:10327000BC01CD01089590958095709561957F4F23
:103280008F4F9F4F08950E947B166894B1110C9444
:10329000561708958F929F92AF92BF92CF92DF926E
:1032A000EF92FF92CF93DF93EC01688179818A815D
:1032B0009B81611571058105910521F464E279ED29
:1032C0008BE597E02DE133EF41E050E00E94DB1900
:1032D00049015A019B01AC01A7EAB1E40E94F2192D
:1032E0006B017C01ACEEB4EFA50194010E94001AC1
:1032F000DC01CB018C0D9D1DAE1DBF1DB7FF03C0B2
:103300000197A109B04888839983AA83BB839F77DB
:10331000DF91CF91FF90EF90DF90CF90BF90AF9073
:103320009F908F9008950E944A19089580E090E23E
:103330000E944A190895A0E0B0E080930020909385
:103340000120A0930220B09303200895BB274A30A8
:1033500031F4992322F4BDE2909581959F4F0C940E
:10336000B219BB27FB015527AA27880F991FAA1F4F
:10337000A41710F0A41B83955051B9F7A05DAA3390
:1033800008F0A95DA193009779F7B111B19311925B
:10339000CB010C94CB19DC01FC01672F71917723D1
:1033A000E1F7329704C07C916D9370836291AE1700
:1033B000BF07C8F30895052E97FB1EF400940E94E2
:1033C0003B1957FD07D00E94051A07FC03D04EF4A5
:1033D0000C943B1950954095309521953F4F4F4F98
:1033E0005F4F08950E94271AA59F900DB49F900DDE
:1033F000A49F800D911D11240895B7FF0C94F2191C
:103400000E94F219821B930B0895A1E21A2EAA1BA7
:10341000BB1BFD010DC0AA1FBB1FEE1FFF1FA21784
:10342000B307E407F50720F0A21BB30BE40BF50B81
:10343000661F771F881F991F1A9469F7609570950A
:10344000809590959B01AC01BD01CF010895A29F8D
:10345000B001B39FC001A39F700D811D1124911D68
:10346000B29F700D811D1124911D0895F894FFCF16
:103470006E657874207374616765007E54696E7937
:1034800050437E0028707265737320746F207374CC
:1034900061727429006279205061756C204B6C69EF
:1034A0006E676572002A2000536E616B650047618C
:1034B0006D65206F66204C696665004D616E6465C0
:1034C0006C62726F7400427265616B6F7574004755
:1034D000414D45204F564552210D0A0020706F691D
:1034E0006E74730D0A0D0A00287072657373207470
:0A34F0006F2072657475726E29007A
:0634FA00010000000100CA
:02000004008278
:090000000000020000C40700002A
:00000001FF
