:100000000C9484010C94A1010C9440020C94A10165
:100010000C94A1010C94A1010C94A1010C94EC0985
:100020000C94A1010C94A1010C94A1010C94A101C8
:100030000C94A1010C94A1010C94A1010C94A101B8
:100040000C94A1010C94A1010C94A1010C94A101A8
:100050000C94A1010C94A1010C94A1010C94A10198
:100060000C94A1010C94A1010C94A1010C94A10188
:100070000C94A1010C94A1010C94A10100000000BA
:1000800000000000002F000000000700070000141F
:100090007F147F1400242A7F2A120062640813232D
:1000A00000364955225000000503000000001C22C4
:1000B0004100000041221C000014083E0814000802
:1000C000083E0808000000A06000000808080808B2
:1000D000000060600000002010080402003E51494A
:1000E000453E0000427F40000042615149460021E8
:1000F00041454B31001814127F1000274545453902
:10010000003C4A494930000171090503003649495C
:10011000493600064949291E000036360000000015
:100120005636000000081422410000141414141460
:100130000000412214080002015109060032495909
:10014000513E007C1211127C007F49494936003E25
:1001500041414122007F4141221C007F49494941E0
:10016000007F09090901003E4149497A007F0808DA
:10017000087F0000417F4100002040413F01007F97
:1001800008142241007F40404040007F020C027F63
:10019000007F0408107F003E4141413E007F090975
:1001A0000906003E4151215E007F0919294600469B
:1001B000494949310001017F0101003F4040403F72
:1001C000001F2040201F003F4038403F00631408BC
:1001D0001463000708700807006151494543000097
:1001E0007F41410000552A552A55000041417F00BA
:1001F00000040201020400404040404000000102AF
:100200000400002054545478007F48444438003897
:100210004444442000384444487F0038545454181F
:1002200000087E0901020018A4A4A47C007F080431
:1002300004780000447D4000004080847D00007F01
:10024000102844000000417F4000007C041804781E
:10025000007C0804047800384444443800FC24241A
:1002600024180018242418FC007C08040408004802
:100270005454542000043F444020003C4040207C23
:10028000001C2040201C003C4030403C0044281012
:100290002844001CA0A0A07C004464544C440000EE
:1002A000087741000000006300000000417708006B
:1002B000000804080804003A4040207A003D40400D
:1002C000403D002154545479007D1211127D0039B3
:1002D00044444439003D4242423D000205020000D0
:1002E000007E01495573007C1010081CAE2000B040
:1002F000C8001040813FA1A6A83FA4D300D5F0D9E3
:1003000022DA12DB208D140011241FBECFEFCDBFE7
:10031000DFE3DEBF10E2A0E0B0E2EAE4FBE102C00E
:1003200005900D92A630B107D9F724E2A6E0B0E21D
:1003300001C01D92AD30B207E1F70E94DF060C94B8
:10034000720D0C94000002980A98E2E1F4E08081BA
:100350008860808380818F7780838081887F80839D
:1003600022982A98E2E3F4E08081877F808380816D
:100370008F7780838081887F808301980998E1E16D
:10038000F4E080818860808380818F7780838081A2
:10039000887F808304980C98E4E1F4E08081886091
:1003A000808380818F7780838081887F808303989A
:1003B0000B98E3E1F4E080818860808380818F770F
:1003C00080838081887F808305980D98E5E1F4E043
:1003D00080818860808380818F7780838081887F1F
:1003E000808321982998E1E3F4E08081877F8083EE
:1003F00080818F7780838081887F80832098289870
:10040000E0E3F4E08081877F808380818F77808341
:100410008081887F8083E0E0F2E010821382118285
:1004200012820895789480E0089580E00895FC0198
:1004300064BF4083089540E068ED81E690E00E944B
:10044000170280E00895E0E1F4E080818860819304
:10045000E83184E0F807C9F7E0E3F4E080818860E0
:100460008193E83384E0F807C9F7089580E00895A0
:1004700041E068ED80E890E00E94170280E0089576
:100480001F920F920FB60F9211248F9381E08093E9
:100490008A008F910F900FBE0F901F9018950E94A9
:1004A00023020E94A3010E9436020E9438020E9489
:1004B00015020E941B020E945B0A0E94120208950C
:1004C000E0E1F8E088E2868383E0838384818860CA
:1004D00084838581816085838581806C858308958F
:1004E0009091150893709330A9F0E0E1F8E09481C1
:1004F0009B7F94838783282F217080FF05C085818F
:100500008823ECF720E007C0E0E1F8E0958196FF52
:10051000FDCF01C021E0822F0895909115089370BE
:10052000923061F480931808E0E1F8E095818581CC
:1005300090748071892BD1F380E0089581E0089553
:10054000E0E1F8E084818460848384818360848333
:100550000895EF92FF920F931F93CF93DF937C0147
:10056000162F88E70E94700280E00E948D021123FE
:1005700071F0E7011150012F10E00F5F1F4F0E0DBA
:100580001F1D89910E948D02C017D107D1F70E94CB
:10059000A002DF91CF911F910F91FF90EF900895EE
:1005A000EF92FF920F931F93CF93DF937C018B0108
:1005B00088E70E94700280E40E948D0201151105F7
:1005C00049F0E7010E0D1F1D89910E948D02C01791
:1005D000D107D1F70E94A002DF91CF911F910F9117
:1005E000FF90EF900895CF93DF9300D000D0CDB768
:1005F000DEB7813890F4683080F4E6E0F4E280837E
:1006000061836055698391E29A838B838FE78C8342
:1006100064E0CE0101960E94A9022496CDBFDEBF00
:10062000DF91CF910895982F990F890F880F0E941D
:10063000F302089560E080E00E94130308950F9391
:100640001F93CF93DF9306E010E2C0E0D0E8F801FB
:100650008D2F11928A95E9F76C2F80E00E94130389
:1006600060E870E0C8010E94D002CF5F00581F4FC1
:10067000C83069F70E941A03DF91CF911F910F9143
:1006800008951F93CF93DF93CDB7DEB76C97CDBF9F
:10069000DEBF182F0E946002ECEEF2E0DE01119640
:1006A0009E01245E3F4F84918D933196A217B3072C
:1006B000D1F71C8F6CE1CE0101960E94A9020E9425
:1006C0001F036C96CDBFDEBFDF91CF911F910895C0
:1006D0004F925F926F927F929F92AF92BF92CF9212
:1006E000DF92EF92FF920F931F93CF93DF93CDB7DB
:1006F000DEB72C97CDBFDEBF8930F1F018F488301B
:1007000039F050C08A30D9F18D3009F445C04AC063
:10071000F090042006E014E2F801808161818F19D5
:100720000E94130380E20E946803F80180816181C6
:100730008F190E941303EDC080910624909104202C
:10074000292F30E0220F331F220F331FB901680F0A
:10075000711D45E150E02A01421A530A64157505DE
:1007600040F4990F990F60910724890F0E94130399
:10077000D0C06091072485E10E941303CAC0809114
:100780000724873008F0C5C060910420680F80916D
:1007900006240E941303BDC06091072480E00E94DC
:1007A0001303B7C0909006240F2EF9E75F2EF02DAB
:1007B000591408F4AEC0803208F4ABC08052909156
:1007C0000420923009F085C09E012F5F3F4F7901D0
:1007D00090E05C01AA0CBB1C8A0D9B1D880F991F21
:1007E000FC01E458FF4F5F013E01FDE06F0E711CFC
:1007F000690101E010E0D6011D921C921197F501EC
:10080000449121E030E080E090E0E42FF0E0AF019F
:10081000082E02C0559547950A94E2F740FF1BC089
:100820006D917C911197A801022E02C0440F551FB3
:100830000A94E2F7642B752BAC01440F551F280175
:1008400002C0440C551C4A95E2F7A201462B572BD7
:100850004D935C93119701962E5F3F4F8830910521
:10086000B1F622E0C20ED11C3FEFA31AB30AC614A0
:10087000D70409F0C0CFE92DF0E090910724892F2B
:1008800090E001969695982F882797958795DF0198
:10089000A80FB91FAA5FBF4DE80FF91FAF014A5754
:1008A000504EF70180819181F2E0EF0EF11C9C9394
:1008B00011969C931197FA018083818312964E5F63
:1008C0005F4FE614F70469F78CE0890D80930624E6
:1008D00020C02091072490E0FC01EE0FFF1FE80FDD
:1008E000F91FEE0FFF1FE458FF4FA92DB0E030E8CD
:1008F000239FA00DB11D1124AA5FBF4D86E09491E6
:100900009D93815031968111FACF86E0890D8093B5
:1009100006242C96CDBFDEBFDF91CF911F910F91A2
:10092000FF90EF90DF90CF90BF90AF909F907F901F
:100930006F905F904F900895CF93DF93EC01888183
:10094000882331F021960E94680389918111FBCFA1
:10095000DF91CF9108958823A4F1603490F5413060
:10096000C1F4E62FE695E695E69590E8E99FF0015B
:100970001124EA5FFF4DE80FF11D677081E090E000
:1009800002C0880F991F6A95E2F79081892B8083B6
:100990000895E62FE695E695E69590E8E99FF00143
:1009A0001124EA5FFF4DE80FF11D677081E090E0D0
:1009B00002C0880F991F6A95E2F78095908189237C
:1009C000808308955F926F927F928F929F92AF92F1
:1009D000BF92CF92DF92EF92FF920F931F93CF932C
:1009E000DF93C82FD62F142F522E88230CF44CC01F
:1009F00044230CF449C0603408F046C08FE38217EA
:100A000008F442C0842F90E08C1B91096C0122F401
:100A1000CC24DD24C81AD90AC11718F077247A9497
:100A200002C077247394852D90E08D1B91095C01A1
:100A300022F4AA24BB24A81AB90A4501B194A194AE
:100A4000B108D51518F066246A9402C06624639430
:100A50007601E818F908402F6D2F8C2F0E94AB0407
:100A6000C11302C0D51581F0C701880F991FA816C0
:100A7000B9061CF4E818F908C70D8C159D055CF73C
:100A8000EC0CFD1CD60DE7CFDF91CF911F910F919C
:100A9000FF90EF90DF90CF90BF90AF909F908F909E
:100AA0007F906F905F900895CF92DF92EF92FF92C8
:100AB0000F931F93CF93DF93D82F162FD42EC02ED2
:100AC000481728F4122F262F8D2FD42FD82EE22E40
:100AD000F12CE11AF1087AF0C0E0612F6C0F0C2DB7
:100AE000262F4D2D8D2F0E94E204CF5F8C2F90E09A
:100AF000E816F90694F7DF91CF911F910F91FF90BF
:100B0000EF90DF90CF90089560E080E00E941303A3
:100B100060E074E086E090E20E94D0020895E6E092
:100B2000F0E226E034E280E8DF01982F1D929A95EA
:100B3000E9F7E058FF4FE217F307B1F7089588236C
:100B4000CCF06034C8F4E62FE695E695E69590E89B
:100B5000E99FF0011124EA5FFF4DE80FF11D677076
:100B600081E090E002C0880F991F6A95E2F79081BA
:100B70008923089580E0089580E008950F931F93DE
:100B8000CF93DF93082F10E09801240F311D2138F7
:100B9000310594F4683080F4C42FD62F0E94F302FC
:100BA0006C2F70E0C80120E8D29F800D911D1124A8
:100BB0008A5F9F4D0E94D002DF91CF911F910F91CC
:100BC00008959B01220F331F620F731F229A25B1D4
:100BD0002B7F35B134604FB7F89461157105C9F0BA
:100BE000FC01680F791F919188E035B9000000C0C1
:100BF00000C097FF25B9990F000000C000C000C0D9
:100C000000C025B9000000C08A9579F7E617F707FC
:100C100051F74FBF8BED95E00197F1F700C0000051
:100C2000089540E06FEF80E00E94D0098FEA0E94B3
:100C3000410360E087E00E94130388EE9AE90E9476
:100C40009C0463E083E00E94130381EF9AE90E9411
:100C50009C0467E086E00E94130382E09BE90E9407
:100C60009C040E9484050E94500A08950F931F93CC
:100C7000CF938C010E948F05F8018181882301F1B7
:100C8000C0E06C2F80E00E941303F80180818C1378
:100C900004C082E19BE90E949C046C2F82E00E94C8
:100CA0001303F80184E0C89FE00DF11D1124828137
:100CB00093810E949C04CF5FF8018181C81708F3DB
:100CC0000E948405CF911F910F910895CF93DF93D8
:100CD000CDB7DEB7A297CDBFDEBFCE01019622E22F
:100CE000FC0111922A95E9F722E02A8325E13BE9EC
:100CF0002B833C8320EA38E02D833E832BE13BE9C4
:100D00002F83388725E53AE029873A870E943606FF
:100D100091E080910B24811105C080910C248823DF
:100D200009F443C080910B24882311F1911120C054
:100D300080910A2481110CC06A8170E089819B0135
:100D4000280F311DC90101970E94560C89830AC0E2
:100D500080910A24823031F489818F5F6A810E94F8
:100D60004A0C9983CE0101960E94360691E0D1CFBC
:100D700080910C24882369F29111CBCFE981F0E0B6
:100D80003196EE0FFF1FEE0FFF1F81E090E08C0FFA
:100D90009D1FE80FF91F0190F081E02D0995CE010C
:100DA00001960E94360691E0B4CF80910B24811108
:100DB000BFCF80910C248111E1CF90E0AACF0E9497
:100DC0004F020E9411060E9466060F93660F660F7F
:100DD000880F880F23E0260F43E0480F01E00E94B0
:100DE00054050F9108950F93FC01E757FF4F608161
:100DF000660F660F31978081880F880F22E0260FDB
:100E000042E0480F6F5F01E08F5F0E9454050F9131
:100E100008959B013695279536952795820F931F48
:100E2000FC01808190E063707727660F771F02C016
:100E3000959587956A95E2F783700895FB01F6957D
:100E4000E795F695E79563707727660F771FE80FAC
:100E5000F91F23E030E0062E02C0220F331F0A9450
:100E6000E2F720958081282350E002C0440F551FEF
:100E70006A95E2F7422B408308958F929F92AF923A
:100E8000BF92CF92DF92EF92FF920F931F93CF9377
:100E9000DF93FC01E058FF4FC081D1813696A080DE
:100EA000B1803497008131961081A114B10409F406
:100EB00041C04C016C0184E8C80ED11C7401E5E806
:100EC000EE0EF11CF1E0AF16B104A9F4F6010083B7
:100ED000F7011083D170612F802F0E94E506BE01BB
:100EE000C4010E9409078130E9F0B0F08230B1F00E
:100EF0008330B1F01FC0D170612F802F0E94E506B2
:100F0000BE01C4010E940907813061F028F08230DF
:100F100029F0833029F007C01F5F05C0115003C0BE
:100F20000F5F01C001501F700F712197F1E0AF1AE0
:100F3000B10841F6DF91CF911F910F91FF90EF9093
:100F4000DF90CF90BF90AF909F908F9008950F93B8
:100F50001F93CF93DF93EC01FC01E058FF4F6081BA
:100F600071816F5F7F4F7170608371838C01065751
:100F70001F4FF80140810E941E07F80180818130D7
:100F8000D9F060F0823019F0833079F01BC0FE0197
:100F9000ED57FF4F80818F5F808314C0FE01ED57B6
:100FA000FF4F8081815080830DC0FE01EE57FF4FBF
:100FB00080818150808306C0FE01EE57FF4F808103
:100FC0008F5F8083FE01EE57FF4F80818F7180839A
:100FD000CD57DF4F88818F708883DF91CF911F912C
:100FE0000F9108950F931F93CF93DF93EC01C85790
:100FF000DF4F8C0107571F4F0E94CA0C8F719078EA
:10100000992324F40197806E9F6F019688830E9434
:10101000CA0C8F709078992324F40197806F9F6F8A
:101020000196F8018083880F880F62E0680F88813D
:10103000880F880F8E5F0E949F058111DDCFDF91A1
:10104000CF911F910F910895CF92DF92EF92FF926F
:10105000CF93DF93EC01BC0180E090E00E947C0B19
:101060009B01AC0160E070E088EC92E40E946E0AA3
:1010700020E030E048E453E40E94DB0A9B01AC012D
:1010800060E070E088E493E40E94B90B6B017C019E
:10109000BE01660F771F6C0F7D1F80E090E00E94FD
:1010A0007C0B9B01AC0160E070E08FE793E40E9451
:1010B000DA0B0E944D0BC62FC701B6010E944D0BE3
:1010C000862F40E06C2F0E94D009DF91CF91FF90D6
:1010D000EF90DF90CF9008951F93CF93DF93EC01B3
:1010E00011E010930A24FC01EA57FF4F81E090E0E1
:1010F00080839183349710823196108233971082C7
:10110000118241E060E070E0CE010E941E07FE0106
:10111000E657FF4F108381E090E00E942408CE0143
:101120000E94F2070E948F05CE010E943D07CE016A
:101130000E94F3060E948405DF91CF911F910895CC
:10114000DF92EF92FF920F931F93CF93DF93CDB770
:10115000DEB7CE58D109CDBFDEBFCE0101960E94C9
:101160006C086894DD24D1F80F2EF3E0EF2EF02DFB
:10117000FF24F394CB57DF4F1881C558D040CA578E
:10118000DF4F0881C658D04080910A24813071F425
:10119000C557DF4F8881CB58D040833009F4D7C082
:1011A000C557DF4FF882CB58D04034C080910A2415
:1011B000833071F4C557DF4F8881CB58D0408130E0
:1011C00009F4CAC0C557DF4FE882CB58D04022C0CF
:1011D00080910A2481110EC0C557DF4F8881CB58FA
:1011E000D040823009F4BEC0C557DF4F1882CB58BB
:1011F000D04010C080910A24823061F4C557DF4F7F
:101200008881CB58D040882329F0C557DF4FD8823A
:10121000CB58D040CE0101960E94A707CD57DF4F93
:101220008881C358D040C757DF4F9881C958D040F4
:10123000891320C0CC57DF4F2881C458D040C657EF
:10124000DF4F9881CA58D040291314C0C957DF4FC7
:1012500088819981C758D0400196C957DF4F88834C
:101260009983C758D0400E942408CE0101960E945D
:10127000F2073DC0CC57DF4F6881C458D040660F9D
:10128000660F880F880F0E949F05882381F10E94B6
:101290008F0562E086E00E9413038FE19BE90E94C4
:1012A0009C044AE0BE0164577F4FC957DF4F8881D5
:1012B0009981C758D0400E94DA0C63E086E00E9412
:1012C0001303CE0184579F4F0E949C048CE29BE93C
:1012D0000E949C0465E083E00E94130388E39BE97D
:1012E0000E949C040E9484050E94500A4DC00E94E6
:1012F0008F05CE0101960E943D07CE0101960E9406
:10130000F306CC57DF4F6881C458D040CD57DF4F2C
:101310008881C358D0400E94E509602F812F0E9428
:10132000E509C657DF4F6881CA58D040C757DF4F1D
:101330008881C958D0400E94E5092FE78AE196E0EC
:10134000215080409040E1F700C0000013CF809111
:101350000A24833069F436CF80910A24882309F463
:1013600043CF0CC080910A24823009F053CF4DCF77
:1013700080910A24882309F437CF3CCF80910A2436
:10138000823009F047CF41CFC257DF4FCDBFDEBF1C
:10139000DF91CF911F910F91FF90EF90DF90089513
:1013A000CF93DF9300D01F92CDB7DEB78A836983D6
:1013B0004B8361E070E0CE0101960E94E105239627
:1013C000CDBFDEBFDF91CF910895669544E0880FD1
:1013D000880F0E94BE0508951F920F920FB60F92BC
:1013E00011248F939F93149904C081E080930A2461
:1013F00010C0159904C083E080930A240AC0129992
:1014000003C010920A2405C0139903C082E08093A0
:101410000A24149B0BC0159B0BC0129B0BC082B1FE
:1014200083FB992790F981E0892705C081E003C0FB
:1014300081E001C081E0817090910B24891771F0E7
:10144000909109249F5F90930924909109249430EE
:1014500038F080930B241092092402C010920924C2
:1014600082B18695817091E0892790910C2489172B
:1014700069F0909108249F5F90930824909108242C
:10148000943020F080930C241092082481E0809303
:1014900053019F918F910F900FBE0F901F90189541
:1014A00080910C248823E1F308954FEF60E080E001
:1014B0000E94D0090895E0E4F1E081818111FDCF1F
:1014C000E0E4F1E081898111FDCFE0E4F1E089E31E
:1014D000808B81E0828B808380E008955058BB2709
:1014E000AA270E94860A0C94100C0E94020C38F065
:1014F0000E94090C20F039F49F3F19F426F40C9453
:10150000FF0B0EF4E095E7FB0C94F90BE92F0E941A
:10151000210C58F3BA17620773078407950720F068
:1015200079F4A6F50C94430C0EF4E0950B2EBA2F2B
:10153000A02D0B01B90190010C01CA01A0011124D9
:10154000FF27591B99F0593F50F4503E68F11A1685
:10155000F040A22F232F342F4427585FF3CF469516
:1015600037952795A795F0405395C9F77EF41F1638
:10157000BA0B620B730B840BBAF09150A1F0FF0F02
:10158000BB1F661F771F881FC2F70EC0BA0F621FEE
:10159000731F841F48F4879577956795B795F795DE
:1015A0009E3F08F0B0CF9395880F08F09927EE0F73
:1015B0009795879508950E94EF0A0C94100C0E944D
:1015C000090C58F00E94020C40F029F45F3F29F00A
:1015D0000C94F90B51110C94440C0C94FF0B0E94C9
:1015E000210C68F39923B1F3552391F3951B550B07
:1015F000BB27AA2762177307840738F09F5F5F4FE6
:10160000220F331F441FAA1FA9F335D00E2E3AF024
:10161000E0E832D091505040E695001CCAF72BD03C
:10162000FE2F29D0660F771F881FBB1F261737078D
:101630004807AB07B0E809F0BB0B802DBF01FF27BF
:1016400093585F4F3AF09E3F510578F00C94F90B98
:101650000C94440C5F3FE4F3983ED4F38695779561
:101660006795B795F7959F5FC9F7880F911D969578
:10167000879597F90895E1E0660F771F881FBB1FD4
:10168000621773078407BA0720F0621B730B840B81
:10169000BA0BEE1F88F7E09508950E94290C88F098
:1016A0009F5798F0B92F9927B751B0F0E1F0660F26
:1016B000771F881F991F1AF0BA95C9F714C0B13067
:1016C00091F00E94430CB1E008950C94430C672FF5
:1016D000782F8827B85F39F0B93FCCF38695779596
:1016E0006795B395D9F73EF490958095709561957F
:1016F0007F4F8F4F9F4F0895E89409C097FB3EF4AA
:1017000090958095709561957F4F8F4F9F4F99234E
:10171000A9F0F92F96E9BB279395F69587957795CC
:101720006795B795F111F8CFFAF4BB0F11F460FF8C
:101730001BC06F5F7F4F8F4F9F4F16C0882311F0E4
:1017400096E911C0772321F09EE8872F762F05C0F8
:10175000662371F096E8862F70E060E02AF09A9593
:10176000660F771F881FDAF7880F9695879597F988
:101770000895092E052A3AF0621773078407950722
:1017800038F00C946E0A2617370748075907C8F730
:10179000E0E8FEEF990F16161706E807F90740F084
:1017A000550F12161306E407F50710F00C94430CBE
:1017B0000C94FF0B990FBB0B550FAA0BE0E8FEEF43
:1017C00016161706E807F90770F012161306E40755
:1017D000F50760F0BA1754F031F4261737074807B9
:1017E0005907A7951BF4B901CA01BA2FB695979569
:1017F000089597F99F6780E870E060E008959FEF93
:1018000080EC089500240A94161617061806090697
:10181000089500240A941216130614060506089566
:10182000092E0394000C11F4882352F0BB0F40F4EE
:10183000BF2B11F460FF04C06F5F7F4F8F4F9F4F2E
:10184000089557FD9058440F551F59F05F3F71F0B0
:101850004795880F97FB991F61F09F3F79F0879517
:101860000895121613061406551FF2CF4695F1DFA0
:1018700008C0161617061806991FF1CF8695710530
:10188000610508940895E894BB2766277727CB0164
:1018900097F90895991B79E004C0991F961708F0ED
:1018A000961B881F7A95C9F78095089597FB072E98
:1018B00016F4009407D077FD09D00E946A0C07FC4B
:1018C00005D03EF4909581959F4F08957095619550
:1018D0007F4F0895AA1BBB1B51E107C0AA1FBB1F66
:1018E000A617B70710F0A61BB70B881F991F5A95AC
:1018F000A9F780959095BC01CD0108958F929F9294
:10190000AF92BF92CF92DF92EF92FF92CF93DF938D
:10191000EC01688179818A819B816115710581055E
:10192000910521F464E279ED8BE597E02DE133EF49
:1019300041E050E00E940F0D49015A019B01AC01AA
:10194000A7EAB1E40E942E0D6B017C01ACEEB4EF6E
:10195000A50194010E943C0DDC01CB018C0D9D1D65
:10196000AE1DBF1DB7FF03C00197A109B048888312
:101970009983AA83BB839F77DF91CF91FF90EF90EC
:10198000DF90CF90BF90AF909F908F9008950E946E
:101990007E0C089580E090E20E947E0C0895A0E005
:1019A000B0E08093002090930120A0930220B09398
:1019B00003200895BB274A3031F4992322F4BDE275
:1019C000909581959F4F0C94E60CBB27FB01552702
:1019D000AA27880F991FAA1FA41710F0A41B83958C
:1019E0005051B9F7A05DAA3308F0A95DA193009703
:1019F00079F7B111B1931192CB010C94FF0CDC017A
:101A0000FC01672F71917723E1F7329704C07C9135
:101A10006D9370836291AE17BF07C8F30895052ECA
:101A200097FB1EF400940E94260D57FD07D00E94DC
:101A3000410D07FC03D04EF40C94260D50954095B3
:101A4000309521953F4F4F4F5F4F0895909580956A
:101A5000709561957F4F8F4F9F4F08950E94630D42
:101A6000A59F900DB49F900DA49F800D911D1124F2
:101A70000895B7FF0C942E0D0E942E0D821B930B20
:101A80000895A1E21A2EAA1BBB1BFD010DC0AA1FBF
:101A9000BB1FEE1FFF1FA217B307E407F50720F0D7
:101AA000A21BB30BE40BF50B661F771F881F991F52
:101AB0001A9469F760957095809590959B01AC019B
:101AC000BD01CF010895A29FB001B39FC001A39FA4
:101AD000700D811D1124911DB29F700D811D112467
:081AE000911D0895F894FFCF59
:101AE8007E54696E7950437E002870726573732046
:101AF800746F207374617274290062792050617563
:101B08006C204B6C696E676572002A2000736E61E9
:101B18006B6500676F6C0047414D45204F56455235
:101B2800210D0A0020706F696E74730D0A0D0A008A
:101B380028707265737320746F2072657475726E85
:021B4800290072
:061B4A0001000000010093
:02000004008278
:090000000000020000C40700002A
:00000001FF
